:100000000C94DA020C942E260C94F7020C94F7024E
:100010000C94F7020C94F7020C94F7020C94F7027C
:100020000C94F7020C94F7020C94771F0C94331F76
:100030000C9474200C94F7020C94F7020C94F702C1
:100040000C94F7020C94F7020C94F7020C94F7024C
:100050000C94F7020C9450200C94F7020C94F702C5
:100060000C94F7020C94F7020C94F7020C94F7022C
:100070000C94F7020C94F7020C94F7020C94F7021C
:100080000C94F7020C94F7020C94F7020C94F7020C
:100090000C94F7020C94F7020C94F7020C94F702FC
:1000A0000C94F7020C94F7020C94F7020501090274
:1000B000A10185020901A1000509190129081500FE
:1000C0002501950875018102050109300931158165
:1000D000257F95027508810609381581257F9501D0
:1000E00075088106050C0A38021581257F95017572
:1000F000088106C0C005010980A101850319012AF4
:10010000B700150126B700950175108100C0050CD8
:100110000901A101850419012AA002150126A002E6
:10012000950175108100C00660FF0961A101096297
:10013000150026FF00952075088102096315002629
:10014000FF00952075089102C005010906A101056F
:100150000719E029E7150025019508750181029529
:1001600001750881010507190029FF150026FF0008
:100170009506750881000508190129051500250156
:10018000950575019102950175039101C00000006C
:10019000000000000000000000000000000000005F
:1001A000000000000000000000000000000000004F
:1001B000007E0F00D4FFFFFFC700000078000000A2
:1001C00000000000002A2B280000000000000000B2
:1001D000000000000000000029000000002C1E3478
:1001E00020212224342627252E362D3738271E1F7E
:1001F000202122232425263333362E37381F0405A9
:10020000060708090A0B0C0D0E0F10111213141516
:10021000161718191A1B1C1D2F3130232D350405F4
:10022000060708090A0B0C0D0E0F101112131415F6
:10023000161718191A1B1C1D2F3130354C29001E9A
:10024000001F00200021002200A8002B0014001A2B
:10025000000800150017002800E20004001600073F
:100260000009000A003801E1001D001B000600190A
:100270000005004C00E000E300E200447E2A002C70
:1002800000417E4C7E2300240025002600270046E6
:10029000004A7E1C0018000C001200130089004C5C
:1002A0007E0B000D000E000F00330034004B7E115A
:1002B000001000360037003800E500427E28002D8F
:1002C00000437E300032002F0029003B003B003C01
:1002D000003D003E0044002B0017014A7E520843B7
:1002E000022B066800E2001A0150082B054F082B6C
:1002F000046900E10016083D04510817082B084C5A
:1003000000E000E300E20001002A002C0001002EC2
:10031000003F00400041004200430048002B0355CD
:10032000005F0060006100560089002B0154005CF2
:10033000005D005E00570034004C7E340059005AC6
:10034000005B002E00E500010028002D0062006324
:100350000000002F0029003B003B003C003D003E18
:100360000044002B0014001A000800150017006854
:1003700000E20004001600070009000A006900E11D
:10038000001D001B000600190005004C00E000E302
:1003900000E200447E2A002C00010045003F00409E
:1003A000004100420043004800B7004A7E4A005224
:1003B000004D0043022900B6004A00500051004F92
:1003C000004D00497E4C7E4E00477E467E457E4B6A
:1003D00000E5000100487E8700437EDC0000002F1E
:1003E0000029003B003B003C003D003E0044002B48
:1003F000006A006B006C006D006E004A7EE2006ACD
:10040000016B016C016D016E014B7EE1006A026BB4
:10041000026C026D026E024C00E000E300E2004458
:100420007E2A002C00010045003F004000410042B0
:1004300000430048004B7E6F007000710072007333
:100440000029004A7E6F0170017101720173012958
:10045000004C7E6F027002710272027302E50001AD
:1004600000280087000100DC0000002F0029003A6E
:10047000003B003C003D003E0044002B001E021FDC
:10048000022002210222022800E2001E041F042092
:1004900004210422044400E1003A003B003C003DFA
:1004A000003E004C00E000E300E20001002A002CC6
:1004B00000417E45003F00400041004200430046AD
:1004C000002E0023022402250226022702290045CD
:1004D000002304240425042604270434004C7E3F12
:1004E000004000410042004300E500427E28002D0C
:1004F00000437E300032002F00DA00D900D900DA44
:1005000000DA00D900D900DA00DA00D900D900DA1F
:1005100000AA00A900A900AA00AA00A900A900AA8F
:100520000009025B00030100A0FA090400000103B6
:100530000101000921110100012244000705810386
:100540000800010904010002030000000921110153
:100550000001222200070582032000010705030392
:10056000200001090402000103000000092111011B
:100570000001227B00070584032000011201000214
:1005800000000008ABAA02000001010200010E03F6
:100590006D006F006F006F007300650000001003B6
:1005A000610074006100720075006E006F00000051
:1005B0000403090411241FBECFEFDAE0DEBFCDBF74
:1005C00011E0A0E0B1E0EEEEF3E502C005900D927F
:1005D000A83AB107D9F722E0A8EAB1E001C01D921C
:1005E000A13DB207E1F70E949B200C94BC290C941A
:1005F0000000482F2091D0029091970257E02913D4
:1006000002C080E0089530E0529FF001539FF00D4A
:100610001124E856FD4F8181681306C0808148137C
:1006200003C085818111EECF2F5F3F4F2770E7CF49
:10063000E8EDF0E080818E7F80831092E2001092DE
:10064000DA001092E100A0EEB0E08C9181608C9312
:1006500080818F77808319BCA7EDB0E08C918E7F6D
:100660008C9380818F7E808310927F0208952091E9
:10067000E4003091E50095E6A9012091EC00822F7D
:10068000817020FF06C08091E80080FF06C080E0F6
:1006900008952091E80022FD1AC080918D028823E0
:1006A00089F0853089F08091EB0085FD0FC02091A5
:1006B000E4003091E50042175307F9F29150E1F65A
:1006C00084E0089582E0089583E0089581E008952C
:1006D00080918F0287FF13C08091E80082FF06C0DF
:1006E0008091E8008B778093E80004C080918D02B0
:1006F0008111F2CF089580918D028823D9F38091E2
:10070000E80080FFF8CF8091E8008E77ECCF982F3B
:100710009093E900242F762F50E0891731F07091E3
:10072000EC002091ED005091F00021FD07C09F5F8B
:10073000973071F78093E90081E008953091EB00E4
:100740003E7F3093EB003091ED003D7F3093ED0024
:100750003091EB0031603093EB007093EC0020930C
:10076000ED005093F0002091EE0027FDE0CF80E0F7
:100770000895B0E0A0E0EFEBF3E00C945427C8ED4F
:10078000D0E088818F7E8883E7EDF0E08081816012
:10079000808384E082BF81E080937F0288818E7FA6
:1007A000888302EE10E0F80110821092DA0081EEE8
:1007B000C82ED12CF601108288818F77888388819A
:1007C0008068888388818F7D888319BC10928D0210
:1007D00010928E0210928C0210928B0290EEE92EF3
:1007E000F12CF70180818B7F8083888181608883F1
:1007F00042E060E080E00E948703F60180818E7F06
:100800008083F8018081816080838081886080831B
:10081000F70180818E7F8083888180618883CDB756
:10082000DEB7E8E00C947027FC018091950290916E
:10083000960286179707A0F06115710529F490912B
:10084000E8009E779093E80090E06115710551F4FF
:10085000911108C08091E80082FF34C080E00895C3
:10086000BC01F2CF80918D028823C1F18530C1F1A6
:100870008091E80083FD30C08091E80082FDEACFDE
:100880008091E80080FFE1CF8091F3002091F20099
:10089000382F6115710519F02830310558F091E0B5
:1008A0002830310509F090E02091E8002E77209360
:1008B000E800CBCF81918093F100615071092F5FE7
:1008C0003F4FE7CF80918D02882341F0853041F082
:1008D0008091E80083FFBECF81E0089582E0089513
:1008E00083E0089580918202089587E797E79093C7
:1008F00001088093000888E19AE00FB6F894A89563
:10090000809360000FBE90936000FFCF9C014FB7B3
:10091000F89480917B0290917C02A0917D02B0912D
:100920007E024FBF821B930B08952FB7F8946091FE
:100930007B0270917C0280917D0290917E022FBF9C
:1009400008952FB7F89480917B0290917C02A0913A
:100950007D02B0917E022FBF0895DC01FB0111964C
:100960009C9111978181981322C012968C911297B5
:10097000882319F0928189131AC013968C911397CA
:10098000882319F09381891312C015968C911597BD
:10099000882319F0958189130AC014969C91992394
:1009A00021F081E02481291303C080E001C081E0AF
:1009B000817008959C01FC0132969FEF80E0419187
:1009C000461751F09F3F19F4411101C0982F8F5FD6
:1009D0008630A9F79F3F09F40895290F311D97FD2F
:1009E0003A95F90162830895A3E0B0E0EAEFF4E0FC
:1009F0000C945A27209178023091790228173907F0
:100A0000A1F09093790280937802E0917602F091C0
:100A10007702309751F024E029839B838A830680F4
:100A2000F781E02DCE01019609952396E2E00C9422
:100A30007627A3E0B0E0EFE1F5E00C945A2720918F
:100A400074023091750228173907A1F0909375024E
:100A500080937402E0917602F0917702309751F022
:100A600023E029839B838A830680F781E02DCE01D2
:100A7000019609952396E2E00C947627E0917602A0
:100A8000F0917702309739F022E0DC012C9304805A
:100A9000F581E02D09950895FC01680F791F8FEF0E
:100AA00091E32191822728E030E087FF09C0880F79
:100AB000892721503109C9F7E617F70791F70895FB
:100AC000880FF7CF299A089529980895A6E0B0E0F5
:100AD000ECE6F5E00C945A2749835A836B837C83B8
:100AE0008D839E83BE016F5F7F4F8CE692E00E94F4
:100AF000AD0480936B0286E0FE013196ACE6B2E075
:100B000001900D928A95E1F72696E2E00C94762703
:100B1000A6E0B0E0EEE8F5E00C945A2786E0ECE6BB
:100B2000F2E0DE01119601900D928A95E1F729819C
:100B30003A814B815C816D817E8180E090E02696D8
:100B4000E2E00C9476270E94A1049C0190915D0242
:100B500080915E02982B21F0309352022093510233
:100B600090915F0280916002982B21F030935002A7
:100B700020934F028BE592E00E943E0508958091FC
:100B80004E0280FD16C081FD16C082FD16C0809108
:100B90004D028823A1F0883280F428E0829FC001B2
:100BA000112468E270E00E949527862F672B39F0A8
:100BB000089582E0089584E0089588E0089581E032
:100BC000089580914E0280FD14C081FD14C082FD05
:100BD00016C080914C02882381F08E3180F420E58C
:100BE000829FC00111246EE170E00E949527862F3C
:100BF000089584E1089588E2089588E0089580E5E5
:100C00000895282F35EB2303C001112497FF04C05A
:100C100080589109892F089580589F4FFBCF80E01D
:100C20000895F894E82FE295EF70F0E031A1282FB5
:100C30002F7081E090E001C0880F2A95EAF7982F85
:100C40009095932391A392A1892B82A378940895E0
:100C500090912C0292FF10C041E0282F2471243083
:100C600009F040E031E0282F2871283009F030E009
:100C7000431711F02CE0822793FF10C041E0282F8A
:100C80002471243109F040E031E0282F2871283107
:100C900009F030E0431711F02CE0822730912D024B
:100CA00030FF10C051E0282F2171213009F050E0B1
:100CB00041E0282F2871283009F040E0541711F046
:100CC00029E0822731FF10C041E0282F2171213116
:100CD00009F040E031E0282F2871283109F030E098
:100CE000431711F029E0822794FD877E089582380A
:100CF0009105B9F1B0F48133910509F47DC048F450
:100D00008932910509F46DC08A32910509F47BC0DE
:100D100008958533910509F45FC08933910509F180
:100D20000895833E9105D9F138F4803E910529F16B
:100D3000823E910579F10895863E9105D9F1873E6D
:100D4000910509F43EC0843E910541F520912D02A4
:100D500021FF24C080912C0284FD19C087EE90E011
:100D6000089520912C02237009F05AC020912D0281
:100D700023FF14C089E290E0089520912C0220FD09
:100D800038C030912D0230FF09C024FF43C090E0ED
:100D900080E0089520912C0222FDF7CF0895209144
:100DA0002C0222FD3AC030912D0230FD39C024FFC3
:100DB000F5CFEDCF20912C0223FFF0CF24FDE7CF1C
:100DC000CDCF20912C0223FD2EC030912D0231FF7A
:100DD000EECF84EE90E0089520912C0225FFDECF27
:100DE000C9CF20912C0225FD21C020912D0223FF87
:100DF000D5CF89E390E0D2CF20912C0226FFCECF31
:100E00008AE290E0089520912C0226FFC7CF81E36B
:100E100090E0089583EE90E0089582EE90E00895CA
:100E200080EE90E0089586EE90E0089585E390E0EE
:100E300008951F93CF93DF930E947706EC01C115AD
:100E400080E5D807F0F5C11580E4D80708F09CC00C
:100E5000C03ED10520F5CD3CD10508F082C0C83A8E
:100E6000D10578F4C53AD10508F073C0C130D10579
:100E700019F1209709F1C430D105F0F4D0E0C0E0B9
:100E80001BC0C33CD105D0F7C85AD0E0CC0FDD1F42
:100E9000CB5BDE4F0990D881C02DD4640DC0C11545
:100EA00080E2D80708F0D1C0C11581E0D80708F06A
:100EB0005AC0C83ED10510F7CE01DF91CF911F91E6
:100EC0000895C03682E5D80718F5C03482E5D80702
:100ED00008F06BC0C03282E5D80708F05FC0C115CA
:100EE00082E5D80708F497C02C2F2695269580E236
:100EF000289F900111248C2F8370C1E0D0E002C0A4
:100F0000CC0FDD1F8A95E2F7C22BD32BDD68D4CF3F
:100F1000C03A82E5D80760F4C03882E5D80708F403
:100F200059C0CF71D0E0DC2FCC27C46FD06AC4CFBA
:100F3000C03C82E5D80708F462C0C03E82E5D8070D
:100F400008F09CCFDC2FCC27CC27DF71C06FD06A94
:100F5000B3CFC55AD0E0CE5BDE4FC881D0E0D064BD
:100F6000ABCFD065A9CF8D2F0E942806182FCE01B8
:100F700099270E947706C12FD0E0DC2FCC27CC2701
:100F8000DF71C82BD92B98CFCE0199270E94770605
:100F9000CC27DF70C82BD92BD06A8ECFCF71D0E091
:100FA000DC2FCC27C16FD06A87CF2C2F26952695B2
:100FB000277080E2289F900111248C2F8370C1E05C
:100FC000D0E002C0CC0FDD1F8A95E2F7C22BD32BF5
:100FD000DC6872CF2C2F26952695277080E2289FFB
:100FE000900111248C2F8370C1E0D0E002C0CC0F9F
:100FF000DD1F8A95E2F7C22BD32BDA685DCF8C2FE9
:101000008F710E942806C82FD0E0DC2FCC27CC2778
:10101000DF71D06251CF8C2F8F710E94280655E06E
:10102000D695C7955A95E1F7CF70D0E0DC2FCC2745
:10103000282F30E084FF05C044E0220F331F4A957B
:10104000E1F7C22BD32BD06937CF8D2F8F710E9440
:101050002806182FCE0199270E947706C12FD0E0CD
:10106000DC2FCC27CC27DF71C82BD92BD2CF0E9405
:101070009504089580959091800298239093800222
:1010800008958091D00290919702981301C008951D
:101090008F5F8770FACFA82FA77023E0969587956A
:1010A0002A95E1F7FC01EE0FFF1FE80FF91FE60F8D
:1010B000F71F50E040E080E0219130E00A2E02C0AE
:1010C000369527950A94E2F721703327042E01C044
:1010D000220F0A94EAF7822B4F5F5F4F433051058E
:1010E00059F70895292F9A3068F4873090F490E0EA
:1010F0006DEB71E037E0239F800D911D11240E945C
:101100004B0808952C5F223020F46AEB71E090E0E8
:10111000F6CF80E00895262F277091E001C0990F47
:101120002A95EAF723E0769567952A95E1F7FB0182
:10113000EE0FFF1FE60FF71FE40FF51F50E040E032
:10114000682F70E08191DF0111979B01042E02C08E
:10115000369527950A94E2F72170219528272923AF
:1011600028272C934F5F5F4F4330510559F708955F
:10117000282F862F9A3070F4273058F4622F70E0B1
:1011800027E0929F600D711D11244DEB51E00E94EC
:101190008B0808959C5F9230E0F7622F70E04AEB75
:1011A00051E0F5CF80932B02089590912B0221E01E
:1011B00030E0F90101C0EE0F8A95EAF7D90102C0CB
:1011C000AA0FBB1F6A95E2F7EA2B01C0220F4A95CE
:1011D000EAF7892F8E23E81305C0292B822F0E945E
:1011E000D208089520952923F9CF21E030E001C0ED
:1011F000220F8A95EAF7209580912B0282230E9484
:10120000D20808959091DF01809589238093DF01B2
:10121000282F277069F4891759F090912D0292FFB9
:1012200007C08695869586950E94F5081092DF0185
:10123000089521E030E001C0220F8A95EAF78091FD
:101240002B02822B0E94D208089580932A020895CF
:101250000F931F93CF93DF938B01EA0190918D023F
:10126000943061F58093E9008FEF9091E800815010
:1012700095FD06C095ED9A95F1F700008111F5CF27
:101280008091E80085FF1AC00E943703811111C0C8
:101290008091E80085FD06C08091E8008E778093FC
:1012A000E800F2CFF80181918F018093F10021973E
:1012B00079F78091E8008E778093E800DF91CF91F5
:1012C0001F910F91089543E050E0BC0184E00E941B
:1012D0002809089546E050E0BC0184E00E942809F6
:1012E0000895CF93DF93EC0148E050E0BC0181E02A
:1012F0000E94280988E0FE01A3E8B2E001900D9267
:101300008A95E1F7DF91CF910895869A27E030E042
:1013100090E08F98AC01022E02C0559547950A9433
:10132000E2F740FF0EC08E9A4AE04A95F1F700C0FE
:101330008F9A2150310968F785E18A95F1F700000D
:1013400008958E98F1CFCF93C1E08D37910550F07D
:10135000CDE0863D26E0920728F46DE770E00E941C
:101360008127C62F0E94640589E90E9485098C2F78
:1013700080610E9485090E946205CF910895869838
:101380008E9898E080E08F9825E02A95F1F700008C
:101390002FB126FB222720F9880F822B8F9A25E078
:1013A0002A95F1F70000915071F70895CF930E94AC
:1013B000640589E10E9485090E94BF09C82F25E0C4
:1013C0002A95F1F700000E946205C0712DE7C29FC7
:1013D000C0011124CF910895CF93DF930E9464053B
:1013E00083E60E9485090E94BF09D82F0E94BF0989
:1013F000C82F0E9462058D2FD7FD80689C2FC7FDE6
:101400009068DF91CF910895ACE0B0E0EAE0FAE0B7
:101410000C9458274F8358878B879C87162F072F4C
:101420000E94EC09811104C0911102C0902F812FFC
:1014300089879A8786E0FE013796DE011196019032
:101440000D928A95E1F729813A814B815C816D810A
:101450007E8180E090E02C96E4E00C947427879ADB
:10146000869A219A0E9464058AEB0E9485098AE582
:101470000E9485090E9462052FE78FEA92E02150C1
:1014800080409040E1F700C000000E94EC09089500
:10149000B0E0A0E0EEE4FAE00C9452277C015B019E
:1014A0006A0180911B0201E010E08A3010F40AE02A
:1014B00010E0C1E0D0E0B501C701F6010995811146
:1014C00004C021960C171D072CF4CDB7DEB7EAE057
:1014D0000C946E27CC9F9001CD9F300D300D1124C0
:1014E00090E080E045E34A95F1F70000019682170D
:1014F0009307C1F7E0CF8091F601811110C0809170
:10150000D80080618093D8008AE18A95F1F700C005
:101510008091D90080FF0AC081E08093F60181E0CC
:101520009091F601913009F080E0089582E0809377
:10153000F6010E94180310928D02F1CF0E947B0ADF
:10154000882359F0E0917602F0917702309729F0E4
:101550000190F081E02D0995089580E00895CF93E2
:10156000DF93EC010E947B0A882331F0CE010E94B8
:10157000A309DF91CF910895D0937302C0937202B3
:10158000F8CFCF93DF93CDE0D3E060E0CE010E94AF
:10159000D4272196C11584E0D807B9F7DF91CF9100
:1015A00008950F931F93CF93DF93142F022F85304D
:1015B00020F5623010F598E0899FE001112484E065
:1015C000689FB0011124C60FD71FCB51DD4F82E0B9
:1015D00090E0442311F090E080E0632F8C0F9D1F7A
:1015E0000E94D42783E090E0112311F081E090E085
:1015F000602F8C0F9D1F0E94D427DF91CF911F91E8
:101600000F9108951F93CF93DF93122F8530E0F44D
:101610006A30D0F44730C0F4C42FD0E0CC0FDD1FC7
:101620009EE0699FC00DD11D11249CE8899FC00DCB
:10163000D11D1124632FCE0189960E94D427612FDA
:10164000CE018A960E94D427DF91CF911F910895F1
:101650008F929F92AF92BF92DF92EF92FF920F9381
:101660001F93CF93DF9309EF14E08DE3E82E82E020
:10167000F82EC0E05701D0E015C0F4012591349157
:101680004D2D6D2F8C2F0E94020B82E0880E911C35
:10169000D39487E0D812F1CF8EE0A80EB11CDF5FA3
:1016A000DA3019F04501D12CE8CFF80125913491B9
:1016B00041E060E08C2F0E94D10AF801329625911A
:1016C000349140E060E08C2F0E94D10AF8013496FA
:1016D0002591349141E061E08C2F0E94D10AF801FC
:1016E00036962591349140E061E08C2F0E94D10A1A
:1016F000085F1F4FCF5F8CE8E80EF11CC53009F082
:10170000B9CFDF91CF911F910F91FF90EF90DF90B4
:10171000BF90AF909F908F900895CF93C82F6FEF99
:10172000811164E285E290E00E94D4276FEFC1113D
:1017300068E086E290E00E94D4276FEFC11166E175
:1017400087E290E00E94D427CF91089580E00E9424
:101750008D0B60E088E290E00E94D4270E94280B65
:101760000E94C10A81E00E948D0B0895FF920F93A1
:101770001F93CF93DF93F42E853070F5623060F5C0
:1017800028E0829F8001112434E0639FB00111247E
:10179000060F171F0B511D4F82E090E0442311F0FC
:1017A00090E080E0800F911F0E94B627C82FD0E004
:1017B000DC2FCC2783E090E0FF2011F081E090E067
:1017C000800F911F0E94B6279E01282BC901CDB71B
:1017D000DEB7E5E00C94732790E080E0F8CF0F933C
:1017E0001F93CF93DF93853030F56A3020F5473073
:1017F00010F5C42FD0E0CC0FDD1F2EE0629FC00D8E
:10180000D11D11243CE8839FC00DD11D1124CE01B0
:1018100089960E94B627082F10E0102F0027CE01CE
:101820008A960E94B6279801282BC901DF91CF9193
:101830001F910F91089590E080E0F8CF7A3048F43E
:10184000673070F4853060F4462F672F0E94EF0BED
:1018500008957D3F41F4623018F441E0853050F046
:1018600090E080E008957C3FD9F76230C8F785307A
:10187000B8F740E00E94B60B0895CF92DF92FF9236
:101880000F931F93CF93DF936C0100912B028091F4
:101890002A02082BC4E0D0E010E0FC2EC8010C2E78
:1018A00002C0959587950A94E2F780FD0CC02197B8
:1018B000A0F7F12C8F2DDF91CF911F910F91FF9009
:1018C000DF90CF900895B6018C2F0E941E0C0E94CD
:1018D0001907019761F3EECFCF93DF93EC010E94DC
:1018E0003D0CBE010E941E0C0E941907DF91CF9192
:1018F0000895FC0124812223C1F0808191810E94FE
:101900006C0C92959F70963091F058F4925F9F7096
:10191000923058F4803F19F030F4883E30F481E082
:1019200008959A5FF4CF843FD1F380E00895883E14
:10193000B0F3813FD1F7F3CFA6E0B0E0E2EAFCE0FC
:101940000C94592749835A8349815A819923A1F0DC
:10195000222391F0CA010E943D0C182F682F898123
:101960009A810E94B80869817A81812F0E941E0C99
:101970002696E3E00C947527CA010E947208182F7E
:10198000F2CF85E290E00E94B627843289F486E2A5
:1019900090E00E94B627883059F487E290E00E94D8
:1019A000B62791E0863109F090E0892F8170089583
:1019B00080E0FCCFCF9363E572E08CE692E00E947A
:1019C000AD04C82F882321F08CE692E00E943E05EA
:1019D00090916D0286E0ECE6F2E0DF01282F1D9287
:1019E0002A95E9F790936D02A3E5B2E001900D927C
:1019F0008A95E1F781E0C11103C0911101C080E037
:101A00008170CF910895AEE1B0E0E9E0FDE00C9483
:101A100050270E947B0A811105C080E06E96ECE0A1
:101A20000C946C27409167025091680260916902A2
:101A300070916A022FB7F89480917B0290917C029A
:101A4000A0917D02B0917E022FBF481759076A0707
:101A50007B0719F30E9495046093670270936802F4
:101A60008093690290936A020E947B0A882309F49A
:101A7000CDC040916C0250916D0260916E027091E8
:101A80006F0280917002909171020E94040A20936B
:101A90006C0230936D0240936E0250936F0260931C
:101AA00070027093710286E0ECE6F2E0DE011796B8
:101AB00001900D928A95E1F786E0FE013796DE01EE
:101AC0001D9601900D928A95E1F786E0FE013D9604
:101AD000DE01119601900D928A95E1F786E0FE01F4
:101AE0003196ACE6B2E001900D928A95E1F786E07E
:101AF000ECE6F2E0DE01599601900D928A95E1F74D
:101B000086E0FE017996DE01179601900D928A9586
:101B1000E1F71B8D0C8D80915A02882309F480C057
:101B200082EE94E00E94AF0A612F110F770B880BB1
:101B3000990B0E94AD286B017C01602F000F770B81
:101B4000880B990B0E94AD284B015C01AC019B01F5
:101B5000C701B6010E9408282DEC3CEC4CEC5EEB72
:101B60000E9439290E947528062FA5019401C701FA
:101B7000B6010E9409282DEC3CEC4CEC5EE30E947F
:101B800039290E94752810E0F12CF9861A876B8795
:101B90000C8786E0FE013796DE01119601900D92CA
:101BA0008A95E1F786E0FE013196DE0153960190B9
:101BB0000D928A95E1F786E0FE017396DE01179695
:101BC00001900D928A95E1F786E0FE013796ACE62A
:101BD000B2E001900D928A95E1F786E0EBE5F2E044
:101BE000DE01179601900D928A95E1F780916D02C2
:101BF0009885892B80936D020E94DA0C811127C091
:101C000080916B02817010926B0208CF86E0E1E652
:101C1000F2E0ACE6B2E001900D928A95E1F743CF95
:101C2000F02EF11A212F332721950CF43095122F25
:101C3000101B80915902882339F081E792E00E94BD
:101C4000AF0A00E060E0A1CF82EE94E0F8CF81E03F
:101C500090E0D8CF662309F472C08D3C41F40E9415
:101C6000E105819580935E020E94A30508958E3C54
:101C700019F40E94E105F6CF8F3C31F40E94E10592
:101C8000819580935D02F0CF803D19F40E94E105BB
:101C9000F8CF893D29F40E94BF0580935F02E4CF0D
:101CA0008A3D21F40E94BF058195F7CF8B3D31F429
:101CB0000E94BF05819580936002D6CF8C3D19F4B8
:101CC0000E94BF05F8CF9FE2980F983020F5282F8B
:101CD000215D330BA90121E030E001C0220F4A95BC
:101CE000EAF790915C02922B90935C02815D21E077
:101CF00030E0A90102C0440F551F8A95E2F7CA01DE
:101D000020916D02662309F493C0822B80936D02AB
:101D10000E94DA0C08958D3D31F480914E0281606D
:101D200080934E02A1CF8E3D21F480914E028260BD
:101D3000F7CF8F3D19F580914E028460F1CF9091DD
:101D40005D028D3C59F420915E0227FF0DC0109278
:101D50005E0291110BC010924C0208C08E3CB1F48F
:101D600020915E0212169CF39923B1F090915F02CC
:101D700020916002922B11F410924D02482F415D88
:101D8000550B4830510508F4B1CF6ECF8F3C39F474
:101D900097FFEACF10925D0290915E02DACF803D0C
:101DA00019F41916BCF3E0CF20915F02893D29F4A4
:101DB0001216D4F610925F02D7CF8A3D19F427FF8E
:101DC000D3CFF8CF209160028B3D29F427FFCCCFF1
:101DD00010926002C9CF8C3D19F41216CCF3C4CF17
:101DE0002FE2280F283088F4282F215D330BA9011A
:101DF00021E030E001C0220F4A95EAF720953091AA
:101E00005C02232320935C02AFCF20914E022E7FF1
:101E10008D3D59F020914E022D7F8E3D31F08F3D4A
:101E200009F0A2CF20914E022B7F20934E029CCF2F
:101E3000809582236BCF90912D0292FB222720F96F
:101E4000281779F080FB92F990932D0260912C0273
:101E500070912D0284E090E00E94F22782E00E94BF
:101E6000020908954F925F927F928F929F92AF9254
:101E7000BF92CF92DF92EF92FF920F931F93CF9377
:101E8000DF930F92CDB7DEB7C62E4A015901482E17
:101E9000880F5508C2010E94D426782E882309F4A1
:101EA00080C0C20133E0880F991F3A95E1F7FC0129
:101EB000E050FF4F438150E04115510511F041E0E2
:101EC00050E080509F4FFC01648175816C5F7D4FB5
:101ED000CE0101960E94B329F401408151816281B3
:101EE00073812FB7F89480917B0290917C02A0912E
:101EF0007D02B0917E022FBF841B950BA60BB70B02
:101F000084369105A105B10540F4B701C8010E94CE
:101F10004C059981891709F444C00C2C000CDD088C
:101F2000C6010E94D426782E811113C0712C872DF2
:101F30000F90DF91CF911F910F91FF90EF90DF9065
:101F4000CF90BF90AF909F908F907F905F904F9079
:101F50000895C60123E0880F991F2A95E1F7FC0137
:101F6000E050FF4F438150E0E416F50608F4A70166
:101F700080509F4FFC01648175816C5F7D4FC5016E
:101F80000E94B329B701C8010E944C0599818913A9
:101F9000CDCF0E949504F401608371838283938383
:101FA000C6CFA701B801C5010E94B329C0CFACE0DC
:101FB000B0E0EDEDFFE00C9456270E947B0A811102
:101FC00050C086E0E82EF12C0DE012E09E01295F62
:101FD0003F4F47E152E065E084E00E94320F8823E2
:101FE00091F096E0FE013796DE01119601900D9278
:101FF0009A95E1F796E0FE013196A1E6B2E00190F4
:102000000D929A95E1F700917202109173020115F9
:10201000110539F120911502309116022017310770
:1020200001F11093140200931302809131019091F9
:1020300032018C5F9D4F4091300150E0433051059B
:1020400010F042E050E063E172E00E94B32986E0C4
:1020500090E00E94D426882321F01093160200936A
:1020600015022C96E6E00C947227A5E0B0E0EBE3B5
:10207000F0E10C9454276B0185E0E82EF12C05E08B
:1020800012E09E012F5F3F4F4CEF51E061E080E096
:102090000E94320F882349F095E0FE013196A7EFA8
:1020A000B1E001900D929A95E1F795E0E7EFF1E04C
:1020B000D60101900D929A95E1F72596E8E00C94EF
:1020C0007027A9E1B0E0E7E6F0E10C944F278E011C
:1020D0000F5F1F4F8AE0D8011D928A95E9F78DE7BF
:1020E000C82E81E0D82EF12CE12CAA24A394B12C87
:1020F00029E8822E21E0922EF60181916F018F3F17
:1021000009F442C0F894E82FE295EF70F0E021A1C5
:102110008F70A50102C0440F551F8A95E2F7CA01CE
:10212000922F982B91A392A18095892382A37894D2
:1021300000C0E2E8F1E0712C31E021912F3F09F479
:102140006BC0A22FA295AF70B0E090968C9190E0FA
:102150002F7002C0959587952A95E2F780FD5CC0A7
:10216000832F782A330F8E169F0639F7F6013197A1
:1021700080818F3F11F00E94110650EA5A95F1F7C5
:10218000F801EE0DFF1D70828FEFE81AF80A95E056
:10219000E916F10409F0B0CF4AE050E0B8018EE151
:1021A00092E00E94A629009741F02AE0F801AEE1F2
:1021B000B2E001900D922A95E1F700912902892B56
:1021C00069F181E08093EE010E94A1049093ED01FA
:1021D0008093EC018091EC019091ED010E948604C6
:1021E000059700F110E00E5B1D4F45E050E06EE1F9
:1021F00072E0C8010E94A629D12C892B51F085E0FC
:10220000EEE1F2E0D80101900D928A95E1F7DD242C
:10221000D3941092EE0107C080E0A3CF8091EE012D
:102220008111D8CFD12C0E947B0AC82EE0912902BF
:10223000DE011B967D01882309F470C085E01D92A4
:102240008A95E9F70E2F10E00E5B1D4F80911B025F
:102250008A3090F545E350E1B701C8010E94480A71
:10226000882309F44AC046EB5EE1B701C8010E9429
:10227000480A882309F441C047ED5FE0B701C8016F
:102280000E94480A8823C9F110921B0280912802FB
:1022900090E045E050E0B7018E5B9D4F0E94A6297B
:1022A00021E02093F501892BD9F4C12C8C2D8D29A7
:1022B0006996EDE00C946B278091EF019091F0010D
:1022C0000E948604843F914028F68091F50188237E
:1022D00061F385E0F70111928A95E9F71092F50113
:1022E000A0912802B0E0AE5BBD4F85E0FE013B96B9
:1022F00001900D928A95E1F7D9CF80911B028F3F13
:1023000031F08F5F80931B028A3008F4BFCF0E94A8
:10231000A1049093F0018093EF01D7CFF0E0EE5B42
:10232000FD4F85E0A5E0B2E001900D928A95E1F7BE
:1023300065E070E085E092E00E944C058093040225
:1023400040913E0250E060913D0270E0675C7D4F3D
:10235000C7010E94B3298B8580930B0261E070E076
:10236000C7010E944C0580930A020E947B0A8823C1
:1023700009F49CCF4091F1015091F2016091F30179
:102380007091F4012FB7F89480917B0290917C02B8
:10239000A0917D02B0917E022FBF481759076A07AE
:1023A0007B0709F483CF0E9495046093F101709339
:1023B000F2018093F3019093F4010E94D6099C01ED
:1023C00099E0ECE0F2E0D70101900D929A95E1F7E7
:1023D0008A899B89009729F02817390711F00E94F4
:1023E000A309FE01749686E0DF011D928A95E9F744
:1023F0004C895D896E897F89888D998D0E94040A38
:102400002C873D874E875F87688B798B66E070E00D
:10241000CE010C960E944C058B8789E0F701ACE059
:10242000B2E066CF809180029091E901892B809380
:10243000AA019091E801992391F0892B8093AA0138
:1024400020E08CEA91E0FC013191CF0131112F5F46
:10245000F1E0823B9F07B9F721111092E80148E0B3
:1024600050E060EE71E08AEA91E00E94A629892B93
:10247000A9F088E0EAEAF1E0A0EEB1E001900D9267
:102480008A95E1F7E0917602F0917702309731F08A
:102490000280F381E02D8AEA91E009950895CF93B7
:1024A000C6E0ECEAF1E0DF018C2F1D928A95E9F796
:1024B00090E080E00E94190590E080E00E94F40422
:1024C0001092E9010E941212EBE5F2E0DF011D9289
:1024D000CA95E9F710924C0210924D0210924E02EA
:1024E0000E94A305CF910895AAE2B0E0EAE7F2E1E5
:1024F0000C9459278FE892E02091F100DC012D9394
:10250000CD01B2E087399B07B9F780919002833003
:1025100009F472C0B8F4813009F449C0823009F47A
:10252000B5C08091E80083FF8DC280918F029091A9
:1025300090029A3008F086C2E92FF0E0E254F64D9E
:102540000C94A9278A3009F490C08B3009F471C02B
:10255000893039F780918F02813219F78091930287
:1025600090919402009711F00297D9F68091E800BB
:10257000877F8093E8008091E80082FF38C09091C7
:10258000F3008091F200029731F48091F1008130E4
:1025900011F0863021F48091F100809382028091C5
:1025A000E8008B778093E8000E946803BACF80919F
:1025B0008F02813A09F0B5CF8091E800877F809340
:1025C000E8008091930290919402892B61F468E075
:1025D00083E892E070E00E9414048091E8008B7719
:1025E0008093E8009ECF60E090E080E0F3CF8091A0
:1025F0008D028111C0CF95CF80918F02813A09F071
:1026000090CF8091930290919402892B09F089CF09
:102610008091E800877F8093E8008091E80080FF48
:10262000FCCF809141018093F1008091E8008E778A
:10263000B9CF80918F02813209F073CF80919302DC
:1026400090919402892B09F06CCF8091E800877FEC
:102650008093E8000E946803809191028093410179
:10266000109280020E944F125CCF80918F028132C3
:1026700009F057CF8091E800877F8093E8000E949F
:10268000680380919202809381024BCF80918F02E8
:10269000813A09F046CF8091E800877F8093E80077
:1026A0008091E80080FFFCCF80918102BCCF803810
:1026B00099F0823809F0C6C1809193028F708730FB
:1026C00008F0C0C18093E9008091EB0085FB88276A
:1026D00080F91092E90006C080918B0290918C02E3
:1026E000911182609091E800977F9093E800809329
:1026F000F1001092F1008091E8008E779FC188234D
:1027000009F48DC1823009F09DC18091910281113F
:1027100090C1809193028F702FEF280F263008F020
:1027200091C18093E9002091EB0020FF82C193309A
:1027300031F48091EB0080628093EB007AC190913C
:10274000EB0090619093EB0021E030E001C0220F9C
:102750008A95EAF72093EA001092EA008091EB0054
:102760008860EACF81116EC1109191021F7780912C
:10277000E3008078812B8093E3008091E800877FDD
:102780008093E8000E9468038091E80080FFFCCFFE
:102790008091E30080688093E30082E0111183E080
:1027A00080938D024FC18058823008F04BC1209138
:1027B0009102309192022C3DE3E03E07A1F583E0C7
:1027C0008A838AE289834FB7F894DE01139620E06A
:1027D0003EE051E2E32FF0E050935700E49120FFF8
:1027E00003C0E295EF703F5FEF708E2F90E0EA300C
:1027F000C0F0C7968D939D932F5F243159F74FBF3B
:102800008091E800877F8093E8006AE270E0CE0163
:1028100001960E9414048091E8008B778093E80071
:1028200011C1C096E7CF8091930290919402432FFB
:1028300055274330510509F44AC078F54130510518
:1028400009F47AC08BE590E0E1E2F5E04230510511
:1028500009F0F8C02091E800277F2093E80020913C
:102860009502309196028217930708F49C0140E08C
:102870002115310509F065C0411163C08091E80060
:1028800082FDC9CF80918D02882329F2853019F20B
:102890008091E80083FFF2CFBECF4132510509F4A9
:1028A0003CC04232510509F0CDC08330910508F09B
:1028B000C9C0FC01EE0FFF1FE456FE4F0190F081EE
:1028C000E02D87569E4FDC018C9190E01AC0332793
:1028D00021303105D1F02115310561F0223031056B
:1028E00009F0B0C0EEE8F5E0E4918E2F90E0EEE85C
:1028F000F5E007C0E0EBF5E0E4918E2F90E0E0EB2F
:10290000F5E0009709F49EC0A5CFEEE9F5E0E4916B
:102910008E2F90E0EEE9F5E0F4CF8330910508F0DA
:1029200091C0880F991FFC01EE55FE4F0190F08178
:10293000E02D89E090E08ECF82E190E0ECE7F5E0D9
:1029400089CF80918D02882309F465CF853009F401
:1029500062CF8091E80083FD5ECF8091E80082FD28
:102960008DCF8091E80080FF83CF9091F30080911C
:10297000F2002115310519F08830910550F041E041
:10298000089709F040E08091E8008E778093E80096
:102990006FCF44914093F100319621503109019657
:1029A000E8CF803809F04EC08091E800877F80939F
:1029B000E80080918E028093F1009DCE811142C08B
:1029C000109191021230F0F58091E800877F80939A
:1029D000E80010938E020E946803112311F084E036
:1029E00005C08091E30087FDFACF81E080938D02DE
:1029F00042E061EC81E00E94870342E261EC84E006
:102A00000E94870342E261EC82E00E94870342E277
:102A100060EC83E00E94870380918D0213C0809157
:102A20009102813079F481E0933009F080E0809365
:102A30008C021092E9008091E800877F8093E80083
:102A40000E9468038091E80083FF0AC08091E8003B
:102A5000877F8093E8008091EB0080628093EB0099
:102A6000AA96E3E00C947527109280020E944F1200
:102A70002FEF84E39CE0215080409040E1F700C0BC
:102A8000000088E19AE00FB6F894A8958093600062
:102A90000FBE90936000FFCF882321F00E943A0878
:102AA0000E9412120895882339F090918002982B89
:102AB000909380020E94121208958823D1F19CEF16
:102AC000980F913A78F4ECEAF1E09191891303C000
:102AD000DF0111971C9291E0E23BF907B1F70E94E8
:102AE0001212089590E2980F983050F4877091E098
:102AF00001C0990F8A95EAF7892F0E943A08EFCF13
:102B00009BE5980F933028F490E080E00E9419052F
:102B1000089598E5980F9B3128F490E080E00E949A
:102B2000F404089593E3980F933118F460E00E9441
:102B30002A0E0895CF93C82F8823B1F08CEF8C0F05
:102B4000813A00F5ECEAF1E082EB91E0DF012D91B2
:102B5000C21761F08A179B07D1F76C2F8AEA91E0C0
:102B60000E94DA040E941212CF9108952191C2139B
:102B700003C0DF0111971C928E179F07B9F70E94BF
:102B80001212EBCF80E28C0F883068F4C77021E01E
:102B900030E001C0220FCA95EAF780918002822BB3
:102BA00080938002DFCFEBE5EC0FE33040F4F0E000
:102BB000EE5BFE4F808190E00E941905D5CFE8E5DD
:102BC000EC0FEB3150F4F0E0EE0FFF1FEB5BFE4F2C
:102BD000808191810E94F404C7CF83E38C0F8331FD
:102BE00018F661E08C2F0E942A0EBECF1F93CF9360
:102BF000DF93182FEB010E949A15209739F4812F4B
:102C00000E945D15DF91CF911F9108958FE99FE09C
:102C10000197F1F700C000002197EFCFA8E0B0E0E6
:102C2000E4E1F6E10C944C278C01DC0114968C91C4
:102C30001497882309F4BEC021E04C9111965C9151
:102C4000119712966C91129713967C911397159683
:102C50009C910E949C0C7C01F8018581882309F4D9
:102C60004BC1C70197578038910508F045C1FFE077
:102C7000FE1508F48FC08FEF93E00E94B6278111F4
:102C800089C06DE0A62E63E0B62EE1104DC0FE01B6
:102C9000339686E0DF011D928A95E9F75AE0452ECA
:102CA0007501BFEFEB1AFB0AC5010E94B6278983A5
:102CB0001A82882309F46EC0813009F07FC0650153
:102CC000E2E0CE0ED11CC7010E94B6278A8388237A
:102CD00009F460C09FEF980F9330A0F5F3E0AF0EBA
:102CE000B11CC6010E94B6278B83882309F452C009
:102CF0001C82DE0111967D01F7012081222381F2E1
:102D0000213009F09BC091818281913009F058C037
:102D1000F2E0EF0EF11C70E060E0893311F460E541
:102D200070E00E94F61553C0A11424E0B20691F1A0
:102D3000C5010E94B627811101C0EA943FEFA31A92
:102D4000B30AA3CF56018430A1F642E0E42EF12C61
:102D500056012FEFA21AB20AC6010E94B627E1E07F
:102D6000F0E0EC0FFD1FEE0DFF1D8083882391F036
:102D70008C3741F4E2E0F0E0EC0FFD1FEE0DFF1D9B
:102D80001082B7CF3FEFE31AF30A650187E0E81638
:102D9000F104F1F68091DF01877061F0D80115969A
:102DA0008C91882339F080912D0282FF03C082E04C
:102DB0000E9402092896E0E10C946827570199CFF8
:102DC000923049F422E0E20EF11C0E949A15FFEFC6
:102DD000EF1AFF0A91CF933031F432E0E30EF11C89
:102DE0000E945D15F4CF943021F08FEFE81AF80AB5
:102DF000EECF92E0E90EF11C30E020E0B7016F5F0A
:102E00007F4FD70111964C918053990B8A309105D1
:102E100050F021503109D8F2EFE9FFE03197F1F796
:102E200000C00000F6CF429EF001439EF00D112439
:102E30009C012E0F3F1F842F7B01E0CFE22FF0E09B
:102E4000E354FE4F5490822F86958695869590E0A8
:102E5000FC01E355FE4F64902770712C022E02C0D6
:102E6000759467940A94E2F731E063227724FC01B9
:102E7000E356FE4F8490912C022E02C095948794C5
:102E80000A94E2F7A1E08A229924FC01E357FE4F5D
:102E9000C490D12C02C0D594C7942A95E2F7B1E032
:102EA000CB22DD246114710419F081EE0E949A1581
:102EB0008114910419F086EE0E949A15E9E370E0FE
:102EC00060E05E1202C060E570E0852D0E94F6159C
:102ED0008114910419F086EE0E945D15611471044D
:102EE00019F081EE0E945D15C114D10409F46FCF71
:102EF00070E060E08CE215CF82EE94E00E94AF0AB1
:102F0000F701E154FE47D8011596DC90EE30F1054B
:102F100008F091C1E853F64D0C94A927DD2081F00B
:102F200081E08093B70180935A02F80182819381F6
:102F30009093B6018093B50181E00E9419092ACFD0
:102F400010925A0281E00E94F5088091B70188230F
:102F500099F0D80112968D919C912091B5013091F4
:102F6000B601821B930B883C910530F48AE80E94DD
:102F70009A158AE80E945D151092B7010BCFDD20EB
:102F800071F081E08093B40180935902F80182814D
:102F900093819093B3018093B20182E0CECF1092DF
:102FA000590282E00E94F5088091B401882399F0CB
:102FB000D80112968D919C912091B2013091B3016C
:102FC000821B930B883C910530F48BE80E949A1584
:102FD0008BE80E945D151092B401DCCEDD2071F00B
:102FE00081E08093B40180935A02F8018281938139
:102FF0009093B3018093B20183E09FCF10925A0265
:1030000083E00E94F5088091B401882321F3D80160
:1030100012968D919C912091B2013091B301821B47
:10302000930B883C9105B8F689E20E949A1589E2D3
:10303000D0CFDD2071F081E08093B40180935902FC
:10304000F801828193819093B3018093B20184E06F
:1030500074CF1092590284E00E94F5088091B40167
:10306000882309F4B8CFD80112968D919C912091B4
:10307000B2013091B301821B930B883C910508F09B
:10308000AACF8BE20E949A158BE2A3CFDD2009F430
:1030900081CE8BE80E949A158BE80E945D1581EE27
:1030A0000E949A1584E20E949A1584E20E945D159E
:1030B00084E20E949A1584E20E945D1581EE0E94CE
:1030C0005D1580E50E949A1580E50E945D1562CE2F
:1030D000DD2009F45FCE8BE80E949A158BE80E94F0
:1030E0005D1581EE0E949A1585E20E949A1585E28F
:1030F0000E945D1586E20E949A1586E2DDCFDD20F2
:1031000009F448CE8BE80E949A158BE80E945D1561
:1031100081EE0E949A1580E20E949A1580E20E9438
:103120005D1581EED2CFDD2009F434CE8BE80E940C
:103130009A158BE80E945D1581EE0E949A1586E330
:103140000E949A1586E30E945D1581EE0E945D152E
:1031500085E00E949A1585E00E945D1585E10E9438
:103160009A1585E10E945D1581EE0E949A1587E30C
:103170000E949A1587E3D3CFDD2009F40BCE8BE8AC
:103180000E949A158BE80E945D1581EE0E949A15A7
:1031900084E30E949A1584E3C2CF0E9488052983A4
:1031A0004B835C836D837E83532FDD2051F0516010
:1031B0005A8349816B817C818D819E810E94660545
:1031C000E9CD5E7FF5CF0E94880529834B835C8320
:1031D0006D837E83532FDD2011F05260E9CF5D7F38
:1031E000E7CF0E94880529834B835C836D837E83B0
:1031F000532FDD2011F05460DBCF5B7FD9CF0E94CD
:10320000880529834B835C836D837E83532FDD2068
:1032100011F05860CDCF577FCBCF0E94880529830E
:103220004B835C836D837E83532FDD2011F05061CF
:10323000BFCF5F7EBDCFDD2009F47BC01092B70108
:103240001092B401B6E1EB16BCE7FB0609F483C0AB
:10325000B7E7EB16BCE7FB0609F4A4C082E0E8E799
:10326000EE16ECE7FE0609F49EC0F3E0EF16FCE76D
:10327000FF0609F4C5C008F0A2C0E1143CE7F3065C
:1032800009F4AFC081E0E8168CE7F80609F4BEC087
:10329000F8018581E080F180882309F4C5C0C70169
:1032A0000E943D0CD82E682FC7010E94B808B701B4
:1032B0008D2D0E941E0C0E9419077C01882ED801BA
:1032C0001596AC90159716969C9092943FE0932299
:1032D0008091DF018770F1F0CA2CAA20E1F08F2DD8
:1032E000807F803451F080E28E0D883098F091100C
:1032F00004C08F2D807E803269F080912D0282FF84
:1033000009C082E00E9402098091DF018770CC240D
:10331000C3948111C12CBF2CB2942FE0B222BBE028
:10332000BB1508F4E9C0EB2DF0E0EA52F64D0C9421
:10333000A927E6E1EE16ECE7FE06F9F0F7E7EF164F
:10334000FCE7FF0699F128E7E2162CE7F20609F000
:103350009FCF82E02CC0809180028A7A91E009F4AC
:1033600090E09093B80169E2811165E38AEA91E007
:103370000E94DA040E9412120DCD8091B8018111D1
:103380000FC089E2ECEAF1E022EB31E09191891380
:1033900003C0DF0111971C922E173F07B9F7EACF40
:1033A00085E3F0CF81E00E94190903C081E00E940B
:1033B000F50843E062E081E00E94D508EBCC9BE594
:1033C000E9169CE7F90671F1ACE5EA16ACE7FA06F6
:1033D000F9F0BAE5EB16BCE7FB0609F059CF81E03E
:1033E0001EC0109280020E944F12EFEFF4E32CE017
:1033F000E150F0402040E1F700C000000E94750459
:103400006FEF7FEF90E080E00E94F2270E9434157A
:1034100080912D0282FB882780F991E089270E9404
:103420001B0F36CF80E0FBCFC7010E947208D82E59
:103430003ECFEF2DEF70DE2E8F2D807F19F0D294CE
:1034400090EFD922AA20B9F0DD2069F080E28E0D3C
:10345000883010F0811009C080918002D82AD09263
:1034600080020E9412128E2D45C08091E901D82A57
:10347000D092E901F6CF8E2D0E945D15DD20E1F19D
:1034800080E28E0D883010F0811004C08D2D0E94D6
:103490003A0806C0D0948091E901D822D092E9017F
:1034A0000E94121229C0FF2DFF70DF2E8F2D807F0A
:1034B000803219F0D29480EFD822882059F021E090
:1034C000821609F481C0AA2009F48DC0992009F45C
:1034D0004FC0C9CF80912D0282FD46C0AA20F1F1D4
:1034E000DD2039F080918002D82AD09280020E949B
:1034F000121280E00E949A15AB2DA850BB0B1497B6
:1035000010F40E949E0ACC20A9F08091DF0180FD7A
:1035100011C0F80115828695869586950E94190935
:10352000C8010E940E168091DF01869586958695CA
:103530000E94F50820E0D8014C9111965C911197FA
:1035400012966C91129713967C91139714968C9106
:10355000149715969C910E949C0C2CCC80E00E94A4
:103560005D15DD2049F292CFAA20A1F0911004C090
:103570008D2D0E945315C0CF31E09312BDCF8091A5
:10358000E8019D2D9823D91609F4B6CFD82AD092F8
:10359000E801B2CF9110B0CF8D2D0E944C159091C3
:1035A000E8018D2D892329F08D2D80958923809325
:1035B000E8018091B9019D2D982309F49DCFD09405
:1035C000D822D092B90198CFAA2029F085E0891598
:1035D00008F492CFCDCF94E0991508F48DCF8D2DBE
:1035E0000E944C1589CF9920D1F3A9E38A1209C012
:1035F000BFEFE7EEF3E0B150E040F040E1F700C08C
:1036000000008E2D0E945D1577CF8F2D86958695B3
:10361000837061F0813009F06FCFC7019370A11002
:1036200002C080E090E00E94F40466CFC70193706E
:10363000A11002C080E090E00E9419055DCF6A2DC4
:103640008E2D0E942A0E58CF8F2D837091F5A110D8
:1036500053CF4E2D429546954770440F440F8E2D03
:103660008F70042E01C0880F0A94EAF72E2D207166
:10367000E4FE07C02FE030E001C0220F4A95EAF7D0
:1036800020953F2D369536953370323069F050F4E1
:1036900040912A02313029F0822B84230E9425098F
:1036A0002BCF842B822BFACF282B80912A028227C2
:1036B000F5CF8695AA2011F08F2D8170882309F40B
:1036C0001BCF4E2D429546954770440F440F8E2DCB
:1036D0008F70042E01C0880F0A94EAF72E2D2071F6
:1036E000E4FE07C02FE030E001C0220F4A95EAF760
:1036F00020953F2D369536953370323069F050F471
:1037000040912B02313029F0822B84230E94D20871
:10371000F3CE842B822BFACF282B80912B02822789
:10372000F5CF2F2D2F70F22EAA2029F0822F0E9484
:1037300019098E2D1ECF8E2D0E944C158F2D0E94A3
:10374000F508DACE8E2D32EF8316B1F1381570F010
:1037500090EF8916D1F0A1EF8A1691F0AA2009F412
:103760005EC0911080CE8F2D8F712AC0B3EF8B1663
:1037700051F1E4EF8E12F2CF80912D0282FD2FC025
:103780008F2D8F71AA20D9F21BC0AA2081F0F4E0FE
:10379000F91508F4B1CE2F2D2F7181E090E001C012
:1037A000880F2A95EAF790912B028927AFCF25E061
:1037B000291508F4A1CEEFCF8F2D8F71A110BFCFA7
:1037C0000E94190999CE80E0AA2009F49FCF9F2D6D
:1037D0009F7181E001C0880F9A95EAF797CFAA20E0
:1037E00099F03F2D3F71F32E832F0E94190980918C
:1037F0002D0282FF07C0A8E0FA9EC0011124836059
:103800008093DF018F2DDCCF81E00E940209B1E0BF
:10381000B91508F071CE82E00E9402096DCE9920A0
:1038200059F0893309F0EDCEEFEFF7EE23E0E150E8
:10383000F0402040E1F7E3CE8F2D8F7180CFCF9302
:10384000DF938091DE01807F09F04DC08091DD0122
:10385000882309F448C0E091D00250919702C091AA
:10386000D901D091D8016091DA017091DB0147E074
:103870005E17C9F18E2F90E0E49FF0011124E85605
:10388000FD4F2481222391F1489FF001499FF00DC3
:103890001124DF01A856BD4F11962C9111972C13BE
:1038A00025C02C912D1322C015962C91159721110E
:1038B0001DC012962D913C91261B370B283C3105DB
:1038C000A8F48091DE018F7080618093DE01E25662
:1038D000FD4F80818F708061808388ED91E00E9430
:1038E0000E160E944108DF91CF910895FC01319698
:1038F000E770BECFA4E1B0E0E0E8FCE10C94502713
:103900008C0186E0F801DE011F9601900D928A95E8
:10391000E1F7F8018481E58098EDA92E91E0B92EB8
:103920009091DC01911128C0882319F1EE20F1F06B
:10393000C8010E94790CF82E8823C1F087E0F801B5
:10394000D50101900D928A95E1F78091DC018130DB
:1039500031F48091D8019091D9010E946C0C0E94A1
:103960001F1C8F2D6496ECE00C946C27C8010E94FC
:103970000E16FF24F394F5CFD080C180828093800F
:10398000F090DD012091DA013091DB01A401421BAE
:10399000530BFF2009F4D9C0483C510508F092C0F0
:1039A0008823F9F29091D9018091DE01282F207FA0
:1039B00009F056C0C91214C09091D801D91210C094
:1039C000E11048C08F7080618093DE0188ED91E046
:1039D0000E940E168091DE01F8018683F12CC1CF82
:1039E000E11038C06C2D8D2D0E94F9026C2D8D2DAB
:1039F0000E94F902E82E8111F1CFDF86C88A8F85F7
:103A000098890E946C0C292F22952F70243058F42D
:103A10009F70223088F0992399F0F8019681907F69
:103A200079F4FE2C9ECF2A5F2F70223068F0C801F7
:103A30000E940E16EF2CF5CF992311F0882389F3FD
:103A4000805E883070F3F3CF803F58F3815F83301E
:103A500070F7E7CF8091DE0181608093DE01BECFF9
:103A6000C91207C09091D801D91203C0EE2009F401
:103A70008DC0C8010E94790C882309F477CFEE200D
:103A800009F474CF8091DE01803288F02091D80152
:103A90003091D901398728879B868A869091DC01ED
:103AA0009C871D868E87CE0108960E940E1687E0A1
:103AB000F801A8EDB1E001900D928A95E1F70E941E
:103AC0001F1C57CF9091DE01292F207F51F488EDE4
:103AD00091E00E940E1687E0F50111928A95E9F7B0
:103AE0007DCF882309F43DCF8091D9018C1110C07E
:103AF0008091D801D8120CC0E1100AC09683C80189
:103B00000E940E1687E0F50111928A95E9F729CFF8
:103B1000C8010E94790C882309F428CFEE2009F40B
:103B200025CF8091DE01803210F22091D8013091B2
:103B3000D9013A8329839C828B829091DC019D83F9
:103B40001E828F83CE010196B0CF483C5105D0F63E
:103B5000882309F40ECFFE2CEE2009F407CF8091C4
:103B6000D9018C1120C08091D801D8121CC080913D
:103B7000DE0180FD0FC0982F907F61F08683903F1B
:103B800031F0982F907F905F8F70892B8683C801CA
:103B90000E940E1687E0F801A8EDB1E001900D92A9
:103BA0008A95E1F7DECEC8010E94790C81117FCFA2
:103BB0008091DE0181608093DE01C8010E940E16B3
:103BC000D0CEABE1B0E0E7EEFDE10C9458274E8B90
:103BD0005F8B688F798F8A8F9B8F192F911110922D
:103BE000E9011D8A86E0FE017696DE011F960190AE
:103BF0000D928A95E1F70A8D002341F021E04F856F
:103C0000588969897A89C8010E949C0C0B8B1C8B8E
:103C100087E0FE013F96DE01189601900D928A958D
:103C2000E1F7CE0108960E947A1C81110CC087E052
:103C3000FE013896DE01119601900D928A95E1F70A
:103C40008C8581110BC017E08091D0029091970272
:103C5000891333C06B96E4E00C947427209197028B
:103C600030E0C9010196877099274091D00248172A
:103C7000190699F097E0929FD001939FB00D1124FF
:103C8000A856BD4FFE01319601900D929A95E1F72D
:103C9000809397020E944108D6CF109280020E9422
:103CA0004F12109297021092D00287E0E8EDF1E0F7
:103CB000DF011D928A95E9F7C6CF819FC0011124CB
:103CC00088569D4F0E947A1C882321F28091D00251
:103CD00090E00196877099278093D002B5CFACE031
:103CE000B0E0E5E7FEE10C945827182F062F662375
:103CF00059F10E94A1041F832DEF28879A87898795
:103D000082E08B8781E08C874F81588569857A8531
:103D10008B859C850E94E11D0023F9F00E94A1047F
:103D200019832DEF2A839C838B8382E08D831E82EF
:103D300049815A816B817C818D819E810E94E11D28
:103D40002C96E4E00C9474270E94A1041F832CEFAE
:103D500028879A87898783E0D4CF0E94A10419839A
:103D60002CEF2A839C838B8383E0E0CFA1E0B0E03B
:103D7000ECEBFEE10C945327EE24E394F12C0BE0E2
:103D800012E09E012F5F3F4F40E052E063E082E08F
:103D90000E94320FC82E882339F100E080E01DC058
:103DA000D0901D02D00E2D2D30E0A901475C5D4F53
:103DB0007A01E1E0F0E0EC0FFD1FE00FF11D108152
:103DC000FA019081191BB12E1B149CF0912F17FD45
:103DD00090E0191B111118C00F5F90911C02091778
:103DE000F8F281110E9437088C2D2196E9E00C949D
:103DF0006F27BA94F70180818F5F808360E08D2DFB
:103E00000E946F1E8C2DE0CF1F5FF70180818150D3
:103E1000808361E08D2D0E946F1E8C2DDBCFA6E08C
:103E2000B0E0E5E1FFE10C9458270E94A1048C0169
:103E30008091EA019091EB018017910781F019823E
:103E40001A820E94A104682F49815A81792F80E04B
:103E500090E00E94E11D1093EB010093EA01269689
:103E6000E4E00C9474271F920F920FB60F92112466
:103E70002F933F934F935F936F937F938F939F9372
:103E8000AF93BF93CF93DF93EF93FF93D091E9006C
:103E9000DF708091EC00C82FC17080FDC0E81092E7
:103EA000E9008091F000877F8093F00078940E9471
:103EB00074121092E9008091F00088608093F00005
:103EC000CD2BCF70C093E900FF91EF91DF91CF919F
:103ED000BF91AF919F918F917F916F915F914F9122
:103EE0003F912F910F900FBE0F901F9018951F922A
:103EF0000F920FB60F9211242F933F934F935F931E
:103F00006F937F938F939F93AF93BF93EF93FF93A1
:103F10008091E10082FF09C08091E20082FF05C02C
:103F20008091E1008B7F8093E1008091DA0080FF37
:103F300024C08091D80080FF20C08091DA008E7F5D
:103F40008093DA008091D90080FF9DC080E189BD17
:103F500082E189BD09B400FEFDCF81E080938D022E
:103F600080917F02811109C00E9418030E94B90349
:103F70008091E20084608093E2008091E10080FF04
:103F800017C08091E20080FF13C08091E2008E7F15
:103F90008093E2008091E20080618093E200809152
:103FA000D80080628093D80019BC85E080938D0290
:103FB0008091E10084FF2BC08091E20084FF27C044
:103FC00080E189BD82E189BD89B5982F917080FF1C
:103FD000FBCF8091D8008F7D8093D8008091E10045
:103FE0008F7E8093E1008091E2008F7E8093E200DB
:103FF0008091E20081608093E20080918E028823AC
:1040000009F447C084E080938D0280918D028091F5
:10401000E10083FF27C08091E20083FF23C08091ED
:10402000E100877F8093E10082E080938D0210920F
:104030008E028091E1008E7F8093E1008091E2000A
:104040008E7F8093E2008091E20080618093E200A5
:1040500042E060E080E00E9487038091F000886089
:104060008093F000FF91EF91BF91AF919F918F915D
:104070007F916F915F914F913F912F910F900FBE64
:104080000F901F90189519BC10928D0210927F020C
:1040900074CF8091E30087FD93E090938D02B5CFBC
:1040A00078941F921FB61F9211248F939F93AF9302
:1040B000BF9380917B0290917C02A0917D02B09190
:1040C0007E020196A11DB11D80937B0290937C021C
:1040D000A0937D02B0937E02BF91AF919F918F918B
:1040E0001F901FBE1F9018951F921FB61F9211247C
:1040F0008F939F93AF93BF9380917A02811113C0E6
:1041000080917B0290917C02A0917D02B0917E0211
:104110004196A11DB11D80937B0290937C02A093D8
:104120007D02B0937E02BF91AF919F918F911F90BE
:104130001FBE1F901895CDB7DEB7A6970FB6F8949F
:10414000DEBF0FBECDBF85B7806885BF85B78068ED
:1041500085BF84B7877F84BF0FB6F894A8958091F8
:104160006000886180936000109260000FBE80E85C
:1041700090E00FB6F89480936100909361000FBEB9
:104180008FE096E09093A9018093A8010E94180304
:104190000E94B9038091E20084608093E2007894E9
:1041A00080918D028823A1F01091E9001F709091F9
:1041B000EC00892F817090FD80E8182B1092E900A7
:1041C0008091E80083FD0E9474121F701093E90033
:1041D00082E084BD93E095BD9AEF97BD80936E0019
:1041E0000E94C10C811102C00E94A60B0E947B0A92
:1041F00091E08927809338010E947B0A81110E94F7
:10420000E8259091380181E0982790933D02282F6E
:10421000291B20931D029091380180933E029091BA
:10422000380180931C025198599A26982E9A8FE84B
:1042300091E00197F1F700C0000020913E024FE3AA
:1042400052E0FA018E2F841B821708F4D1C08091AE
:1042500038018091380195E0811190E09093290216
:1042600085E0891B809328020DE711E062E8E62EC5
:1042700061E0F62ED8018D918D018F3F11F00E94E3
:104280001106E016F106B1F702E811E059E8E52E53
:1042900051E0F52EF80181918F018F3F11F00E94BE
:1042A0001106E016F106B1F78AE0E2E4F2E0DF0180
:1042B000282F1D922A95E9F7EEE1F2E0DF011D9229
:1042C0008A95E9F790E080E00E94BE27863E9E4FE7
:1042D00021F40E94C10C811167C066EE7EEF90E070
:1042E00080E00E94F22760E082E090E00E94D42704
:1042F00060E083E090E00E94D42710922A0260E000
:1043000074E184E090E00E94F22760E086E090E0B3
:104310000E94D4276FEF87E090E00E94D42740E00E
:1043200050E0BA0188E090E00E94E62760E084E275
:1043300090E00E94D42760E087E190E00E94D427BB
:1043400060E08CE090E00E94D42760E08DE090E097
:104350000E94D42719821A821B821C821D821E820F
:104360001F82188648E050E068E170E0CE010196B7
:104370000E94C42740E050E0BA0180E290E00E9431
:10438000E62780E00E948D0B0E94A60B40E050E0E3
:10439000BA018FE090E00E94E62740E050E0BA01C9
:1043A00083E190E00E94E62782E090E00E94B62739
:1043B00080932E0284E090E00E94BE2790932D020D
:1043C00080932C020E946110EFE3FCE93197F1F732
:1043D00000C000000E9461108091420280FF13C063
:1043E0006FEF7FEF90E080E00E94F2270E9475045B
:1043F00089B1869581701E9904C090E0892B8193C4
:1044000021CF92E0FBCF83E090E00E94B6270E948C
:1044100025090E947B0A811102C00E94EB250E949F
:104420007B0A81110E942F0A89E391E09093770221
:104430008093760228E1622E712C3CE4E32E32E078
:10444000F32E44E0C42ED12C80918D0200E112E1C4
:10445000853009F483C00E9461100FE212E092E4FB
:10446000A92E92E0B92E29E332E0D501F80191910D
:104470008D912E173F0709F47DC09817C1F30E9454
:104480007B0A282E912CD5018D905D01F801319089
:104490008F01381431F13824512C44244394832D56
:1044A0008421B9F02220A9F059A29AA20E94A10465
:1044B0009CA38BA3F1E0FDA391E0882D842109F456
:1044C00090E09EA349A15AA16BA17CA18DA10E945D
:1044D000E11D5394440C27E05212E1CFF8013197CB
:1044E000808293948AE09812CECF0E94950446C0B1
:1044F00080918D02843021F10E94030D10927A0286
:10450000F0E40FB6F894A895609260000FBEF093A7
:10451000600083B7817F846083BF83B7816083BF7E
:104520007894889583B78E7F83BF0FB6F894A8954B
:1045300080916000886180936000109260000FBEDF
:1045400080918C02882351F00E946110E2E4F2E035
:1045500081918111BAC2EE16FF06D1F780918D02CA
:10456000853009F4C5CF109280020E944F120E943C
:104570009E0A71CF981383CF0E940F1F0E947B0A5F
:10458000A12C912C80913E02A81608F404C1911030
:104590000E9437080E94030D81110E94950486E055
:1045A000EBE5F2E0DE01119601900D928A95E1F7BC
:1045B00010925D0210925E0210925F0210926002F1
:1045C0008B819C81892B09F447C080915102909185
:1045D00052020E9486049C0190914C02992309F496
:1045E0009AC225313105C0F19F3F19F09F5F90932A
:1045F0004C021B81112359F00E94E1059FEF111617
:104600000CF491E0899F802D112480935D021C8120
:10461000112359F00E94E1059FEF11160CF491E06F
:10462000899F802D112480935E0280915D028823F2
:1046300099F010915E02112379F00E9401068823FF
:1046400009F409C180935D02812F0E94010688232D
:1046500009F403C180935E028D819E81892B09F448
:1046600047C080914F02909150020E9486049C01A5
:1046700090914D02992309F449C221353105C0F1C9
:104680009F3F19F09F5F90934D021D81112359F0B8
:104690000E94BF059FEF11160CF491E0899F802DB9
:1046A000112480935F021E81112359F00E94BF05DF
:1046B0009FEF11160CF491E0899F802D11248093B7
:1046C000600280915F02882399F0109160021123AB
:1046D00079F00E940106882309F4C1C080935F022B
:1046E000812F0E940106882309F4BBC080936002D9
:1046F000BE016F5F7F4F8BE592E00E94AD04811198
:104700000CC080915D0290915E02892B90915F02B6
:10471000892B90916002892B11F00E94A30586E0FD
:10472000FE013196ABE5B2E001900D928A95E1F77A
:104730000E949E0A90914102891721F080934102C4
:104740000E94950480918D02843009F07DCE83E033
:104750008093E9008091E80082FF76CE8091E800A6
:1047600090E085FF06C00E943703882309F47BC0D0
:1047700091E08091E8008B778093E800992309F419
:1047800063CEE981E150E53108F096C0F0E0EE51EA
:10479000F64D0C94A9270A2D10E0E9B1E695E170D9
:1047A0001E9951C080E08E2BD801A15CBD4FEC91C9
:1047B0009E2F9370891709F444C0EE0FEE0FE82B7B
:1047C000EC93B0903D02BA0CEF70F0E0E757FE4F6B
:1047D000055C1D4F8081D8019C91890F8C93812CA1
:1047E000843084F0EB2DF0E0E75CFD4F80818F5F3B
:1047F00080830E947B0A882E882339F160E08B2D0C
:104800000E946F1EF80180818D3F84F4EB2DF0E053
:10481000E75CFD4F8081815080830E947B0A882E57
:104820008823B1F061E08B2D0E946F1ED8018C911E
:10483000082E000C990BB6010E949527F801808381
:104840009828A3949FCE82E0AECF88248394DACFB9
:1048500088248394EBCF81E0F5CE81E0FBCE81E02C
:104860003DCF81E043CF80E2A82EB12C8E010F5FB7
:104870001F4F8091E80085FD0AC08091E8008B778A
:104880008093E8000E943703882399F371CF8091C9
:10489000F100D8018D938D01B1E0AB1AB10849F751
:1048A00067CF1A828CE08B831BC08A81823009F427
:1048B00024C128F4813061F08FEF898311C08330E7
:1048C000C1F08430C9F71B821C821D821E8208C081
:1048D0000E9495040E94AF276B837C838D839E8307
:1048E00040E250E0BE016F5F7F4F82E00E942809E6
:1048F000ABCD2B81822F90E0FE013496245E8A306E
:10490000910570F7DC01AE5BBD4F3C913193019690
:104910002813F5CFE5CF8A81823019F0853001F375
:10492000CBCF6B817C818D819E810E94AF2788E2F5
:1049300090E00E94D427D4CF4C816B818A810E9461
:10494000EF0B9827892798279E838D83C9CF2D81C8
:104950003E813227232732274C816B818A810E9436
:10496000020BBECF0E94280BBBCF80E18A83B8CF59
:104970001A8283EF98CF0A811B8110270127102705
:10498000FE0131965F018C80CF01880D911D4C0195
:10499000C801835F9C4F8A149B0409F4A1CF033F95
:1049A000110558F40E94B627D50114968C930F5F19
:1049B0001F4FFFEFAF1ABF0AEBCFF5011482F7CFFD
:1049C0000A811B81102701271027CE0101964C0177
:1049D000AC80A00EB12EB11CC801835F9C4F0A159C
:1049E0001B0509F47DCF033F110528F4D40114966B
:1049F0006C910E94D427BFEF8B1A9B0A0F5F1F4F49
:104A0000EBCF0E94C10A6CCF85E0B0CF0A811B8139
:104A1000102701271027FE0131965F018C80CF01FE
:104A2000880D911D4C01C80189968A149B0409F4D4
:104A300057CF0C3BA2E01A0750F40E94B627F501AD
:104A400084830F5F1F4FBFEFAB1ABB0AECCFD501BA
:104A500014961C92F6CF0A811B811027012710277C
:104A6000FE0131964F01AC80A00EB12EB11CC801E1
:104A70008996A016B10609F433CF0C3BF2E01F076C
:104A800028F4D40114966C910E94D427BFEF8B1A9E
:104A90009B0A0F5F1F4FEBCF41E08C81811101C05A
:104AA00040E06B818A810E94B60B4BCF2D813E8105
:104AB00032272327322741E08C81811101C040E059
:104AC0006B818A810E94D10A0BCF09BD19BD09B43F
:104AD00000FEFDCF8091D8008F7D8093D80080911B
:104AE000E00082608093E0008091E00081FDFCCFD7
:104AF000109280020E944F1231CD88E290E00E9415
:104B0000B6271B821C821D828E83EACE2B30310594
:104B100008F0B8CDEDCD2B30310508F067CD9CCD38
:104B20008EE1489B02C08150E1F7489BFECF08957B
:104B3000589880E28A95F1F7589A0895FC013BE075
:104B40003A95F1F798E020E080E031E040E14A95C5
:104B5000F1F7880F489B02C08160232742E04A9505
:104B6000F1F7000040E14A95F1F7915079F790E1B3
:104B70009A95F1F799B132E03A95F1F7000040E1EA
:104B80004A95F1F7917092272081920F90830895B2
:104B9000A1E0B0E0EEECF5E20C94562719828C010E
:104BA0007C01E60EF11C0E151F0541F481E0998190
:104BB000911180E02196E6E00C9472270E949025E6
:104BC000CE0101960E949E25F80181938F01EBCFC3
:104BD000509A589A08955098589AE89AE9E6F0E061
:104BE00080818C7F808308956150770B91E001C0B4
:104BF000990F6A95EAF720E031E0911108C022236D
:104C000091F0589A80E28A95F1F758980895492FC3
:104C1000482339F0589A232740E24A95F1F79695B0
:104C2000ECCF5898F9CF5898EDCFFF920F931F9380
:104C3000CF93DF93EC018C01060F111DC017D10734
:104C400029F4CDB7DEB7E5E00C947327F9900E9404
:104C5000982568E08F2D0E94F425F0CF1F920F92C7
:104C60000FB60F9211240F931F932F933F934F93DF
:104C70005F936F937F938F939F93AF93BF93EF93C4
:104C8000FF93CF93DF930F92CDB7DEB719820E94C7
:104C90009025CE0101960E949E25082F0695069527
:104CA0000695282F22952570902F9570290F922F09
:104CB000937026952695920F982797708981982B47
:104CC00009F05CC0083008F059C080E18A95F1F71E
:104CD000589A509A82E08A95F1F700C0589888E077
:104CE000089F80011124D801A050BF4F1696ED9166
:104CF000FC9117973097A9F060917B0170917C012E
:104D000014962D913C911597260F371F11968D9172
:104D10009C911297680F791F13964C9113978C9161
:104D20000995F801E050FF4F6381662351F020910F
:104D30007B0130917C0184819581820F931F0E94B9
:104D400015260E94982580E18A95F1F75898509889
:104D5000589A80E18A95F1F7F801E050FF4F6081A1
:104D6000662351F020917B0130917C0181819281F9
:104D7000820F931F0E94C8250E9490250F90DF91FB
:104D8000CF91FF91EF91BF91AF919F918F917F91C3
:104D90006F915F914F913F912F911F910F910F90C4
:104DA0000FBE0F901F9018950F931F93CF93DF9313
:104DB000EC0108970CF04CC0F894509A589885E094
:104DC0008A95F1F700009C2F969595708C2F857031
:104DD000980F892F83709695969523E0CC0FDD1F51
:104DE0002A95E1F7980F8E01092B0E94982500C0A3
:104DF00068E0802F0E94F42580E18A95F1F75098B1
:104E0000589A489B1EC087E090E048991CC0FE015C
:104E1000E050FF4F63816623F9F020917B013091D0
:104E20007C0184819581820F931F0E94C825811186
:104E300013C0509A589A7894DF91CF911F910F9197
:104E4000089500C0DECF019729F4509A589A7894BB
:104E500080E0F2CF00C0D9CF0E94902580E28A95F1
:104E6000F1F75898509A80E18A95F1F7C050DF4FDA
:104E70006881662351F020917B0130917C0189810A
:104E80009A81820F931F0E9415260E94982578947C
:104E900081E0D2CF2F923F924F925F926F927F929A
:104EA0008F929F92AF92BF92CF92DF92EF92FF923A
:104EB0000F931F93CF93DF93CDB7DEB7CA1BDB0BE6
:104EC0000FB6F894DEBF0FBECDBF09942A8839888B
:104ED00048885F846E847D848C849B84AA84B98492
:104EE000C884DF80EE80FD800C811B81AA81B9819E
:104EF000CE0FD11D0FB6F894DEBF0FBECDBFED01B2
:104F00000895AA1BBB1B51E107C0AA1FBB1FA61710
:104F1000B70710F0A61BB70B881F991F5A95A9F762
:104F200080959095BC01CD01089597FB072E16F44E
:104F3000009407D077FD09D00E94812707FC05D097
:104F40003EF4909581959F4F0895709561957F4FA0
:104F50000895EE0FFF1F0590F491E02D0994692745
:104F6000962769277827872778270895F999FECF0C
:104F700092BD81BDF89A992780B50895A8E1B0E067
:104F800042E050E00C94FA27DC01A40FB51F415019
:104F9000504048F0CB01840F951F2E910E94D527D9
:104FA00041505040D0F70895262FF999FECF92BD79
:104FB00081BDF89A019700B4021639F01FBA20BDDE
:104FC0000FB6F894FA9AF99A0FBE08950396272F10
:104FD0000E94D5270E94D427252F0E94D527242F51
:104FE0000C94D5270196272F0E94D5270C94D427FF
:104FF000DC01CB01FC01F999FECF06C0F2BDE1BD99
:10500000F89A319600B40D9241505040B8F7089587
:105010005058BB27AA270E9420280C94FF280E94E2
:10502000F12838F00E94F82820F039F49F3F19F455
:1050300026F40C94EE280EF4E095E7FB0C94E82897
:10504000E92F0E94102958F3BA17620773078407E3
:10505000950720F079F4A6F50C9432290EF4E0952A
:105060000B2EBA2FA02D0B01B90190010C01CA0122
:10507000A0011124FF27591B99F0593F50F4503ECD
:1050800068F11A16F040A22F232F342F4427585FBF
:10509000F3CF469537952795A795F0405395C9F7D7
:1050A0007EF41F16BA0B620B730B840BBAF091508F
:1050B000A1F0FF0FBB1F661F771F881FC2F70EC02E
:1050C000BA0F621F731F841F48F487957795679501
:1050D000B795F7959E3F08F0B0CF9395880F08F0ED
:1050E0009927EE0F9795879508950E947C286894DC
:1050F000B1110C94332908950E94182988F09F5704
:1051000098F0B92F9927B751B0F0E1F0660F771FEB
:10511000881F991F1AF0BA95C9F714C0B13091F0E1
:105120000E943229B1E008950C943229672F782F1C
:105130008827B85F39F0B93FCCF3869577956795A6
:10514000B395D9F73EF490958095709561957F4F12
:105150008F4F9F4F0895E89409C097FB3EF49095B8
:105160008095709561957F4F8F4F9F4F9923A9F040
:10517000F92F96E9BB279395F695879577956795CF
:10518000B795F111F8CFFAF4BB0F11F460FF1BC013
:105190006F5F7F4F8F4F9F4F16C0882311F096E9A6
:1051A00011C0772321F09EE8872F762F05C0662354
:1051B00071F096E8862F70E060E02AF09A95660F0D
:1051C000771F881FDAF7880F9695879597F90895C6
:1051D00097F99F6780E870E060E008959FEF80ECAA
:1051E000089500240A94161617061806090608954D
:1051F00000240A9412161306140605060895092EB3
:105200000394000C11F4882352F0BB0F40F4BF2B21
:1052100011F460FF04C06F5F7F4F8F4F9F4F089561
:1052200057FD9058440F551F59F05F3F71F0479557
:10523000880F97FB991F61F09F3F79F0879508953C
:10524000121613061406551FF2CF4695F1DF08C05B
:10525000161617061806991FF1CF86957105610578
:1052600008940895E894BB2766277727CB0197F920
:1052700008950E944C290C94FF280E94F12838F0D0
:105280000E94F82820F0952311F00C94E8280C9443
:10529000EE2811240C9433290E94102970F3959F55
:1052A000C1F3950F50E0551F629FF001729FBB271D
:1052B000F00DB11D639FAA27F00DB11DAA1F649FB9
:1052C0006627B00DA11D661F829F2227B00DA11D6C
:1052D000621F739FB00DA11D621F839FA00D611DF2
:1052E000221F749F3327A00D611D231F849F600D13
:1052F000211D822F762F6A2F11249F5750409AF03C
:10530000F1F088234AF0EE0FFF1FBB1F661F771FC7
:10531000881F91505040A9F79E3F510580F00C9492
:10532000E8280C9433295F3FE4F3983ED4F3869544
:1053300077956795B795F795E7959F5FC1F7FE2B32
:10534000880F911D9695879597F90895FB01DC01CB
:1053500004C08D910190801921F441505040C8F74C
:10536000881B990B0895FB01DC0102C001900D928E
:1053700041505040D8F70895F894FFCF57137F134A
:1053800022157F132215B213D3132215D114DE1464
:105390008E17BF17EE171918461868187F1893183C
:1053A000BC18CD18E318F118FF180D19191A191A9D
:1053B000531A531A051B1F1B7C1A7C1A241B911BA2
:1053C000A21BA21B512455248B249C24A724B22465
:1053D0005C245C245C245C245C24B524B824BB24B9
:0E53E000E0240125042506252B254C25562505
:1053EE0000000001000000000000000501000000A8
:1053FE000000000106000000000000010700000090
:10540E000000000108000000000000060900000076
:10541E00020F00000000000001720471096A0963A6
:10542E000901818283E200E900EA00B500B600B707
:10543E0000CD008301CC008A019201940121022348
:10544E000224022502260227022A02B300B4006FAC
:10545E000070009F01CB019F02A00204026697C656
:10546E003435F4F5939294333200FF0100010000BD
:10547E00FFFF0000010001FF0044227B49012701CC
:08548E00AC0033054C056C0570
:00000001FF
