:100000000C9407030C94F8270C9424030C942403F9
:100010000C9424030C9424030C9424030C942403C4
:100020000C9424030C9424030C9437260C940F276F
:100030000C94EC250C9424030C9424030C942403BA
:100040000C9424030C9424030C9424030C94240394
:100050000C9424030C9413260C9424030C94240372
:100060000C9424030C9424030C9424030C94240374
:100070000C9424030C9424030C9424030C94240364
:100080000C9424030C9424030C9424030C94240354
:100090000C9424030C9424030C9424030C94240344
:1000A0000C9424030C9424030C94240305A84CCD35
:1000B000B2D44EB93836A9020C50B9918688083CA2
:1000C000A6AAAA2ABE000000803F05010902A101DC
:1000D00085020901A100050919012908150025015A
:1000E0009508750181020501093009311581257FC7
:1000F00095027508810609381581257F95017508D7
:100100008106050C0A38021581257F950175088145
:1001100006C0C005010980A101850319012AB700A5
:10012000150126B700950175108100C0050C090165
:10013000A101850419012AA002150126A00295013A
:1001400075108100C005010906A101850605071982
:10015000E029E715002501950875018102050719B9
:100160000029EF1500250195F07501810205081998
:10017000012905950575019102950175039101C04D
:100180000660FF0961A1010962150026FF009520A4
:10019000750881020963150026FF009520750891F6
:1001A00002C005010906A101050719E029E71500AC
:1001B00025019508750181029501750881010507E2
:1001C000190029FF150026FF009506750881000516
:1001D000081901290515002501950575019102955C
:1001E0000175039101C009025B00030100A0FA0937
:1001F0000400000103010100092111010001224452
:100200000007058103080001090401000203000042
:1002100000092111010001222200070582032000AC
:100220000107050303200001090402000103000087
:100230000009211101000122B600070584032000F6
:10024000011201000200000008ABAA020000010137
:100250000200010E034D006F006F006F0073006518
:100260000000001003610074006100720075006EF0
:10027000006F0000000403090429001E001F002075
:100280000021002200A8002B0014001A000800150D
:100290000017002800E20004001600070009000A09
:1002A000003801E1001D001B000600190005004C8C
:1002B00000E000E300E200447E2A002C00417ED3EF
:1002C00000230024002500260027004600D1001C42
:1002D0000018000C00120013008900D3000B000D61
:1002E000000E000F0033003400D200110010003661
:1002F0000037003800E500427E28002D00437E30A4
:100300000032002F0029003B003B003C003D003E36
:100310000044002B001701D100520843022B06684D
:1003200000E2001A0150082B054F082B046900E178
:100330000016083D04510817082B084C00E000E3A4
:1003400000E20001002A002C0001002E003F0040C6
:100350000041004200430048002B0355005F00604D
:10036000006100560089002B0154005C005D005EB6
:100370000057004C7ED300340059005A005B002E19
:1003800000E500010028002D00620063004B7E4A5A
:100390007E29003B003B003C003D003E0044002B1A
:1003A0000014001A000800150017006800E200049D
:1003B000001600070009000A006900E1001D001B8B
:1003C000000600190005004C00E000E300E20044D4
:1003D0007E2A002C00010045003F00400041004201
:1003E0000043004800B700D1004A0052004D0043CE
:1003F000022900B6004A00500051004F004D004F46
:100400007ED3004E00477E467E457E4B00E50001D0
:1004100000487E8700437EDC004E7E4D7E29003BF7
:10042000003B003C003D003E0044002B006A006B96
:10043000006C006D006E00D100E2006A016B016C7F
:10044000016D016E01D200E1006A026B026C026D67
:10045000026E024C00E000E300E200447E2A002C21
:1004600000010045003F00400041004200430048B9
:1004700000D1006F0070007100720073002900D37A
:10048000006F0170017101720173012900D2006FC8
:10049000027002710272027302E5000100280087F7
:1004A000000100DC0000002F0029003A003B003C66
:1004B000003D003E0044002B001E021F02200221CE
:1004C0000222022800E2001E041F0420042104224C
:1004D000044400E1003A003B003C003D003E004C7B
:1004E00000E000E300E20001002A002C00417E450C
:1004F000003F00400041004200430046002E002320
:100500000224022502260227022900450023042492
:10051000042504260427043400D3003F0040004192
:100520000042004300E500427E28002D00437E305B
:100530000032002F00DA00D900D900DA00DA00D941
:1005400000D900DA00DA00D900D900DA00AA00A93F
:1005500000A900AA00AA00A900A900AA00000000A2
:10056000000000000000000000000000000000008B
:10057000000000000000000000000000000000007B
:10058000007E0F00D4FFFFFFC700000078000000CE
:1005900000000000002A2B280000000000000000DE
:1005A000000000000000000029000000002C1E34A4
:1005B00020212224342627252E362D3738271E1FAA
:1005C000202122232425263333362E37381F0405D5
:1005D000060708090A0B0C0D0E0F10111213141543
:1005E000161718191A1B1C1D2F3130232D35040521
:1005F000060708090A0B0C0D0E0F10111213141523
:10060000161718191A1B1C1D2F3130354C001124D8
:100610001FBECFEFDAE0DEBFCDBF11E0A0E0B1E05A
:10062000ECE4F9E502C005900D92AC3EB107D9F7B4
:1006300023E0ACEEB1E001C01D92A637B207E1F7AE
:100640000E9419210C94482C0C94000080932E03D6
:10065000089580932F03089521E030E001C0220F18
:100660008A95EAF780912F03822B0E94290308952F
:1006700021E030E0A90102C0440F551F8A95E2F73E
:10068000CA01809590912F0389230E942903089520
:100690009B01677091E001C0990F6A95EAF763E0EA
:1006A000369527956A95E1F7B901660F771F260FF2
:1006B000371FFA01E20FF31F40E050E0682F70E0AF
:1006C0008191DF019B01042E02C0369527950A9483
:1006D000E2F7217021952827292328272E934F5FA1
:1006E0005F4F4330510561F708959C01A82FA77013
:1006F00083E0369527958A95E1F7C901880F991F00
:10070000820F931FFB01E80FF91F40E050E080E0EB
:10071000219130E00A2E02C0369527950A94E2F71F
:1007200021703327042E01C0220F0A94EAF7822B8E
:100730004F5F5F4F4330510559F70895282F862F9B
:100740009A3070F4273058F4622F70E027E0929FBF
:10075000600D711D112441EF52E00E94480308957D
:100760009C5F9230E0F7622F70E04EEE52E0F5CFE2
:10077000292F9A3068F4873090F490E061EF72E0AE
:1007800037E0239F800D911D11240E947503089569
:100790002C5F223020F46EEE72E090E0F6CF80E025
:1007A000089590912F0321E030E0F90101C0EE0F90
:1007B0008A95EAF7D90102C0AA0FBB1F6A95E2F732
:1007C000EA2B01C0220F4A95EAF7892F8E23E813FE
:1007D00005C0892F822B0E94290308952095822F1E
:1007E0008923F9CF8091350390913403981301C088
:1007F00008958F5F8770FACF9091490191110CC0D5
:10080000E0EFF1E09191891302C0DF011E9251E007
:10081000E63FF507B9F708959091310397FFF0CFC0
:10082000E82FE695E695E695803FA8F7F0E0E251DF
:10083000FE4F877021E030E0A90102C0440F551F30
:100840008A95E2F7CA01809592818923828308956F
:10085000909130038095892380933003282F27704F
:1008600021110DC0891759F09091320392FF07C0F2
:100870008695869586950E943803109230030895D8
:10088000982F90958091750389238093750308951F
:100890009C01803E910509F448C0D8F4813391054C
:1008A00009F47DC048F48932910509F46DC08A9736
:1008B00009F47CC0C90108958933910551F182384A
:1008C000910539F1C597B1F78091310385FFF2CFDA
:1008D00029C0843E910509F447C048F4823E910541
:1008E00099F1833E9105A9F121EE30E0E3CF863EF8
:1008F000910509F444C0873E9105E1F680913103EA
:1009000083FD61C09091320391FF2BC024EE30E053
:10091000D1CF809131038370811152C08091320315
:1009200083FFC8CF29E230E0C5CF8091310380FD3D
:1009300033C09091320390FFBDCF23EE30E084FFAF
:10094000B9CF20E030E0B6CF8091310382FDF5CF02
:10095000B1CF8091310382FD30C09091320390FD80
:100960002FC084FFA7CFEDCF8091320381FFA2CFAC
:100970008091310327EE30E084FDE3CF9BCF80915F
:10098000310383FDF7CF96CF8091310385FD1EC0E3
:100990008091320383FF8ECF29E330E08BCF8091AB
:1009A000310386FF87CF2AE230E084CF8091310384
:1009B00086FF80CF21E330E07DCF22EE30E07ACF9A
:1009C00020EE30E077CF26EE30E074CF25E330E044
:1009D00071CF9091310392FF10C041E0282F247114
:1009E000243009F040E031E0282F2871283009F048
:1009F00030E0431711F02CE0822793FF10C041E054
:100A0000282F2471243109F040E031E0282F28718B
:100A1000283109F030E0431711F02CE082273091A3
:100A2000320330FF10C051E0282F2171213009F02E
:100A300050E041E0282F2871283009F040E0541799
:100A400011F029E0822731FF10C041E0282F2171E9
:100A5000213109F040E031E0282F2871283109F0D8
:100A600030E0431711F029E0822794FD877E089536
:100A70001F93CF93DF930E944804EC01811522E578
:100A8000920708F055C0811540E5940708F0D1C0E1
:100A9000803E910520F58D3C910508F0A4C0883A70
:100AA000910570F4853A910508F09AC0813091055E
:100AB000D1F10497813A9105B0F1C0E0D0E033C0A4
:100AC000885A91094B97C8F7C85AD0E0CC0FDD1F60
:100AD000C158DE4F0990D881C02DD46424C081153F
:100AE00050E49507C0F4C11580E2D80708F0B7C0FC
:100AF000C83ED105C0F0CE019A9581159F41E8F618
:100B00008D2F0E94E904182FCE0199270E944804D6
:100B1000EC01D12B08C099270E944804CC27DF7034
:100B2000C82BD92BD06ACE01DF91CF911F910895A8
:100B3000803842E59407C8F5803652E5950708F0FD
:100B40005BC0C03482E5D807D0F4C03292E5D90743
:100B500008F04BC08C2F8695869520E2829FC001BD
:100B60001124C37021E030E0A90102C0440F551FD9
:100B7000CA95E2F7EA01C82BD92BDD68D4CF8C2FB8
:100B800086958695877050E2859FC0011124C370B9
:100B900021E030E0A90102C0440F551FCA95E2F7D9
:100BA000EA01C82BD92BDC68BECF803C52E5950703
:100BB00058F48F71C03AD245A0F590E0982F88275D
:100BC000EC01C46FD06AAFCF805C9245809708F08B
:100BD00074CFDC2FCC27CC27DF71C06FD06AA3CFB6
:100BE000A497D064A0CFD0659ECFCF71D0E0DC2F8A
:100BF000CC27C16FD06A97CF86958695877020E203
:100C0000829FC0011124C37021E030E0A90102C01D
:100C1000440F551FCA95E2F7EA01C82BD92BDA68B1
:100C200082CF0E94E904C82FD0E0DC2FCC27D0620D
:100C30007ACF8F710E94E90493E0CC0FDD1F9A9563
:100C4000E1F7CC27DF70282F30E084FF04C050E1AB
:100C5000859F90011124C22BD32BD06964CF8D2F97
:100C60008F710E94E904182FCE0199270E94480431
:100C7000EC01D12BDCCF80E00895F894E82FE295C9
:100C8000EF70F0E041A18F7021E030E0B90102C0C7
:100C9000660F771F8A95E2F7CB01962F90959423E4
:100CA00091A392A1892B82A378940895282F35EBE4
:100CB0002303C001112497FF04C080589109892F94
:100CC000089580589F4FFBCF80910E0380FD14C084
:100CD00081FD14C082FD16C080910D03811581F045
:100CE0008E3180F420E5829FC00111246EE170E016
:100CF0000E94BF2B862F089584E1089588E208950D
:100D000088E0089580E5089580910E0380FD17C066
:100D100081FD17C082FD19C080910C03811599F0E7
:100D2000883298F428E0829FC001112468E270E0C4
:100D30000E94BF2B6115710551F0862F089562E066
:100D4000FCCF64E0FACF61E0F8CF68E0F6CF81E055
:100D5000089529980895299A0895FC01680F791F2C
:100D60008FEF41E39191892728E030E0982F990F88
:100D700087FF09C0892F842721503040B9F7E61733
:100D8000F70781F70895892FF7CFDC01E091CC02B6
:100D9000F091CD02309739F082E08C930480F58198
:100DA000E02DCD0109950895A3E0B0E0EAEDF6E06D
:100DB0000C94842B9C0180915102909152028217D5
:100DC0009307A1F03093520220935102E091CC029C
:100DD000F091CD02309751F083E089833B832A83E1
:100DE0000680F781E02DCE01019609952396E2E079
:100DF0000C94A02BA3E0B0E0E0E0F7E00C94842B8F
:100E00009C0180914F029091500282179307A1F0AC
:100E10003093500220934F02E091CC02F091CD022A
:100E2000309751F084E089833B832A830680F781E1
:100E3000E02DCE01019609952396E2E00C94A02BBB
:100E40009C0180914901811521F08091310387FD3A
:100E500012C0F90132968FEF90E04191641751F082
:100E60008F3F19F4411101C0892F9F5F9630A9F778
:100E70008F3FA9F40895862F869586958695603FC5
:100E8000C8F7F901E80FF11D677021E030E001C0FB
:100E9000220F6A95EAF78281822B82830895280FB8
:100EA000311D87FD3A95F90162830895DC01FB014C
:100EB00011969C9111978181981322C012968C9162
:100EC0001297811519F0928189131AC013968C918B
:100ED0001397811519F09381891312C015968C917F
:100EE0001597811519F0958189130AC014969C9164
:100EF000911521F081E02481291303C080E001C015
:100F000081E0817008952FB7F89480914B02909101
:100F10004C02A0914D02B0914E022FBF08950E9445
:100F200083072091110330911203232B211521F007
:100F300080937F02909380022091130330911403D9
:100F4000232B211521F080937D0290937E028FE068
:100F500093E00E94C50608952FB7F89460914B0264
:100F600070914C0280914D0290914E022FBF0895D6
:100F70009C014FB7F89480914B0290914C02A09144
:100F80004D02B0914E024FBF821B930B08950F93F9
:100F90001F938B019C014FB7F89460914B027091A5
:100FA0004C0280914D0290914E024FBF601B710B1D
:100FB000820B930B1F910F91089587E797E790930A
:100FC00001088093000888E19AE00FB6F894A8958C
:100FD000809360000FBE90936000FFCF80914A0223
:100FE0000895FC019B0180912802909129028617A7
:100FF000970740F0672B29F48091E8008E77809363
:10100000E800C90140E0009741F4411106C0809119
:10101000E80082FF2FC080E008952091C4022115CE
:10102000A9F12530A9F12091E80023FD2DC02091E0
:10103000E80022FDECCF2091E80020FFE4CF3091C2
:10104000F3002091F200009719F02830310558F094
:1010500041E02830310509F040E02091E8002E778A
:101060002093E800D0CF41914093F10001972F5F8A
:101070003F4FE9CF8091C402811541F0853041F0A6
:101080008091E80083FFC3CF81E0089582E0089556
:1010900083E008958091220287FF13C08091E800C9
:1010A00082FF06C08091E8008B778093E800089566
:1010B0008091C4028111F2CF08958091C4028115FC
:1010C000D9F38091E80080FFF8CF8091E8008E7717
:1010D000ECCF2091E4003091E50095E6A901209144
:1010E000EC00822F817020FF06C08091E80080FF15
:1010F00006C080E008952091E80022FD1AC080918A
:10110000C402811589F0853089F08091EB0085FD5E
:101110000FC02091E4003091E50042175307F9F227
:101120009A95E1F684E0089582E0089583E00895B9
:1011300081E00895E8EDF0E080818E7F8083109259
:10114000E2001092DA001092E100A0EEB0E08C9183
:1011500081608C9380818F77808319BCA7EDB0E08C
:101160008C918E7F8C9380818F7E80831092210260
:101170000895982F9093E900891771F07091EC0011
:101180002091ED005091F00021FD09C09F5F973044
:1011900089F78093E9000895762F242F50E030914D
:1011A000EB003E7F3093EB003091ED003D7F3093BC
:1011B000ED003091EB0031603093EB007093EC0068
:1011C0002093ED005093F0002091EE0027FDDECF3C
:1011D0000895A0E0B0E0EFEEF8E00C947E2BC8EDAF
:1011E000D0E088818F7E8883E7EDF0E080818160A8
:1011F000808384E082BF81E08093210288818E7F9A
:10120000888302EE10E0F80110821092DA0081EE7D
:10121000C82ED12CF601108288818F77888388812F
:101220008068888388818F7D888319BC1092C4026E
:101230001092200210926B0210921F0290EEE92E83
:10124000F12CF70180818B7F808388818160888386
:1012500042E060E080E00E94B908F60180818E7F64
:101260008083F801808181608083808188608083B1
:10127000F70180818E7F8083888180618883CDB7EC
:10128000DEB7E8E00C949A2BE0913503909134039B
:1012900027E0E91302C080E00895AE2FB0E02E9F52
:1012A000F0011124EA5CFC4F3181361306C0308115
:1012B000381303C03581341304C0FD013196E77043
:1012C000E8CF81E008958091C502811110C080911E
:1012D000D80080618093D8008AE18A95F1F700C038
:1012E0008091D90080FF0AC081E08093C50281E02F
:1012F0009091C502913009F080E0089582E08093DA
:10130000C5020E949A081092C402F1CFCF92DF92D8
:10131000EF92FF920E946309811559F00E94AC0779
:101320006B017C01C701B601FF90EF90DF90CF9079
:1013300008950E94AC07C090C602D090C702E0900A
:10134000C802F090C902C60ED71EE81EF91EEACFE9
:101350000E9486090895CF93DF93D82FC92F0E944A
:101360006309811539F08D2F9C2F0E94600ADF914F
:10137000CF910895D0939202C0939302F8CF0E9428
:101380006309811559F0E091CC02F091CD023097BC
:1013900029F00190F081E02D0995089580E00895ED
:1013A00086988E9898E080E08F9825E02A95F1F74E
:1013B000000022277E992395880F822B8F9A25E0A3
:1013C0002A95F1F700009A9579F70895869A27E013
:1013D00030E090E08F98AC01022E02C05595479501
:1013E0000A94E2F740FF0EC08E9A4AE04A95F1F760
:1013F00000C08F9A2150310968F785E18A95F1F78D
:10140000000008958E98F1CFCF93DF930E94A90634
:1014100083E60E94E6090E94D009D82F0E94D009D5
:10142000C82F0E94AB068D2FD7FD80689C2FC7FD6B
:101430009068DF91CF910895ACE0B0E0E2E2FAE08D
:101440000C94822B4F835887162F072F8B879C87EE
:101450000E94040A282F292B211102C0902F812FCE
:1014600089879A8786E0FE013796DE011196019002
:101470000D928A95E1F729813A814B815C816D81DA
:101480007E8180E090E02C96E4E00C949E2B879A7D
:10149000869A219A0E94A9068AEB0E94E6098AE5AB
:1014A0000E94E6090E94AB062FE78FEA92E02150E6
:1014B00080409040E1F700C000000E94040A0895B7
:1014C000CF939C01C1E08D37910558F0CDE0263DCA
:1014D00086E0380730F4C9016DE770E00E94AB2B5D
:1014E000C62F0E94A90689E90E94E6098C2F806117
:1014F0000E94E6090E94AB06CF910895CF930E9407
:10150000A90689E10E94E6090E94D009C82F25E0BA
:101510002A95F1F700000E94AB06C0712DE7C29F2B
:10152000C0011124CF9108950F931F93CF93DF93A0
:101530008B01EA019091C402943059F58093E9003F
:101540008FEF9091E80095FD06C095ED9A95F1F723
:1015500000008A95B1F78091E80085FF1AC00E94CB
:101560006908811111C08091E80085FD06C0809155
:10157000E8008E778093E800F2CFF80181918F0127
:101580008093F100219779F78091E8008E7780931E
:10159000E800DF91CF911F910F910895CF93DF93D2
:1015A000D82FC92F80914901811113C048E050E024
:1015B0006D2F792F81E00E94940A80E2ED2FFC2F9D
:1015C000AAE2B2E001900D928A95E1F7DF91CF9106
:1015D00008958091310387FD06C048E081E050E026
:1015E0006D2F7C2FE8CF40E284E0F9CFBC0146E0CC
:1015F00050E084E00E94940A0895BC0143E050E06A
:1016000084E00E94940A0895A0E0B0E0EAE0FBE0E4
:101610000C947C2B182F092FB62EA72E7A018091BF
:101620001D029AE0C92ED12C8A3018F0CC24C39424
:10163000D12CC1E0D0E06B2D7A2D812F902FF701B6
:101640000995811116C02196CC16DD0694F0CC9F29
:10165000C001CD9F900D900D112420E030E045E3B6
:101660004A95F1F700002F5F3F4F28173907B9F768
:10167000E2CFCDB7DEB7EAE00C94982B909132031D
:1016800092FB222720F9281779F080FB92F990939A
:101690003203609131037091320384E090E00E9444
:1016A0001C2C82E00E942804089585E290E00E94AC
:1016B000E02B853289F486E290E00E94E02B8830AE
:1016C00059F487E290E00E94E02B91E0843209F027
:1016D00090E0892F8170089580E0FCCF0F931F93D5
:1016E000CF93DF93853030F56A3020F5473010F521
:1016F000C42FD0E0CC0FDD1F2EE0629FC00DD11DA6
:1017000011243CE8839FC00DD11D1124CE01899680
:101710000E94E02B082F10E0102F0027CE018A96A0
:101720000E94E02B9801282BC901DF91CF911F91D6
:101730000F91089580E090E0F8CFFF920F931F93F0
:10174000CF93DF93F42E853070F5623060F528E09A
:10175000829FE001112434E0639FB0011124C60F81
:10176000D71FCB51DD4F81E084279E01280F311D0B
:10177000280F311DC9010E94E02B082F10E0102F07
:10178000002781E090E0F11002C083E090E08C0F30
:101790009D1F0E94E02B9801282BC901CDB7DEB711
:1017A000E5E00C949D2B80E090E0F8CF7A3048F48F
:1017B000673070F4853060F4462F672F0E946E0BFF
:1017C00008957D3F41F4623018F441E0853050F0D7
:1017D00080E090E008957C3FD9F76230C8F785300B
:1017E000B8F740E00E949D0B0895A0E0B0E0EBEF59
:1017F000FBE00C947F2B7C0100912F0380912E0342
:10180000082BC4E0D0E010E0C8010C2E02C0959572
:1018100087950A94E2F780FD09C02197A8F7D12C9B
:101820008D2DCDB7DEB7E7E00C949B2BDC2EB701F6
:101830008C2F0E94D60B0E943805019771F3F0CFD0
:101840000F931F93CF93FC01858100811181811536
:1018500091F0611581F0C8010E94F50BC82F682F27
:10186000C8010E949E03B8018C2F0E94D60BCF9115
:101870001F910F910895C8010E94B803C82FF3CF9C
:10188000CF93DF93D82FC92F0E94F50B6D2F7C2F9C
:101890000E94D60B0E943805DF91CF910895FC017C
:1018A00084818115A1F0808191810E94400C282FB4
:1018B00092959F70963099F060F4925F9F7092308D
:1018C00030F4203FB1F038F481E0283E38F080E079
:1018D00008959A5FF3CF81E0243FC9F7089591E01E
:1018E000213F09F090E081E0283E08F080E0892B5C
:1018F000089581E00895CF9368E572E085E193E073
:101900000E945607C82F811521F085E193E00E94BF
:10191000C5069091160386E0E5E1F3E0DF01282F8C
:101920001D922A95E9F790931603A8E5B2E001907D
:101930000D928A95E1F781E0911101C080E08C2B36
:10194000CF910895611509F461C0E3E3E80FE33135
:1019500050F4F0E0E65BF34D0C94D32B0E94640648
:101960008195809312030E948F0708950E94640658
:10197000F8CF0E946406819580931103F4CF0E94F2
:101980006406FACF0E94840680931303ECCF0E9472
:1019900084068195F9CF0E94840681958093140373
:1019A000E2CF0E948406FACF282F215D330BA901D4
:1019B00021E030E001C0220F4A95EAF79091100330
:1019C000922B9093100340911603815D21E030E04B
:1019D000F90102C0EE0FFF1F8A95E2F7CF016115F2
:1019E00009F48EC0842B809316030E947B0C08950B
:1019F00080910E03816080930E03B5CF80910E031A
:101A00008260F9CF80910E038460F5CF909111032D
:101A1000482F50E08D3C59F42091120327FF0DC050
:101A20001092120391110BC010920D0308C08E3C4E
:101A3000B1F42091120312169CF39115B1F090911C
:101A4000130320911403922B911102C010920C03E6
:101A5000415D51094830510508F4B5CF84CF8F3C22
:101A600039F497FFEACF1092110390911203DACF65
:101A7000803D19F41916BCF3E0CF20911303893D82
:101A800029F41216D4F610921303D7CF8A3D19F415
:101A900027FFD3CFF8CF209114038B3D29F427FFE4
:101AA000CCCF10921403C9CF8C3D19F41216CCF38D
:101AB000C4CF2FE2280F283080F4FA01E15DF1094C
:101AC00021E030E001C0220FEA95EAF7209530913D
:101AD0001003232320931003B0CF20910E032E7FF9
:101AE0008D3D59F020910E032D7F8E3D31F08F3DBD
:101AF00009F0A3CF20910E032B7F20930E039DCFDF
:101B00008095842370CFABE4B0E0E9E8FDE00C946D
:101B1000742B0E946309811106C080E0C55BDF4F12
:101B2000E2E10C94902B60915402709155028091E7
:101B30005602909157020E94C707672B682B692BAA
:101B400061F30E94AC076093540270935502809336
:101B50005602909357020E946309811509F4B5C09B
:101B6000409115035091160360911703709118036B
:101B70008091190390911A030E941C0A2093150367
:101B8000309316034093170350931803609319037F
:101B900070931A0386E0E5E1F3E0DE011796019009
:101BA0000D928A95E1F786E0FE013796DE011D96DB
:101BB00001900D928A95E1F726E0FE013D96CE0157
:101BC0000196DC0101900D922A95E1F726E0FC01D7
:101BD000A5E1B3E001900D922A95E1F726E0E5E159
:101BE000F3E0DE01599601900D922A95E1F726E087
:101BF000FE017996DE01179601900D922A95E1F784
:101C00003B8C6C8D032D032C000C110B20912903B0
:101C100024968FAF249725969FAF2597211509F419
:101C20005EC0062E000C770B9B01200F311F061B98
:101C3000170B80E090E0E12CF12CE9868A870B8776
:101C40002C8786E0FE0137962496AFAD2497259623
:101C5000BFAD259701900D928A95E1F786E0249615
:101C6000EFAD24972596FFAD2597DE0153960190A1
:101C70000D928A95E1F786E0FE017396DE011796D4
:101C800001900D928A95E1F786E0FE013796A5E175
:101C9000B3E001900D928A95E1F786E0EFE0F3E082
:101CA000DE01179601900D928A95E1F78091160357
:101CB0009885892B809316030E947B0C811102C0AA
:101CC000809153021092530229CF86E0ECE8F2E0B3
:101CD000A5E1B3E001900D928A95E1F75BCF809189
:101CE0002503811571F0062E000C770B7B01E00EA9
:101CF000F11EC801861B970B00E010E020E030E0E9
:101D00009CCF80904A0190904B01A0904C01B090E4
:101D10004D01062E000C770B880B990B0E94102B9F
:101D2000262E26967FAF269727968FAF2797289641
:101D30009FAF289740904E0150904F016090500106
:101D40007090510166277727601B710B072E000CDE
:101D5000880B990B0E94102BA50194016B017C014B
:101D6000C701B6010E94382A7B018C01A3019201B0
:101D70002F8E26968FAD269788A327968FAD27970F
:101D800089A328968FAD28978AA36F8D78A189A102
:101D90009AA10E94382A6BA37CA38DA39EA32BA19A
:101DA0003CA14DA15EA1EFA2F8A609A71AA76FA1B9
:101DB00078A589A59AA50E94CC2A6BA77CA78DA798
:101DC0009EA76BA57CA58DA59EA50E94D82A2996C5
:101DD0006FAF29972A967FAF2A972A96EEACFFAC71
:101DE0002A97632D032C000C770B880B990B0E940C
:101DF000102BA30192016FA778AB89AB9AAB6FA5AB
:101E000078A989A99AA90E94382A6B018C012BAA6A
:101E100026968FAD26978CAB27968FAD27978DABE7
:101E200028968FAD28978EAB2BA93CA94DA95EA90A
:101E3000C501B4010E94382A6FAB78AF89AF9AAF61
:101E40002FA938AD49AD5AADCBAEDCAE0DAF1EAF4C
:101E50006BAD7CAD8DAD9EAD0E94CC2A6FAF21964F
:101E60007FAF219722968FAF229723969FAF23971C
:101E700023966CAD7DAD8EAD9FAD23970E94D82A81
:101E80002B966FAF2B972C967FAF2C972C968EAD01
:101E90009FAD2C9731CF8091750390913303892B9F
:101EA0008093EE0190912C039115A1F0892B8093E2
:101EB000EE0180914901811521F08091310387FD68
:101EC00038C086E0E0EFF1E090E08150A0F591119C
:101ED00010922C0340E250E06EEC72E08EEE91E046
:101EE0000E94322C892B21F180E2EEEEF1E0AEEC83
:101EF000B2E001900D928A95E1F7E091CC02F09169
:101F0000CD023097A9F080914901811559F0809157
:101F1000310387FF07C08091EE018093EF0186E0D7
:101F20008093EE010280F381E02D8EEE91E0099521
:101F300008958EE1C7CF2191211539F29F5FC5CF5A
:101F4000CF93C82F8115E9F08CEF8C0F813AB8F54B
:101F500080914901811521F08091310387FD13C0E3
:101F6000E0EFF1E086EF91E02191C21711F18E17B9
:101F70009F07D1F76C2F8EEE91E00E9420070E9400
:101F80004B0FCF910895EC2FE695E695E695F0E09E
:101F9000E251FE4F828190E04C2F477021E030E00B
:101FA00002C0220F331F4A95E2F782239323892B25
:101FB00009F38C2F0E94FC030E944B0FDBCF80E2C1
:101FC0008C0F883068F4C77081E090E001C0880F02
:101FD000CA95EAF7C0917503C82BC0937503CFCF9C
:101FE0008BE58C0F833038F42C2F2452330BC9012E
:101FF0000E94D406C6CFE8E5EC0FEB3150F4F0E0D8
:10200000EE0FFF1FEB54FE4F808191810E94FA0674
:10201000B8CF83E38C0F833108F0B3CF61E08C2F0E
:102020000E94A20CAECF811581F19CEF980F913ADE
:1020300028F40E94FC030E944B0F089590E2980F31
:10204000983050F4877091E001C0990F8A95EAF7B3
:10205000892F0E944004EFCF9BE5980F933028F41E
:1020600080E090E00E94D406089598E5980F9B3197
:1020700028F480E090E00E94FA06089593E3980F18
:10208000933118F460E00E94A20C08950F931F93FF
:10209000CF93C82F8B010E94A00F0115110539F4B1
:1020A0008C2F0E941310CF911F910F9108958FE9EB
:1020B0009FE00197F1F700C0000001501109EDCF3A
:1020C000811539F090917503892B809375030E94D7
:1020D0004B0F0895811521F00E9440040E944B0F80
:1020E000089580914901E0EFF1E0811529F1809197
:1020F000310387FF21C08EE1DF011D928A95E9F748
:1021000080E090E00E94D40680E090E00E94FA0611
:10211000109233030E944B0F86E0EFE0F3E0DF0103
:102120001D928A95E9F710920D0310920C031092FC
:102130000E030E948F07089586E0DECF109275038C
:102140000E9471102FEF84E39CE02150804090406A
:10215000E1F700C0000088E19AE00FB6F894A89576
:10216000809360000FBE90936000FFCFA4E2B0E0C8
:10217000ECEBF0E10C94742B1C01FC0184818115C3
:1021800009F4AAC061E0C1010E94200C8C01F10198
:102190008581811509F467C6C80197578038910574
:1021A00008F056C6003108F087C08FEF93E00E9418
:1021B000E02B811181C04DE0E42E43E0F42E0111AB
:1021C0004FC0CE0101964C0188E0F40111928A952E
:1021D000E9F73AE0532E87010F5F1F4FC7010E94B6
:1021E000E02B89831A82811509F466C0813009F0D9
:1021F00077C06701F2E0CF0ED11CC8010E94E02B2E
:102200008A83811509F458C09FEF980F9330B8F571
:1022100023E0E20EF11CC6010E94E02B8B838115A6
:1022200009F44AC01C828401F8012081211599F229
:10223000213009F096C08181813009F053C06801D6
:10224000F2E0CF0ED11CF801828160E5893309F0FC
:1022500060E070E00E94461086010F5F1F4FE4CFE0
:10226000E114F4E0FF0641F1C7010E94E02B970161
:102270002F5F3F4F79018111F3CF0150A0CF843000
:10228000A1F402E010E0C6013FEFC31AD30A0E9496
:10229000E02BF401E00FF11F8083811569F08C378A
:1022A00031F4FE01E00FF11F12827601BCCF0F5F07
:1022B0001F4F0730110539F7809130038770811562
:1022C00059F0F1018581811539F08091320382FF47
:1022D00003C082E00E942804A496E2E10C94902BB3
:1022E0007801A1CF823049F46801F2E0CF0ED11C11
:1022F000F80182810E94A00FAFCF833049F46801BA
:10230000F2E0CF0ED11CF80182810E941310A4CFFD
:10231000843019F00F5F1F4FA0CF22810E5F1F4F37
:1023200080E090E0A8014F5F5F4F2053330B2A30CD
:10233000310558F0009709F490CFEFE9FFE03197AD
:10234000F1F700C000000197F5CF589EB001599EEB
:10235000700D1124C901860F971FF80121818A0190
:10236000E1CFE22FF0E0E357FA4F4490822F8695B9
:102370008695869590E0FC01E358FA4FE49127702A
:10238000F0E0022E02C0F595E7950A94E2F7E170BD
:102390006E2E7724FC01E359FA4FA490B12C022E43
:1023A00002C0B594A7940A94E2F7A0FAAA24BB2429
:1023B000A0F8FC01E35AFA4FC490D12C02C0D59486
:1023C000C7942A95E2F7C0FACC24DD24C0F8611442
:1023D000710419F081EE0E94A00FA114B10419F04C
:1023E00086EE0E94A00FF9E360E54F1260E070E016
:1023F000842D0E944610A114B10419F086EE0E94AB
:1024000013106114710419F081EE0E941310C114AD
:10241000D10409F422CF60E070E08CE20E94461003
:102420001CCF81E080932A0380932903F1018281EC
:102430009381909328038093270381E00E942C03CB
:102440003BCF1092290381E00E94380380912A0338
:10245000811591F0F10182819381209127033091C0
:102460002803821B930B883C910530F48AE80E9474
:10247000A00F8AE80E94131010922A031DCF81E05A
:102480008093260380932503F101828193819093A9
:1024900024038093230382E0D1CF1092250382E0AE
:1024A0000E943803809126038115A1F0F1018281F9
:1024B00093812091230330912403821B930B883C4A
:1024C000910540F4109225038BE80E94A00F8BE841
:1024D0000E94131010922603EFCE81E08093260312
:1024E00080932903F1018281938190932403809347
:1024F000230383E0A3CF1092290383E00E943803D3
:1025000080912603811531F3F1018281938120911D
:10251000230330912403821B930B883C9105D0F652
:102520001092290389E20E94A00F89E2D1CF81E0B5
:102530008093260380932503F101828193819093F8
:1025400024038093230384E079CF1092250384E051
:102550000E94380380912603811509F4BBCFF10155
:10256000828193812091230330912403821B930B5A
:10257000883C910508F0AECF109225038BE20E94B3
:10258000A00F8BE2A5CF8BE80E94A00F8BE80E94E2
:10259000131081EE0E94A00F84E20E94A00F84E23B
:1025A0000E94131084E20E94A00F84E20E94131084
:1025B00081EE0E94131080E50E94A00F80E50E942A
:1025C00013107ACE8BE80E94A00F8BE80E941310A4
:1025D00081EE0E94A00F85E20E94A00F85E20E947A
:1025E000131086E20E94A00F86E2E0CF8BE80E94E3
:1025F000A00F8BE80E94131081EE0E94A00F80E2D2
:102600000E94A00F80E20E94131081EED8CF8BE8C9
:102610000E94A00F8BE80E94131081EE0E94A00F71
:1026200086E30E94A00F86E30E94131081EE0E94B1
:10263000131085E00E94A00F85E00E94131085E131
:102640000E94A00F85E10E94131081EE0E94A00F4E
:1026500087E30E94A00F87E3D6CF8BE80E94A00FEC
:102660008BE80E94131081EE0E94A00F84E30E9469
:10267000A00F84E3C8CF8091210390912203835857
:102680009F4F8036F5E09F0718F4382F292F04C09C
:102690003FE525E08FE595E030931F03209320036D
:1026A000909322038093210307CE80912103909180
:1026B00022038D5791098D37910538F73DE720E0CA
:1026C0008DE790E0E9CF8FEC93E0EACF20E030E0B7
:1026D00040E450E460911B0370911C0380911D0342
:1026E00090911E030E94CD2A5B018C0120E030E016
:1026F00044EB53E46987BA868B871C8769857A85A2
:102700008B859C850E946F2B18160CF447C07A2D80
:102710006B2D502F412F9B01CA01C32ED62EE92EBF
:10272000F42EC0921B03D0921C03E0921D03F09282
:102730001E0325E33AEF4EE85CE3AD86BE860F87C5
:10274000188B6D857E858F8598890E94382A5B015C
:102750008C01698BBA8A8B8B1C8B69897A898B89EE
:102760009C890E94132960934E0170934F018093BE
:10277000500190935101AD8ABE8A0F8B188F6D89DD
:102780007E898F89988D0E94792960934A01709380
:102790004B0180934C0190934D018ECD70E060E031
:1027A00050E040E0A12CB12C00E010E0B4CF20E0DC
:1027B00030E040E450E460911B0370911C03809171
:1027C0001D0390911E030E94CC2A7B018C0120E006
:1027D00030E0A901698FFA8E8B8F1C8F698D7A8DFD
:1027E0008B8D9C8D0E94D32A87FD39C07E2D6F2D45
:1027F000502F412F9B01CA01832E962EA92EB42E55
:1028000080921B0390921C03A0921D03B0921E03A2
:1028100025E33AEF4EE85CE3ED8EFE8E0F8F18A3B2
:102820006D8D7E8D8F8D98A10E94382A7B018C0141
:1028300069A3FAA28BA31CA369A17AA18BA19CA175
:102840000E94132960934E0170934F0180935001B1
:102850009093510127013801C301B20194CF70E078
:1028600060E054EB43E4E12CF12C04EB13E4C2CF21
:1028700010921B0310921C0310921D0310921E0352
:1028800080E090E0A0E8BFE380934E0190934F0179
:10289000A0935001B093510180934A0190934B0152
:1028A000A0934C01B0934D0107CD109229031092D3
:1028B000250310922A03109226038FEC93E00E94C6
:1028C000AB098FEC93E00E94AB09F10185810631E1
:1028D000FCE71F0701F58115A1F0809175038A7A45
:1028E00091E0811101C090E090932B0365E3811189
:1028F00001C069E28EEE91E00E9420070E944B0F1A
:10290000DBCC80912B03811521F085E30E94FC0331
:10291000F5CF89E2FBCF07372CE7120709F467C030
:1029200008373CE7130709F471C08115A9F00A358F
:102930008CE7180709F498C008F06EC00130ECE786
:102940001E0709F48FC00330FCE71F0709F484C099
:1029500001151C4709F471C0F1018581E080F18007
:10296000811509F485C0C7010E94F50B182F682F47
:10297000C7010E949E03B701812F0E94D60B0E94BF
:1029800038058C01F101D580C680C2942FE0C222A7
:102990008091300387708115F1F0ED2CD114E1F0B6
:1029A000812F807F803451F080E2800F883098F052
:1029B000C11004C0812F807E803269F08091320383
:1029C00082FF09C082E00E94280480913003877052
:1029D000EE24E3948111E12CE12FE295EF70103C9D
:1029E00008F0B1C0F0E0E35AF34D0C94D32B8115FD
:1029F00049F081E00E942C0343E062E081E00E9404
:102A0000D1035ACC81E00E943803F6CF811511F032
:102A100082E0F0CF82E0F7CF0B353CE7130731F1CE
:102A20000C351C4709F098CF80913203002482FFB7
:102A30000394802D0E943E0B8FCF109275030E944D
:102A400071109FEFE4E3FCE09150E040F040E1F7CB
:102A500000C000000E94DD076FEF7FEF80E090E094
:102A60000E941C2C0E949E1081E0E4CF80E0E2CF07
:102A7000C7010E94B803182F7ECFF12FFF70FF2EE1
:102A8000103118F0F29490EFF922D114B9F0F1144A
:102A900069F080E2800F883010F0011109C0809148
:102AA00075038F29809375030E944B0F802F43C0BD
:102AB000809133038F2980933303F6CF802F0E94B8
:102AC0001310F11409F43FC080E2800F883010F039
:102AD000011104C08F2D0E94400406C0F094809123
:102AE00033038F21809333030E944B0F2CC0212F7F
:102AF0002F70F22E107F103219F0F29480EFF8222E
:102B0000011549F0013009F46BC0D11409F477C004
:102B1000C114C9F1CBCF8091320382FD30C0D114F2
:102B200069F0F11439F0809175038F298093750352
:102B30000E944B0F80E00E94A00F05C080E00E9421
:102B40001310F110C7CFE114A9F08091300380FD7C
:102B500011C0F10115828695869586950E942C03F9
:102B6000C1010E94B61080913003869586958695A6
:102B70000E94380360E0C1010E94200CADCBD1144B
:102B800099F0C11004C08F2D0E946010DCCF31E09D
:102B9000C312D9CF80912C039F2D9823F91699F257
:102BA0008F2980932C03CFCFC110CDCF8F2D0E94C2
:102BB0006A1090912C038F2D8923811529F08F2D78
:102BC0008095892380932C0380912D039F2D98233A
:102BD000911509F4B8CFF094F822F0922D03B3CFF9
:102BE000D11429F086E0C81608F0ADCFCCCF95E01F
:102BF000C91608F0A8CF8F2D0E946A10A4CFC11467
:102C0000D1F3093349F4EFEFF7EE23E0E150F04060
:102C10002040E1F700C00000802F0E94131093CFE6
:102C2000812F869586958370811561F0813009F03A
:102C30008ACFC8019370D11002C080E090E00E945A
:102C4000FA0681CFC8019370D11002C080E090E0F5
:102C50000E94D40678CF6D2D802F0E94A20C73CFD6
:102C6000812F8370811134C0D11027C0402F42952D
:102C700046954770440F440F802F8F70042E01C07B
:102C8000880F0A94EAF7202F207104FF07C02FE075
:102C900030E001C0220F4A95EAF720951695169567
:102CA0001370123081F0133061F030912E03113027
:102CB00039F0822B83230E9426030E94BF0943CF51
:102CC000832B822BF8CF822B90912E038927F3CF71
:102CD000D11451F110FFF1CF402F42954695477026
:102CE000440F440F802F8F70042E01C0880F0A9468
:102CF000EAF7202F207104FF07C02FE030E001C069
:102D0000220F4A95EAF72095169516951370123002
:102D100089F0133069F030912F03113041F0822B8C
:102D200083230E942903C9CF823038F2D5CF832B69
:102D3000822BF7CF822B90912F038927F2CF1F7020
:102D4000D11439F0812F0E942C03802F0E94601033
:102D5000B4CF802F0E946A10812F0E943803ADCF1C
:102D6000023F71F170F4003FC9F0013F91F0D114BE
:102D700009F45AC0C11409F454C0802F0E94A00F56
:102D80009CCF033F21F1043F91F78091320382FDF4
:102D90002AC0812F8F71D11401F316C0D11469F0AC
:102DA00035E0C31608F089CF1F7181E090E0012E55
:102DB00001C0880F0A94EAF7BECF86E0C816F2CFAA
:102DC000812F8F71D110C9CF0E942C0376CF80E064
:102DD000D11409F4A6CF1F7181E0012E01C0880F24
:102DE0000A94EAF79ECFD11489F01F71812F0E94B7
:102DF0002C038091320382FF07C0812F880F880F38
:102E0000880F836080933003812FDECF81E00E94A2
:102E1000280492E0C91608F450CF82E00E942804EA
:102E20004CCF812F8F71D0CFC11479F0093349F481
:102E3000EFEFF7EE23E0E150F0402040E1F700C073
:102E40000000802F0E94131038CF812F8F7185CF03
:102E5000F801E154FE47EF30F10508F026CDE759BF
:102E6000F34D0C94D32BF801E154FE47EF30F105FC
:102E700008F027CDE858F34D0C94D32B80917403C0
:102E8000803178F480917303811559F0E091350316
:102E90002091340330916F0340916E0357E02E135D
:102EA00001C008956E2F70E05E9FF0011124DF01D4
:102EB000AA5CBC4F14968C911497811561F1119600
:102EC0008C911197831327C08C91841324C015967D
:102ED0008C91159781111FC012968D919C91A09194
:102EE0007003B09171038A1B9B0B883C910598F489
:102EF000809174038F70806180937403E45CFC4F55
:102F000080818F70806180838EE693E00E94B6108E
:102F10000E94F2030895FB013196E770C0CFADE047
:102F2000B0E0E5E9F7E10C94782B8C0186E0F8013C
:102F3000DE01189601900D928A95E1F7F801F5806F
:102F400084819EE6892E93E0992E60907203611031
:102F500018C0811599F0F11409F415C1C8010E9437
:102F60004F0C811509F40FC187E0F801AEE6B3E01C
:102F700001900D928A95E1F70E943E17FF24F39489
:102F800056C07080A280B380D090730320917003EC
:102F900030917103A501421B530BD11409F4C3C036
:102FA000483C510508F079C0811541F380916F03C9
:102FB000C180E090740350E1E51608F059C0C812D2
:102FC00015C080916E03871111C0F1104BC08E2D7A
:102FD0008F708061809374038EE693E00E94B61038
:102FE00080917403F8018683F12C21C0F1103AC05E
:102FF00040E06C2D872D0E94440940E06C2D872D08
:103000000E944409F82E8111EFCF888599850E948E
:10301000400C292F22952F70903470F49F7022302D
:10302000A0F09115B1F0F8019681903190F48F2DB8
:103030002D96EEE00C94942B2A5F2F70223068F0CE
:10304000C8010E94B610FD2CF2CF911511F0811528
:1030500071F3805E883058F3F3CF803F40F3815F97
:103060008330F9CF80917403816080937403BCCF67
:10307000C8123BC080916E03871137C0F11035C074
:10308000E682C8010E94B61087E0F801AEE6B3E020
:1030900001900D928A95E1F771CFE0907403F0E111
:1030A000EF1650F48EE693E00E94B61087E0F4012C
:1030B00011928A95E9F798CF811509F45FCF909125
:1030C0006F03F8018181981310C080916E038711FE
:1030D0000CC0F1100AC0E682C8010E94B61087E059
:1030E000F40111928A95E9F749CFC8010E944F0C6B
:1030F000811509F448C0F11409F445C080917403A6
:10310000803208F431CF80916E0390916F039A83DF
:103110008983BC82AB826D821E82EF82CE010196D2
:103120000E94B61021CF483C510508F0BFCF811551
:1031300009F424CFF11439F190916F038181981330
:1031400018C080916E03871114C08091740380FDB4
:103150009BCF803108F498CF8683807F803F09F42D
:1031600090CF8681982F907F905F8F70892B868378
:1031700088CFC8010E944F0C8111F6CE8091740354
:10318000816080937403C8010E94B610F7CEABE152
:10319000B0E0EDECF8E10C94822B4E8B5F8B688FE6
:1031A000798F8A8F192F9B8F9111109233031D8A6B
:1031B00086E0FE017696DE011F9601900D928A95BB
:1031C000E1F70A8D011539F00B8B1C8B61E0CE0104
:1031D0000F960E94200C0B8B1C8B87E0FE013F9604
:1031E000DE01189601900D928A95E1F7CE010896BE
:1031F0000E948F17811128C020913403309135032C
:1032000087E0FE013896DE01119601900D928A95B5
:10321000E1F78C858115C1F0822F90E001968770CF
:10322000992738171906D9F097E0929FD0011124F9
:10323000AA5CBC4FFE01319601900D929A95E1F780
:10324000809334030E94F20317E08091350390913C
:103250003403891314C06B96E4E00C949E2B1092F7
:1032600075030E947110109234031092350387E0A9
:10327000EEE6F3E0DF011D928A95E9F7E5CF189FAE
:10328000C00111248A5C9C4F0E948F17811519F38D
:103290008091350390E001968770992780933503DC
:1032A000D4CFA6E0B0E0E7E5F9E10C94822B0E94D0
:1032B00083078C018091CA029091CB0280179107FD
:1032C00079F019821A820E948307BC0149815A81D0
:1032D00080E090E00E94C7181093CB020093CA02CE
:1032E0002696E4E00C949E2BADE0B0E0EAE7F9E12D
:1032F0000C94822B182F062F8F83611501F18DEF0F
:1033000088870E94830722E02D87BC014F81588562
:103310008D8591E00E94C71819838DEF011101C0BE
:103320008CEF8A830E948307BC0149815A818D8575
:1033300090E00E94C7182D96E4E00C949E2B8CEF31
:1033400088870E94830723E0DFCFAAE2B0E0EBEAA0
:10335000F9E10C94832B82E292E0FC01019620912A
:10336000F100208322E08A329207B9F7809123028C
:10337000893009F458C0C8F4823009F4B5C08330EC
:1033800009F484C0813081F18091E80083FFE9C0B5
:1033900080912202909123029A3008F0E2C0E92F36
:1033A000F0E0E957F34D0C94D32B8A3009F48BC02D
:1033B0008B3051F780912202813231F780912602C1
:1033C00090912702892B01F78091E800877F8093F5
:1033D000E8000E944A0880912402809349011092DB
:1033E00075030E947110D0CF80912202813A61F65C
:1033F0008091E800877F8093E80080912602909179
:103400002702892B61F060E080E090E070E00E948C
:10341000F1078091E8008B778093E800B5CF60E2F8
:103420008AE292E0F3CF80912202813209F0ACCFA0
:1034300080912602909127028D7F892B09F0A4CFDD
:103440008091E800877F8093E8008091E80082FF08
:1034500018C09091F3008091F200029731F48091AE
:10346000F100813011F0863021F48091F1008093D9
:103470004A028091E8008B778093E8000E944A0816
:1034800083CF8091C4028111E0CF7ECF8091220250
:10349000813A09F079CF8091260290912702892BF9
:1034A00009F072CF8091E800877F8093E8008091D7
:1034B000E80080FFFCCF809149018093F10080916A
:1034C000E8008E77D9CF80912202813209F05CCF5B
:1034D0008091E800877F8093E8000E944A088091ED
:1034E000250280931E0250CF80912202813A09F07A
:1034F0004BCF8091E800877F8093E8008091E800BF
:1035000080FFFCCF80911E02D8CF803889F08238AE
:1035100041F5809126028F70873018F58093E9007D
:103520008091EB0085FB882780F91092E90006C0A6
:1035300080916B02880F90911F02892B9091E80077
:10354000977F9093E8008093F1001092F1008091B2
:10355000E8008E7723C0811116C08091240281304B
:1035600011F18091E80083FF0AC08091E800877F15
:103570008093E8008091EB0080628093EB00AA9634
:10358000E3E00C949F2B823061F780912402811537
:1035900089F01092E9008091E800877F8093E8002D
:1035A0000E944A08DECF81E0933009F080E08093EA
:1035B0006B02EFCF809126028F702FEF280F2630FD
:1035C00080F68093E9002091EB0020FFE2CF93305A
:1035D00031F48091EB0080628093EB00DACF909120
:1035E000EB0090619093EB0021E030E0A90102C074
:1035F000440F551F8A95E2F74093EA001092EA00C3
:103600008091EB008860E8CF8111ABCF109124024C
:103610001F778091E3008078812B8093E300809175
:10362000E800877F8093E8000E944A088091E800C4
:1036300080FFFCCF8091E30080688093E30083E00B
:10364000111101C082E08093C4028BCF8058823078
:1036500008F087CF80912402909125028C3D53E0A1
:10366000950799F583E08A838AE289834FB7F894B6
:10367000DE01139620E03EE051E2E32FF0E05093AC
:103680005700849120FF03C082958F703F5F8F7039
:103690008A30C8F0895C90E08D939D932F5F243130
:1036A00061F74FBF8091E800877F8093E8006AE26E
:1036B00070E0CE0101960E94F1078091E8008B77BF
:1036C0008093E8004ECF805DE6CF292F332723304B
:1036D000310509F44EC078F52130310509F47DC07B
:1036E0008BE590E0E6EEF1E02230310509F039CFCC
:1036F0002091E800277F2093E80020912802309154
:1037000029028217930708F49C0140E02115310536
:1037100009F068C0411166C08091E80082FDCDCFFC
:103720008091C402811549F2853039F28091E80018
:1037300083FFF2CFC2CF80912602909127022132DF
:10374000310509F43BC02232310509F00ACF83303C
:10375000910508F006CFFC01EE0FFF1FEB5AFE4F5C
:103760000190F081E02D8E5A9E4FDC018C9190E00B
:1037700011C09C013327813089F022303105B1F02E
:10378000232B09F0EECEE5E7F2E0E4918E2F90E0F6
:10379000E5E7F2E0009709F4E4CEAACFE3E6F2E031
:1037A000E4918E2F90E0E3E6F2E0F4CFE3E5F2E07F
:1037B000E4918E2F90E0E3E5F2E0ECCF83309105C9
:1037C00008F0CFCEFC01EE0FFF1FE55AFE4F01902F
:1037D000F081E02D89E090E08BCF82E190E0E1E4A0
:1037E000F2E086CF8091C402811509F466CF85305E
:1037F00009F463CF8091E80083FD5FCF8091E800FA
:1038000082FD8ACF8091E80080FF80CF9091F30005
:103810008091F2002115310519F08830910550F0A2
:1038200041E0089709F040E08091E8008E778093AE
:10383000E8006CCF44914093F1003196215031095A
:103840000196E8CF803809F08CCE8091E800877F20
:103850008093E800809120028093F10078CE81115E
:1038600080CE10912402123008F07BCE8091E800C7
:10387000877F8093E800109320020E944A08111568
:10388000D1F084E08093C40242E061EC81E00E94C8
:10389000B90842E261EC84E00E94B90842E261ECBE
:1038A00082E00E94B90842E260EC83E00E94B9081D
:1038B0008091C40256CE8091E30087FDE2CF81E083
:1038C000E1CFA9E1B0E0E7E6FCE10C94752BFE0145
:1038D00031968AE0DF011D928A95E9F781E6E82EAC
:1038E00081E0F82E8F0196E6C92E91E0D92E2F01A6
:1038F000AA24A394B12C3DE6832E31E0932EF70148
:1039000081917F018F3F09F43EC0F894E82FE29542
:10391000EF70F0E021A18F70A50102C0440F551F88
:103920008A95E2F7CA01922F982B91A392A18095D4
:10393000892382A3789400C0E6E6F1E031E0312CDF
:1039400021912F3F79F0A22FA295AF70A05EB0E039
:103950008C9190E02F7002C0959587952A95E2F79B
:1039600080FF27C080E0382A330F8E169F0641F76C
:10397000F70182918F3F11F00E943D0650EA5A955F
:10398000F1F7D8013C920F5F1F4FCE14DF0409F00E
:10399000B6CF4AE050E0B2018EE592E00E94322CB0
:1039A000892B49F480911C028115B1F100916902C3
:1039B00015C0832FD8CF8AE0F201AEE5B2E00190C6
:1039C0000D928A95E1F70091690281E080931C02D3
:1039D0000E94830790931B0280931A0280911A021F
:1039E00090911B020E94B8070597B0F010E00E57A7
:1039F0001D4F45E050E06EE572E0C8010E94322C98
:103A0000892B41F085E0EEE5F2E0D80101900D92BE
:103A10008A95E1F710921C020E946309E090690206
:103A2000F12CF701EE57FD4F7F018E01055F1F4F0F
:103A3000811509F4A5C085E0D8011D928A95E9F7A2
:103A400080911D028A3008F058C04FEE5EE1B80147
:103A5000C7010E94040B811509F471C04BE15FE1BD
:103A6000B801C7010E94040B811509F468C041ED3B
:103A70005FE1B801C7010E94040B811509F45FC022
:103A800042E75FE1B801C7010E94040B811509F408
:103A900056C010921D028091680290E045E050E00F
:103AA000B8018E579D4F0E94322C21E020931902BD
:103AB000892BC1F580912903811102C080912503D2
:103AC000909116029817A9F080931602811509F4B7
:103AD00048C08FE99FE00197F1F700C000008DE733
:103AE00090E00E94AB09AFE9BFE01197F1F700C089
:103AF00000006996E1E10C94912B8091170290915E
:103B000018020E94B807843F914008F09ECF809130
:103B10001902811579F285E0F80111928A95E9F789
:103B200010921902A0916802B0E0AE57BD4F85E037
:103B3000FE013B9601900D928A95E1F7BBCF8091F3
:103B40001D028F3F39F40E948307909318028093DF
:103B50001702DDCF8F5F80931D028A3008F49BCF60
:103B6000F2CFEFE9FFE03197F1F700C000008FECF2
:103B700093E00E94AB098FE99FE00197F1F7B7CF7F
:103B800085E0A0EBB2E001900D928A95E1F765E047
:103B900070E080EB92E00E94AD068093AF0240910E
:103BA0007A0250E06091790270E061567D4FC80161
:103BB0000E943F2C8B858093B60261E070E0C801C3
:103BC0000E94AD068093B502C090B702D090B802B3
:103BD000E090B902F090BA02809112029091130223
:103BE000A0911402B0911502C816D906EA06FB0688
:103BF000D1F0C0921202D0921302E0921402F0921D
:103C000015020E94630981110EC00E94AC07C61AFA
:103C1000D70AE80AF90AC092C602D092C702E09217
:103C2000C802F092C9020E946309811509F461CFAC
:103C300060910E0270910F0280911002909111021A
:103C40000E94C707672B682B692B09F452CF0E948B
:103C5000AC0760930E0270930F0280931002909352
:103C600011020E947E0A3C0189E0EBEBF2E0DE01EA
:103C70001B9601900D928A95E1F78A899B8900979E
:103C800029F06816790611F00E94600AFE01749608
:103C900086E0DF011D928A95E9F74C895D896E897E
:103CA0007F89888D998D0E941C0A2C873D874E87BD
:103CB0005F87688B798B66E070E0CE010C960E947E
:103CC000AD068B8789E0F801ABEBB2E001900D9275
:103CD0008A95E1F70ECFA1E0B0E0E1E7FEE10C94B8
:103CE000762B462E4A01522EC32E5701682E880F7E
:103CF0007708C3010E949F28D82E811509F468C057
:103D0000C30133E0880F991F3A95E1F7FC01E75FA3
:103D1000FE4F2381422F50E0211511F041E050E089
:103D2000875F9E4FFC016481758161557D4FCE0197
:103D300001960E943F2CF401608171818281938100
:103D40000E94C707643671058105910538F4B501F5
:103D5000C8010E94AD0699818917D1F1E42C042C89
:103D6000000CFF08C7010E949F28D82E811106C0B1
:103D7000D12C8D2D2196E0E10C94922BC70123E0EC
:103D8000880F991F2A95E1F7FC01E75FFE4F238119
:103D9000422F50E0A216B10408F4A501875F9E4FA0
:103DA000FC016481758161557D4F852D9C2D0E949C
:103DB0003F2CB501C8010E94AD0699818913D8CF67
:103DC0000E94AC07F4016083718382839383D1CF17
:103DD000A501B801852D9C2D0E943F2CCACFA5E0DE
:103DE000B0E0E5EFFEE10C947E2B6B0185E0E82E60
:103DF000F12C00EB12E09E012F5F3F4F4BEA52E0A7
:103E000061E080E00E946B1E811549F095E0FE01A3
:103E10003196A6EAB2E001900D929A95E1F795E00D
:103E2000E6EAF2E0D60101900D929A95E1F7259627
:103E3000E8E00C949A2BA1E0B0E0E1E2FFE10C9401
:103E40007D2BEE24E394F12C06EB12E09E012F5F14
:103E50003F4F42EA52E063E082E00E946B1E082F6F
:103E6000811529F1D12C80E01BC0C090A102CD0C9E
:103E70002C2D30E0A90141565D4F7A01FE013196AB
:103E8000ED0DF11D1081FA019081191BB12E1B144B
:103E90009CF0912F17FD90E0191B111118C0D394BD
:103EA00090919E02D91608F381110E94A809802FD3
:103EB0002196E9E00C94992BBA94F70180818F5FE9
:103EC000808360E08C2D0E947419802FE0CF1F5FEB
:103ED000F70180818150808361E08C2D0E947419EC
:103EE000802FDBCFACE0B0E0E8E7FFE10C94802B63
:103EF0000E946309811150C086E0E82EF12C0CEB82
:103F000012E09E01295F3F4F46E952E066E085E0FE
:103F10000E946B1E811591F096E0FE013796DE013E
:103F2000119601900D929A95E1F796E0FE01319677
:103F3000ACE8B2E001900D929A95E1F700919202FF
:103F4000109193020115110541F1209194023091D5
:103F500095022017310709F11093C3020093C202A2
:103F6000809142019091430181559D4F20914101E3
:103F7000422F50E0233010F042E050E062EC72E05B
:103F80000E943F2C87E090E00E949F28811529F035
:103F9000109395020093940281E02C96E6E00C9435
:103FA0009C2BA4E0B0E0E7EDFFE10C94832B609143
:103FB0009A0270919B0280919C0290919D020E94B6
:103FC000C70711E0643671058105910578F10E94FB
:103FD0008609DC01CB010296A11DB11D89839A835C
:103FE000AB83BC8380912A0190912B0181559D4F19
:103FF00020912901422F50E0253010F044E050E09C
:10400000BE016F5F7F4F0E943F2C84E090E00E94D2
:104010009F28182F811551F00E94AC0760939A02D7
:1040200070939B0280939C0290939D02812F249613
:10403000E3E00C949F2BCF93C82F65E2811101C060
:104040006FEF85E290E00E94FE2B68E0C11101C095
:104050006FEF86E290E00E94FE2B64E2C11101C086
:104060006FEF87E290E00E94FE2BCF9108951F939F
:10407000CF93DF93962F122F632F8530D8F49A3089
:10408000C8F44730B8F4C42FD0E0CC0FDD1F2EE0C9
:10409000929FC00DD11D11249CE8899FC00DD11D98
:1040A0001124CE0189960E94FE2B612FCE018A96A3
:1040B0000E94FE2BDF91CF911F9108950F931F93C4
:1040C000CF93DF93962F142F022F632F853018F58F
:1040D000923008F528E0829FE001112434E0939F9C
:1040E000C0011124C80FD91FCB51DD4F81E08427B7
:1040F0009E01280F311D280F311DC9010E94FE2B82
:1041000081E090E0111102C083E090E0602F8C0FFD
:104110009D1F0E94FE2BDF91CF911F910F9108955B
:104120008F929F92BF92CF92DF92EF92FF920F9366
:104130001F93CF93DF9305E315E0E12CF12CC0E052
:104140004701D0E015C0F601259134914B2D6D2F1C
:104150008C2F0E94372022E0C20ED11CB39437E08E
:10416000B312F1CF87E0880E911CDF5FDA3049F09F
:10417000C401880F991F9C0127583D4F6901B12C3C
:10418000E2CFF8012591349141E060E08C2F0E944C
:104190005E20F80132962591349140E060E08C2F4A
:1041A0000E945E20F80134962591349141E061E04F
:1041B0008C2F0E945E20F80136962591349140E0C4
:1041C00061E08C2F0E945E20085F1F4FCF5F36E4B6
:1041D000E30EF11CC53009F0B3CFDF91CF911F91F1
:1041E0000F91FF90EF90DF90CF90BF909F908F90B6
:1041F0000895CF93DF93CDE0D3E060E0CE010E943D
:10420000FE2B2196C11584E0D807B9F7DF91CF9135
:10421000089580E00E941B2060E088E290E00E9408
:10422000FE2B0E9490200E94F92081E00E941B201A
:104230000895CDB7DEB7A2970FB6F894DEBF0FBED4
:10424000CDBF85B7806885BF85B7806885BF84B7D7
:10425000877F84BF0FB6F894A8958091600088612D
:1042600080936000109260000FBE80E890E00FB66F
:10427000F89480936100909361000FBE8BE396E009
:104280009093ED018093EC010E949A080E94E90846
:104290008091E20084608093E20078948091C4026F
:1042A000811599F08091E9001091EC008F701795BD
:1042B00011271795182B1092E9008091E80083FDD3
:1042C0000E94A5191F701093E90082E084BD93E05D
:1042D00095BD9AEF97BD80936E001092C602109222
:1042E000C7021092C8021092C9020E94550B811198
:1042F00002C00E9409210E946309809300010E946C
:10430000630981110E94B1279091000181E0292F5A
:104310002827209379029093A10290910001809325
:104320007A029091000180939E025198599A2698A2
:104330002E9A8FE891E00197F1F700C000002091DC
:104340007A024BE752E0FA018E2F841B821708F4A1
:10435000D2C0809100018091000190E0811101C0E4
:1043600095E09093690285E0891B8093680201E6DD
:1043700011E046E6A42E41E0B42ED8018D918D01C6
:104380008F3F11F00E943D06A016B106B1F706E678
:1043900011E03DE6A32E31E0B32EF80181918F01AB
:1043A0008F3F11F00E943D06A016B106B1F78AE0DA
:1043B000E2E8F2E0DF01282F1D922A95E9F7EEE509
:1043C000F2E0DF011D928A95E9F780E090E00E941B
:1043D000E82B863E9E4F21F40E94550B811167C049
:1043E00066EE7EEF80E090E00E941C2C60E082E0B0
:1043F00090E00E94FE2B60E083E090E00E94FE2BA4
:1044000010922E0360E074E184E090E00E941C2C86
:1044100060E086E090E00E94FE2B6FEF87E090E086
:104420000E94FE2B40E050E0BA0188E090E00E943C
:10443000102C60E084E290E00E94FE2B60E087E1B7
:1044400090E00E94FE2B60E08CE090E00E94FE2B4A
:1044500060E08DE090E00E94FE2B19821A821B82A0
:104460001C821D821E821F82188648E050E068E18F
:1044700070E0CE0101960E94EE2B40E050E0BA01C0
:1044800080E290E00E94102C80E00E941B200E949D
:10449000092140E050E0BA018FE090E00E94102C2A
:1044A00040E050E0BA0183E190E00E94102C82E0ED
:1044B00090E00E94E02B80936C0284E090E00E94E8
:1044C000E82B90933203809331030E94611CEFE349
:1044D000FCE93197F1F700C000000E94611C809157
:1044E000820280FF12C06FEF7FEF80E090E00E94B9
:1044F0001C2C0E94DD0789B199271E999395990F6D
:1045000086958170892B81931FCF83E090E00E9474
:10451000E02B0E9426030E946309811102C00E94C1
:10452000B4270E94630981110E94470A81E091E04B
:104530009093CD028093CC0298E1692E712C24E0F7
:10454000422E512C8091C402853059F48091C402CE
:10455000853009F455C0109275030E9471100E94B5
:10456000BF090E94611C0DE612E082E8A82E82E0DD
:10457000B82ED501F80191918D9122E0E737F2072D
:1045800009F492C09817B9F30E9463098AA3912C89
:10459000D5018D905D01F80181918F01881549F158
:1045A000882589A3312C2224239489A18221811575
:1045B000C9F0FAA1F115B1F039829A820E948307FD
:1045C0009C838B8321E02D8391E0822D88218111B2
:1045D00001C090E09E8349815A816B817C818D81ED
:1045E0000E94C7183394220C87E03812DECFF801FE
:1045F000829293949AE09912CBCF0E94860958C078
:104600008091C402843021F10E94830D10926A02CD
:10461000F0E40FB6F894A895609260000FBEF09396
:10462000600083B7817F846083BF83B7816083BF6D
:104630007894889583B78E7F83BF0FB6F894A8953A
:1046400080916000886180936000109260000FBECE
:1046500080916B02811509F479CF0E94611CE2E818
:10466000F2E08CE892E02191211104C08E179F079F
:10467000D1F76CCF80E189BD82E189BD09B400FE2C
:10468000FDCF8091D8008F7D8093D8008091E0008D
:1046900082608093E0008091E00081FDFCCF109269
:1046A00075030E94711052CF98136ECF0E9451195A
:1046B0000E946309A12C912C80917A02A81608F41B
:1046C000FCC091100E94A8090E94830D81110E94D4
:1046D000860986E0EFE0F3E0DE01119601900D928D
:1046E0008A95E1F7109211031092120310921303AE
:1046F000109214038B819C81892B811509F442C08F
:1047000080917F02909180020E94B8077C01809185
:104710000D03811509F45AC2F5E1EF16F10490F189
:104720008F3F19F08F5F80930D031B81111559F096
:104730000E94640691E011160CF09FEF899F802D76
:104740001124809311031C81111559F00E946406F5
:1047500091E011160CF09FEF899F802D112480931A
:10476000120380911103811569F010911203111544
:1047700049F00E94560680931103812F0E9456062D
:10478000809312038D819E81892B811509F442C08B
:1047900080917D0290917E020E94B8076C01809109
:1047A0000C03811509F40CC221E5C216D10490F165
:1047B0008F3F19F08F5F80930C031D81111559F005
:1047C0000E94840691E011160CF09FEF899F802DC6
:1047D0001124809313031E81111559F00E94840641
:1047E00091E011160CF09FEF899F802D112480938A
:1047F000140380911303811569F0109114031115AE
:1048000049F00E94560680931303812F0E9456069A
:1048100080931403BE016F5F7F4F8FE093E00E948F
:10482000560781110CC08091110390911203892BBE
:1048300090911303892B90911403892B81110E946D
:104840008F0786E0FE013196AFE0B3E001900D9254
:104850008A95E1F70E94BF0990918102891721F0A2
:10486000809381020E94AC078091C402843009F0D9
:1048700069CE83E08093E9008091E80082FF62CEF8
:104880008091E80090E085FF06C00E9469088115CC
:1048900009F46CC091E08091E8008B778093E80088
:1048A000911509F44FCEE981E150E53108F086C059
:1048B000F0E0EF56F34D0C94D32B0A2D10E089B1A4
:1048C00099271E999395990F86958170892BD80108
:1048D000A558BD4FEC919E2F9370891709F444C0E1
:1048E000EE0FEE0FE82BEC93B0907902BA0CEF705C
:1048F000F0E0E359FE4F09581D4F8081D8019C918B
:10490000890F8C9320E0843084F0EB2DF0E0E156A9
:10491000FD4F80818F5F80830E946309811521F0A4
:1049200060E08B2D0E94741921E0F80180818D3F99
:1049300084F4EB2DF0E0E156FD4F808181508083BF
:104940000E946309811521F061E08B2D0E9474198A
:1049500021E0D8018C91082E000C990BB2010E9425
:10496000BF2BF8018083922AA394A6CE00E210E028
:10497000CE0101965C018091E80085FD0AC080911E
:10498000E8008B778093E8000E946908811599F30D
:1049900081CF8091F100D5018D935D0101501040D0
:1049A00051F778CF1A828CE08B831AC08A818330CA
:1049B00049F138F4813061F08230D9F08FEF89838A
:1049C0000FC08430D9F71B821C821D821E8208C052
:1049D0000E94AC070E94D92B6B837C838D839E83BE
:1049E00040E250E0BE016F5F7F4F82E00E94940A78
:1049F000A9CD88E290E00E94E02B1B821C821D82E0
:104A00008E83EECF8B8190E0FE0134968A30910543
:104A10003CF7DC01AE57BD4F2C9121930196F6CFA8
:104A20008A81823019F08530D9F2C8CF6B817C81C0
:104A30008D819E810E94D92B88E290E00E94FE2BFE
:104A4000CFCF4C816B818A810E946E0B982789277A
:104A500098279E838D83C4CF2D813E8132272327C3
:104A600032274C816B818A810E943720B9CF0E9406
:104A70009020B6CF80E18A83B3CF1A8283EF94CFA0
:104A80000A811B811027012710278C814801880E7D
:104A9000911C5E01B5E0AB0EB11C8016910609F4C5
:104AA0009FCF80E0033F110528F4C801835F9C4F2E
:104AB0000E94E02BF50181935F010F5F1F4FEDCF47
:104AC0000A811B81102701271027CE0101965C0166
:104AD0008C814501880E911C8A149B0409F480CFB7
:104AE000033F110540F4D50114966C91C801835F12
:104AF0009C4F0E94FE2B0F5F1F4FBFEFAB1ABB0AEC
:104B0000EBCF0E94F9206CCF85E0B5CF0A811B81E5
:104B10001027012710278C814801880E911C5E0107
:104B2000E5E0AE0EB11C8016910609F459CF80E085
:104B30000C3BF2E01F0720F4C80189960E94E02B8D
:104B4000D5018D935D010F5F1F4FEDCF0A811B8152
:104B5000102701271027FE0131965F018C814F013C
:104B6000880E911C8A149B0409F43ACF0C3BF2E0A6
:104B70001F0738F4D50114966C91C80189960E94DC
:104B8000FE2B0F5F1F4FBFEFAB1ABB0AEBCF41E00D
:104B90008C81811101C040E06B818A810E949D0B54
:104BA00055CF2D813E8132272327322741E08C814A
:104BB000811101C040E06B818A810E945E2010CF8C
:104BC000EBE0CE16D10408F0F5CD24CEFBE0EF16D5
:104BD000F10408F0A7CDD6CD1F921FB61F92112465
:104BE0008F939F93AF93BF9380916A02811113C0FB
:104BF00080914B0290914C02A0914D02B0914E02D7
:104C00004196A11DB11D80934B0290934C02A0933D
:104C10004D02B0934E02BF91AF919F918F911F9023
:104C20001FBE1F90189578941F921FB61F921124D3
:104C30008F939F93AF93BF9380914B0290914C02BF
:104C4000A0914D02B0914E020196A11DB11D80931D
:104C50004B0290934C02A0934D02B0934E02BF9131
:104C6000AF919F918F911F901FBE1F9018951F921B
:104C70000F920FB60F9211242F933F934F935F9390
:104C80006F937F938F939F93AF93BF93EF93FF9314
:104C90008091E10082FF09C08091E20082FF05C09F
:104CA0008091E1008B7F8093E1008091DA0080FFAA
:104CB00024C08091D80080FF20C08091DA008E7FD0
:104CC0008093DA008091D90080FF9BC080E189BD8C
:104CD00082E189BD09B400FEFDCF81E08093C4026A
:104CE00080912102811109C00E949A080E94E9085E
:104CF0008091E20084608093E2008091E10080FF77
:104D000017C08091E20080FF13C08091E2008E7F87
:104D10008093E2008091E20080618093E2008091C4
:104D2000D80080628093D80019BC85E08093C402CB
:104D30008091E10084FF29C08091E20084FF25C0BA
:104D400080E189BD82E189BD09B400FEFDCF80917B
:104D5000D8008F7D8093D8008091E1008F7E809372
:104D6000E1008091E2008F7E8093E2008091E2007A
:104D700081608093E20080912002811509F447C090
:104D800084E08093C4028091C4028091E10083FF9B
:104D900027C08091E20083FF23C08091E100877FDC
:104DA0008093E10082E08093C402109220028091FF
:104DB000E1008E7F8093E1008091E2008E7F8093FE
:104DC000E2008091E20080618093E20042E060E0D6
:104DD00080E00E94B9088091F00088608093F00024
:104DE000FF91EF91BF91AF919F918F917F916F91C3
:104DF0005F914F913F912F910F900FBE0F901F9099
:104E0000189519BC1092C4021092210276CF80919D
:104E1000E30087FF02C083E0B4CF81E0B2CF1F92EE
:104E20000F920FB60F921124EF92FF920F931F93E0
:104E30002F933F934F935F936F937F938F939F93A2
:104E4000AF93BF93CF93EF93FF9309EE10E0F80178
:104E50008081C091EC008F70C795CC27C795C82B77
:104E6000108280EFE82EF12CF7018081877F80830C
:104E700078940E94A519F8011082F701808188605A
:104E80008083CF70F801C083FF91EF91CF91BF91E4
:104E9000AF919F918F917F916F915F914F913F91D2
:104EA0002F911F910F91FF90EF900F900FBE0F90D9
:104EB0001F9018958EE1489B02C08A95E1F7489BA8
:104EC000FECF0895589880E28A95F1F7589A089590
:104ED000FC012BE02A95F1F728E090E080E031E03A
:104EE00040E14A95F1F7880F489B02C08160932703
:104EF00042E04A95F1F7000040E14A95F1F72A9522
:104F000079F720E12A95F1F729B132E03A95F1F7E6
:104F1000000040E14A95F1F7217092272081920F1D
:104F200090830895A1E0B0E0E8E9F7E20C94802BCB
:104F300019828C017C01E60EF11C0E945A27CE01D9
:104F400001960E946827F80181938F01EE15FF05F5
:104F5000A1F781E09981911180E02196E6E00C941F
:104F60009C2B509A589A08955098589AE89AE9E6D6
:104F7000F0E080818C7F808308956150770B91E011
:104F800001C0990F6A95EAF7692F90E021E061115D
:104F900008C0911599F0589A80E28A95F1F75898CF
:104FA0000895362F3823311539F0589A922730E278
:104FB0003A95F1F76695EBCF5898F9CF5898ECCF22
:104FC000FF920F931F93CF93DF93EC018C01060F99
:104FD000111DF9900E94622768E08F2D0E94BD2765
:104FE000C017D107B1F7CDB7DEB7E5E00C949D2B24
:104FF0001F920F920FB60F9211240F931F932F93AE
:105000003F934F935F936F937F938F939F93AF9350
:10501000BF93EF93FF93CF93DF930F92CDB7DEB79C
:1050200019820E945A27CE0101960E946827082FF4
:10503000069506950695982F92959570202F2570C8
:10504000920F292F237096959695920F9827977017
:105050008981892B811509F05CC0093008F059C09D
:1050600080E18A95F1F7589A509A82E08A95F1F793
:1050700000C0589888E0089F80011124D801A75FDC
:10508000BE4F1696ED91FC9117973097A9F060915D
:105090007D0170917E0114962D913C911597260FFC
:1050A000371F11968D919C911297680F791F139657
:1050B0004C9113978C910995F801E75FFE4F63813E
:1050C000611551F020917D0130917E01848195819F
:1050D000820F931F0E94E0270E94622780E18A9539
:1050E000F1F758985098589A80E18A95F1F7F801AD
:1050F000E75FFE4F6081611551F020917D01309195
:105100007E0181819281820F931F0E9492270E94CB
:105110005A270F90DF91CF91FF91EF91BF91AF91FF
:105120009F918F917F916F915F914F913F912F91BF
:105130001F910F910F900FBE0F901F9018950F9316
:105140001F93CF93DF938C0109970CF064C0F89400
:10515000509A589885E08A95F1F70000C02FC695BF
:10516000C570802F8570C80F8C2F8370C695C6952B
:1051700093E0000F111F9A95E1F7C80FC8018C2B1F
:10518000EC010E94622700C068E08C2F0E94BD27BE
:1051900090E19A95F1F75098589A489B35C087E06E
:1051A00090E0489933C0F801E75FFE4F63816115D5
:1051B00061F020917D0130917E0184819581820F83
:1051C000931F0E949227811519F10E945A2780E2AD
:1051D0008A95F1F75898509A90E19A95F1F7F8016D
:1051E000E75FFE4F6081611551F020917D013091A4
:1051F0007E0181819281820F931F0E94E0270E948D
:105200006227789481E008C000C0C7CF019749F4B5
:10521000509A589A789480E0DF91CF911F910F9126
:10522000089500C0BECF0E941A29E3950C9443292B
:105230000C94FB290E945F29D8F3E894E0E0BB2797
:105240009F57F0F02AED3FE049EC06C0EE0FBB0F90
:10525000661F771F881F28F0B23A6207730784071A
:1052600028F0B25A620B730B840BE3959A9572F790
:10527000803830F49A95BB0F661F771F881FD2F7CE
:1052800090480C94EF29EF93E0FF07C0A2EA2AEDC3
:105290003FE049EC5FEB0E9492290E94202A0F9088
:1052A000039401FC9058ECEAF0E00C94FE2957FDC1
:1052B0009058440F551F59F05F3F71F04795880F84
:1052C00097FB991F61F09F3F79F08795089512161B
:1052D00013061406551FF2CF4695F1DF08C01616C7
:1052E00017061806991FF1CF869571056105089478
:1052F00008959F930E941A290F9007FCEE5F0C946B
:1053000043290E94122A38F00E94192A20F039F409
:105310009F3F19F426F40C94FB290EF4E095E7FB6B
:105320000C94E729E92F0E94572958F3BA1762070E
:1053300073078407950720F079F4A6F50C94312AB9
:105340000EF4E0950B2EBA2FA02D0B01B9019001A0
:105350000C01CA01A0011124FF27591B99F0593FE4
:1053600050F4503E68F11A16F040A22F232F342F2C
:105370004427585FF3CF469537952795A795F0407A
:105380005395C9F77EF41F16BA0B620B730B840B8F
:10539000BAF09150A1F0FF0FBB1F661F771F881F47
:1053A000C2F70EC0BA0F621F731F841F48F487959F
:1053B00077956795B795F7959E3F08F0B0CF939591
:1053C000880F08F09927EE0F97958795089597F91C
:1053D0009F6780E870E060E008959F3F31F0915052
:1053E00020F4879577956795B795880F911D9695C9
:1053F000879597F908959FEF80EC08959F938F9379
:105400007F936F93FF93EF939B01AC010E94382A27
:10541000EF91FF910E94A52A2F913F914F915F91AB
:105420000C94382A00240A94161617061806090642
:10543000089500240A94121613061406050608950A
:10544000092E0394000C11F4882352F0BB0F40F492
:10545000BF2B11F460FF04C06F5F7F4F8F4F9F4FD2
:105460000895E894BB2766277727CB0197F908951D
:105470000E944B2A0C94202A0E94122A38F00E9483
:10548000192A20F0952311F00C94E7290C94FB299C
:1054900011240C94322A0E94572970F3959FC1F36E
:1054A000950F50E0551F629FF001729FBB27F00DD2
:1054B000B11D639FAA27F00DB11DAA1F649F662727
:1054C000B00DA11D661F829F2227B00DA11D621F76
:1054D000739FB00DA11D621F839FA00D611D221F30
:1054E000749F3327A00D611D231F849F600D211D14
:1054F000822F762F6A2F11249F5750409AF0F1F097
:1055000088234AF0EE0FFF1FBB1F661F771F881FFF
:1055100091505040A9F79E3F510580F00C94E72927
:105520000C94322A5F3FE4F3983ED4F38695779546
:105530006795B795F795E7959F5FC1F7FE2B880FA5
:10554000911D9695879597F90895DF93CF931F93B3
:105550000F93FF92EF92DF927B018C01689406C05B
:10556000DA2EEF010E944B2AFE01E894A5912591C5
:10557000359145915591A6F3EF010E949229FE01C4
:105580009701A801DA9469F7DF90EF90FF900F91EF
:105590001F91CF91DF9108955058BB27AA270E94F1
:1055A00092290C94202A0E944B2B08F481E0089544
:1055B0000E94DF2A6894B1110C94322A08950E9447
:1055C0005F2988F09F5798F0B92F9927B751B0F00D
:1055D000E1F0660F771F881F991F1AF0BA95C9F777
:1055E00014C0B13091F00E94312AB1E008950C94BA
:1055F000312A672F782F8827B85F39F0B93FCCF36D
:10560000869577956795B395D9F73EF490958095F3
:10561000709561957F4F8F4F9F4F0895E89409C013
:1056200097FB3EF490958095709561957F4F8F4FD5
:105630009F4F9923A9F0F92F96E9BB279395F695EB
:10564000879577956795B795F111F8CFFAF4BB0F69
:1056500011F460FF1BC06F5F7F4F8F4F9F4F16C0CD
:10566000882311F096E911C0772321F09EE8872F57
:10567000762F05C0662371F096E8862F70E060E013
:105680002AF09A95660F771F881FDAF7880F96958C
:10569000879597F90895990F0008550FAA0BE0E830
:1056A000FEEF16161706E807F907C0F012161306E4
:1056B000E407F50798F0621B730B840B950B39F424
:1056C0000A2661F0232B242B252B21F408950A268A
:1056D00009F4A140A6958FEF811D811D08950E94B8
:1056E0004B2B08F48FEF08952F923F924F925F92C9
:1056F0006F927F928F929F92AF92BF92CF92DF92E2
:10570000EF92FF920F931F93CF93DF93CDB7DEB746
:10571000CA1BDB0B0FB6F894DEBF0FBECDBF0994DA
:105720002A88398848885F846E847D848C849B8431
:10573000AA84B984C884DF80EE80FD800C811B813F
:10574000AA81B981CE0FD11D0FB6F894DEBF0FBE6E
:10575000CDBFED010895AA1BBB1B51E107C0AA1FD5
:10576000BB1FA617B70710F0A61BB70B881F991F02
:105770005A95A9F780959095BC01CD01089597FBA6
:10578000072E16F4009407D077FD09D00E94AB2BAA
:1057900007FC05D03EF4909581959F4F0895709534
:1057A00061957F4F0895EE0FFF1F0590F491E02D56
:1057B00009946927962769277827872778270895E6
:1057C000F999FECF92BD81BDF89A992780B50895C9
:1057D000A8E1B0E042E050E00C94242CDC01A40FDE
:1057E000B51F4150504048F0CB01840F951F2E91BA
:1057F0000E94FF2B41505040D0F70895262FF99971
:10580000FECF92BD81BDF89A019700B4021639F01F
:105810001FBA20BD0FB6F894FA9AF99A0FBE0895F0
:105820000396272F0E94FF2B0E94FE2B252F0E94FC
:10583000FF2B242F0C94FF2B0196272F0E94FF2B68
:105840000C94FE2BDC01CB01FC01F999FECF06C0C4
:10585000F2BDE1BDF89A319600B40D92415050402E
:10586000B8F70895FB01DC0104C08D910190801907
:1058700021F441505040C8F7881B990B0895FB0153
:10588000DC0102C001900D9241505040D8F70895BC
:10589000F894FFCFAE0CB60CB90CBF0CD40CD40CE2
:1058A000D40CD40CD40CD40CD40CD40CC20CC70C17
:1058B000CB0CD10CF80CFE0C020D3D153D157715E7
:1058C000771510162B16A315A31530169F16B016B4
:1058D000B01611123F126D129712C312E212F61295
:1058E00007132D133B13551363136613D713381483
:1058F00021124D127B12A5125C115C115C115C111E
:105900005C115C115C115C115C115C115C11851AFD
:10591000AB1AB11AAB1AB11A041B261BB11A221CFE
:105920002F1CD224D624102521252C253725DE2412
:10593000DE24DE24DE24DE243A253D2540256025B4
:0C594000812584258625A625C725D125B4
:10594C0001EE07CE0AF60AFD0A0000000100000075
:10595C00000000000501000000000000010600002E
:10596C000000000001070000000408000000000017
:10597C0000000000010C000000000000060D0000FB
:10598C00000213000000000000010000803F000036
:10599C00803F4422B6A2018001CA00F801110231F5
:1059AC00026697C63435F4F5939294333200FF01B6
:1059BC0000010000FFFF0000010001FF00AF02E248
:1059CC0000E900EA00B500B600B700CD008301CCB9
:1059DC00008A01920194012102230224022502264D
:1059EC000227022A02B300B4006F0070009F01CBA3
:1059FC00019F02A002E200E900EA00B500B600B780
:105A0C0000CD008301CC008A019201940121022374
:105A1C000224022502260227022A02B300B4006FD8
:0C5A2C000070009F01CB019F02A002004F
:00000001FF
