:100000000C9407030C9492280C9424030C9424035E
:100010000C9424030C9424030C9424030C942403C4
:100020000C9424030C9424030C94D3210C948F215E
:100030000C94D0220C9424030C9424030C942403D9
:100040000C9424030C9424030C9424030C94240394
:100050000C9424030C94AC220C9424030C942403DD
:100060000C9424030C9424030C9424030C94240374
:100070000C9424030C9424030C9424030C94240364
:100080000C9424030C9424030C9424030C94240354
:100090000C9424030C9424030C9424030C94240344
:1000A0000C9424030C9424030C94240305A84CCD35
:1000B000B2D44EB93836A9020C50B9918688083CA2
:1000C000A6AAAA2ABE000000803F05010902A101DC
:1000D00085020901A100050919012908150025015A
:1000E0009508750181020501093009311581257FC7
:1000F00095027508810609381581257F95017508D7
:100100008106050C0A38021581257F950175088145
:1001100006C0C005010980A101850319012AB700A5
:10012000150126B700950175108100C0050C090165
:10013000A101850419012AA002150126A00295013A
:1001400075108100C005010906A101850605071982
:10015000E029E715002501950875018102050719B9
:100160000029EF1500250195F07501810205081998
:10017000012905950575019102950175039101C04D
:100180000660FF0961A1010962150026FF009520A4
:10019000750881020963150026FF009520750891F6
:1001A00002C005010906A101050719E029E71500AC
:1001B00025019508750181029501750881010507E2
:1001C000190029FF150026FF009506750881000516
:1001D000081901290515002501950575019102955C
:1001E0000175039101C00000000000000000000044
:1001F00000000000000000000000000000000000FF
:10020000000000000000000000007E0F00D4FFFF8F
:10021000FFC70000007800000000000000002A2B4B
:1002200028000000000000000000000000000000A6
:100230000029000000002C1E34202122243426270F
:10024000252E362D3738271E1F2021222324252630
:100250003333362E37381F0405060708090A0B0CFE
:100260000D0E0F101112131415161718191A1B1C46
:100270001D2F3130232D350405060708090A0B0C04
:100280000D0E0F101112131415161718191A1B1C26
:100290001D2F3130354C29001E001F002000210089
:1002A0002200A8002B0014001A00080015001700F7
:1002B0002800E20004001600070009000A003801C7
:1002C000E1001D001B000600190005004C00E000C5
:1002D000E300E200447E2A002C00417ED30023008C
:1002E00024002500260027004600D1001C0018002D
:1002F0000C00120013008900D3000B000D000E004B
:100300000F0033003400D200110010003600370017
:100310003800E500427E28002D00437E3000320088
:100320002F0029003B003B003C003D003E00440004
:100330002B001701D100520843022B066800E2008F
:100340001A0150082B054F082B046900E10016081C
:100350003D04510817082B084C00E000E300E200C0
:1003600001002A002C0001002E003F004000410047
:100370004200430048002B0355005F00600061000D
:10038000560089002B0154005C005D005E005700A0
:100390004C7ED300340059005A005B002E00E5006B
:1003A000010028002D00620063004B7E4A7E290078
:1003B0003B003B003C003D003E0044002B0014008D
:1003C0001A000800150017006800E200040016007B
:1003D000070009000A006900E1001D001B0006007B
:1003E000190005004C00E000E300E200447E2A0012
:1003F0002C00010045003F00400041004200430046
:100400004800B700D1004A0052004D0043022900C5
:10041000B6004A00500051004F004D004F7ED300FF
:100420004E00477E467E457E4B00E5000100487E3B
:100430008700437EDC004E7E4D7E29003B003B0062
:100440003C003D003E0044002B006A006B006C0045
:100450006D006E00D100E2006A016B016C016D015C
:100460006E01D200E1006A026B026C026D026E0244
:100470004C00E000E300E200447E2A002C00010072
:1004800045003F0040004100420043004800D100C9
:100490006F0070007100720073002900D3006F01BB
:1004A00070017101720173012900D2006F027002A4
:1004B000710272027302E50001002800870001004A
:1004C000DC0000002F0029003A003B003C003D000A
:1004D0003E0044002B001E021F02200221022202C5
:1004E0002800E2001E041F0420042104220444000A
:1004F000E1003A003B003C003D003E004C00E000C3
:10050000E300E20001002A002C00417E45003F008C
:10051000400041004200430046002E002302240216
:10052000250226022702290045002304240425046D
:10053000260427043400D3003F004000410042005D
:100540004300E500427E28002D00437E300032004B
:100550002F00DA00D900D900DA00DA00D900D9007A
:10056000DA00DA00D900D900DA00AA00A900A9004F
:10057000AA00AA00A900A900AA0009025B000301C1
:1005800000A0FA0904000001030101000921110182
:10059000000122440007058103080001090401004D
:1005A00002030000000921110100012222000705B9
:1005B0008203200001070503032000010904020053
:1005C000010300000009211101000122B600070506
:1005D00084032000011201000200000008ABAA02FF
:1005E000000001010200010E034D006F006F006F5B
:1005F0000073006500000010036100740061007268
:100600000075006E006F000000040309040011244F
:100610001FBECFEFDAE0DEBFCDBF11E0A0E0B1E05A
:10062000ECE5FAE502C005900D92AC3BB107D9F7B5
:1006300023E0ACEBB1E001C01D92A234B207E1F7B8
:100640000E94F7220C94E32C0C940000482F209178
:1006500041039091080357E0291302C080E00895F8
:1006600030E0529FF001539FF00D1124E75FFC4FE3
:100670008181681306C08081481303C08581811180
:10068000EECF2F5F3F4F2770E7CFE8EDF0E080819E
:100690008E7F80831092E2001092DA001092E100C7
:1006A000A0EEB0E08C9181608C9380818F77808305
:1006B00019BCA7EDB0E08C918E7F8C9380818F7EEA
:1006C00080831092D80208952091E4003091E500D3
:1006D00095E6A9012091EC00822F817020FF06C0D1
:1006E0008091E80080FF06C080E008952091E80036
:1006F00022FD1AC08091FE02882389F0853089F09E
:100700008091EB0085FD0FC02091E4003091E50061
:1007100042175307F9F29150E1F684E0089582E020
:10072000089583E0089581E008958091000387FF94
:1007300013C08091E80082FF06C08091E8008B77AB
:100740008093E80004C08091FE028111F2CF0895E9
:100750008091FE028823D9F38091E80080FFF8CFD2
:100760008091E8008E77ECCF982F9093E900242FAA
:10077000762F50E0891731F07091EC002091ED0058
:100780005091F00021FD07C09F5F973071F7809373
:10079000E90081E008953091EB003E7F3093EB005B
:1007A0003091ED003D7F3093ED003091EB003160F2
:1007B0003093EB007093EC002093ED005093F00029
:1007C0002091EE0027FDE0CF80E00895B0E0A0E0AA
:1007D000ECEEF3E00C94B829C8EDD0E088818F7E70
:1007E0008883E7EDF0E080818160808384E082BFD0
:1007F00081E08093D80288818E7F888302EE10E0AA
:10080000F80110821092DA0081EEC82ED12CF60188
:10081000108288818F778883888180688883888127
:100820008F7D888319BC1092FE021092FF021092F5
:10083000FD021092FC0290EEE92EF12CF70180816E
:100840008B7F808388818160888342E060E080E0E4
:100850000E94B403F60180818E7F8083F80180813D
:1008600081608083808188608083F70180818E7FB2
:100870008083888180618883CDB7DEB7E8E00C94FF
:10088000D429FC01809106039091070386179707EE
:10089000A0F06115710529F49091E8009E7790937E
:1008A000E80090E06115710551F4911108C0809144
:1008B000E80082FF34C080E00895BC01F2CF80914F
:1008C000FE028823C1F18530C1F18091E80083FDEB
:1008D00030C08091E80082FDEACF8091E80080FF7F
:1008E000E1CF8091F3002091F200382F611571055E
:1008F00019F02830310558F091E02830310509F021
:1009000090E02091E8002E772093E800CBCF8191F2
:100910008093F100615071092F5F3F4FE7CF8091C5
:10092000FE02882341F0853041F08091E80083FF8A
:10093000BECF81E0089582E0089583E0089580911C
:10094000DB02089587E797E79093010880930008FA
:1009500088E19AE00FB6F894A895809360000FBEE6
:1009600090936000FFCF9C014FB7F8948091D20222
:100970009091D302A091D402B091D5024FBF821BB7
:10098000930B08952FB7F8946091D2027091D3021F
:100990008091D4029091D5022FBF08952FB7F8947B
:1009A0008091D2029091D302A091D402B091D5024D
:1009B0002FBF0895DC01FB0111969C911197818155
:1009C000981322C012968C911297882319F0928165
:1009D00089131AC013968C911397882319F0938169
:1009E000891312C015968C911597882319F095815B
:1009F00089130AC014969C91992321F081E02481E7
:100A0000291303C080E001C081E081700895209126
:100A100055012223C9F02091D60227FF15C0E62FE9
:100A2000E695E695E695EE31D8F4E80FF92FF11D3D
:100A3000677021E030E001C0220F6A95EAF7209547
:100A40008281282322830895FC0132960896219101
:100A5000621303C0DF0111971C92E817F907B9F779
:100A60000895209155012223C1F02091D60227FF3D
:100A700014C0E62FE695E695E695EE31F8F4E80F1A
:100A8000F92FF11D677021E030E001C0220F6A9557
:100A9000EAF78281822B82830895FC0132962FEF40
:100AA00030E04191641751F02F3F19F4411101C01A
:100AB000232F3F5F3630A9F72F3F09F40895820FA7
:100AC000911D27FD9A95FC0162830895A3E0B0E093
:100AD000ECE6F5E00C94BE292091CF023091D002D3
:100AE00028173907A1F09093D0028093CF02E091AC
:100AF000CD02F091CE02309751F024E029839B8300
:100B00008A830680F781E02DCE0101960995239610
:100B1000E2E00C94DA29A3E0B0E0E1E9F5E00C941E
:100B2000BE292091CB023091CC0228173907A1F0C1
:100B30009093CC028093CB02E091CD02F091CE0253
:100B4000309751F023E029839B838A830680F781C5
:100B5000E02DCE01019609952396E2E00C94DA2966
:100B6000E091CD02F091CE02309739F022E0DC0125
:100B70002C930480F581E02D09950895FC01680F00
:100B8000791F8FEF91E32191822728E030E087FFE2
:100B900009C0880F892721503109C9F7E617F707DF
:100BA00091F70895880FF7CF299A08952998089505
:100BB0000E94CE049C019091B4028091B502982BC2
:100BC00021F03093A9022093A8029091B60280915F
:100BD000B702982B21F03093A7022093A60282EB54
:100BE00092E00E94B00508958091A50280FD16C094
:100BF00081FD16C082FD16C08091A4028823A1F059
:100C0000883280F428E0829FC001112468E270E0FD
:100C10000E94F929862F672B39F0089582E0089504
:100C200084E0089588E0089581E008958091A50208
:100C300080FD14C081FD14C082FD16C08091A30206
:100C4000882381F08E3180F420E5829FC001112439
:100C50006EE170E00E94F929862F089584E10895DD
:100C600088E2089588E0089580E50895282F35EBFF
:100C70002303C001112497FF04C080589109892FD4
:100C8000089580589F4FFBCF80E00895F894E82F97
:100C9000E295EF70F0E031A1282F2F7081E090E015
:100CA00001C0880F2A95EAF7982F9095932391A376
:100CB00092A1892B82A3789408959091D60292FFF5
:100CC00010C041E0282F2471243009F040E031E0C9
:100CD000282F2871283009F030E0431711F02CE05C
:100CE000822793FF10C041E0282F2471243109F09E
:100CF00040E031E0282F2871283109F030E0431717
:100D000011F02CE082273091D70230FF10C051E063
:100D1000282F2171213009F050E041E0282F28715F
:100D2000283009F040E0541711F029E0822731FF04
:100D300010C041E0282F2171213109F040E031E05D
:100D4000282F2871283109F030E0431711F029E0ED
:100D5000822794FD877E089582389105B9F1B0F419
:100D60008133910509F47DC048F48932910509F475
:100D70006DC08A32910509F47BC0089585339105D1
:100D800009F45FC08933910509F10895833E910507
:100D9000D9F138F4803E910529F1823E910579F12F
:100DA0000895863E9105D9F1873E910509F43EC02C
:100DB000843E910541F52091D70221FF24C0809106
:100DC000D60284FD19C087EE90E008952091D602E6
:100DD000237009F05AC02091D70223FF14C089E282
:100DE00090E008952091D60220FD38C03091D702BE
:100DF00030FF09C024FF43C090E080E008952091B7
:100E0000D60222FDF7CF08952091D60222FD3AC0E6
:100E10003091D70230FD39C024FFF5CFEDCF2091BE
:100E2000D60223FFF0CF24FDE7CFCDCF2091D6020D
:100E300023FD2EC03091D70231FFEECF84EE90E03B
:100E400008952091D60225FFDECFC9CF2091D6028A
:100E500025FD21C02091D70223FFD5CF89E390E063
:100E6000D2CF2091D60226FFCECF8AE290E008951D
:100E70002091D60226FFC7CF81E390E0089583EE4C
:100E800090E0089582EE90E0089580EE90E008955D
:100E900086EE90E0089585E390E008951F93CF9348
:100EA000DF930E94AC06EC01C11580E5D807F0F590
:100EB000C11580E4D80708F09CC0C03ED10520F5DC
:100EC000CD3CD10508F082C0C83AD10578F4C53AC6
:100ED000D10508F073C0C130D10519F1209709F18F
:100EE000C430D105F0F4D0E0C0E01BC0C33CD10554
:100EF000D0F7C85AD0E0CC0FDD1FC75ADE4F09909B
:100F0000D881C02DD4640DC0C11580E2D80708F087
:100F1000D1C0C11581E0D80708F05AC0C83ED1053C
:100F200010F7CE01DF91CF911F910895C03682E571
:100F3000D80718F5C03482E5D80708F06BC0C03276
:100F400082E5D80708F05FC0C11582E5D80708F42C
:100F500097C02C2F2695269580E2289F900111247A
:100F60008C2F8370C1E0D0E002C0CC0FDD1F8A95CA
:100F7000E2F7C22BD32BDD68D4CFC03A82E5D80785
:100F800060F4C03882E5D80708F459C0CF71D0E0CA
:100F9000DC2FCC27C46FD06AC4CFC03C82E5D80711
:100FA00008F462C0C03E82E5D80708F09CCFDC2F71
:100FB000CC27CC27DF71C06FD06AB3CFC55AD0E041
:100FC000CA5ADE4FC881D0E0D064ABCFD065A9CF7C
:100FD0008D2F0E945D06182FCE0199270E94AC0626
:100FE000C12FD0E0DC2FCC27CC27DF71C82BD92B29
:100FF00098CFCE0199270E94AC06CC27DF70C82B72
:10100000D92BD06A8ECFCF71D0E0DC2FCC27C16F27
:10101000D06A87CF2C2F26952695277080E2289FAF
:10102000900111248C2F8370C1E0D0E002C0CC0F5E
:10103000DD1F8A95E2F7C22BD32BDC6872CF2C2FF1
:1010400026952695277080E2289F900111248C2FE9
:101050008370C1E0D0E002C0CC0FDD1F8A95E2F7BB
:10106000C22BD32BDA685DCF8C2F8F710E945D0667
:10107000C82FD0E0DC2FCC27CC27DF71D06251CF36
:101080008C2F8F710E945D0655E0D695C7955A95B5
:10109000E1F7CF70D0E0DC2FCC27282F30E084FFA1
:1010A00005C044E0220F331F4A95E1F7C22BD32B32
:1010B000D06937CF8D2F8F710E945D06182FCE011A
:1010C00099270E94AC06C12FD0E0DC2FCC27CC277B
:1010D000DF71C82BD92BD2CF80959091D90298235C
:1010E0009093D90208958091410390910803981339
:1010F00001C008958F5F8770FACFA82FA77023E0F3
:10110000969587952A95E1F7FC01EE0FFF1FE80FF2
:10111000F91FE60FF71F50E040E080E0219130E03A
:101120000A2E02C0369527950A94E2F721703327DC
:10113000042E01C0220F0A94EAF7822B4F5F5F4F03
:101140004330510559F70895292F9A3068F48730B4
:1011500090F490E06DEE71E037E0239F800D911DDB
:1011600011240E947D0808952C5F223020F46AEE3D
:1011700071E090E0F6CF80E00895262F277091E08F
:1011800001C0990F2A95EAF723E0769567952A958D
:10119000E1F7FB01EE0FFF1FE60FF71FE40FF51F4E
:1011A00050E040E0682F70E08191DF0111979B01D2
:1011B000042E02C0369527950A94E2F721702195F6
:1011C0002827292328272C934F5F5F4F4330510551
:1011D00059F70895282F862F9A3070F4273058F445
:1011E000622F70E027E0929F600D711D11244DEE7B
:1011F00051E00E94BD0808959C5F9230E0F7622F95
:1012000070E04AEE51E0F5CF80938402089590910A
:10121000840221E030E0F90101C0EE0F8A95EAF77F
:10122000D90102C0AA0FBB1F6A95E2F7EA2B01C0E1
:10123000220F4A95EAF7892F8E23E81305C0292B40
:10124000822F0E940409089520952923F9CF21E0D7
:1012500030E001C0220F8A95EAF720958091840240
:1012600082230E940409089590910F02809589239A
:1012700080930F02282F277069F4891759F09091F5
:10128000D70292FF07C08695869586950E9427090A
:1012900010920F02089521E030E001C0220F8A95DC
:1012A000EAF780918402822B0E94040908958093BA
:1012B000830208950F931F93CF93DF938B01EA016D
:1012C0009091FE02943061F58093E9008FEF909148
:1012D000E800815095FD06C095ED9A95F1F7000064
:1012E0008111F5CF8091E80085FF1AC00E94640348
:1012F000811111C08091E80085FD06C08091E80051
:101300008E778093E800F2CFF80181918F0180936E
:10131000F100219779F78091E8008E778093E800BB
:10132000DF91CF911F910F91089543E050E0BC01F0
:1013300084E00E945A09089546E050E0BC0184E030
:101340000E945A090895CF93DF93EC0180915501D3
:10135000811111C048E050E0BE0181E00E945A09AD
:1013600080E2FE01ACEDB2E001900D928A95E1F7CA
:10137000DF91CF9108958091D60287FF05C040E2AA
:1013800084E050E0BE01EACF48E081E0FACF869ADF
:1013900027E030E090E08F98AC01022E02C0559516
:1013A00047950A94E2F740FF0EC08E9A4AE04A95AC
:1013B000F1F700C08F9A2150310968F785E18A95CD
:1013C000F1F7000008958E98F1CFCF93C1E08D37EB
:1013D000910550F0CDE0863D26E0920728F46DE7B8
:1013E00070E00E94E529C62F0E94D60589E90E9477
:1013F000C7098C2F80610E94C7090E94D405CF9134
:10140000089586988E9898E080E08F9825E02A9538
:10141000F1F700002FB126FB222720F9880F822B3D
:101420008F9A25E02A95F1F70000915071F7089501
:10143000CF930E94D60589E10E94C7090E94010A44
:10144000C82F25E02A95F1F700000E94D405C0714D
:101450002DE7C29FC0011124CF910895CF93DF9350
:101460000E94D60583E60E94C7090E94010AD82F70
:101470000E94010AC82F0E94D4058D2FD7FD8068D5
:101480009C2FC7FD9068DF91CF910895ACE0B0E04C
:10149000ECE4FAE00C94BC294F8358878B879C8737
:1014A000162F072F0E942E0A811104C0911102C02D
:1014B000902F812F89879A8786E0FE013796DE017B
:1014C000119601900D928A95E1F729813A814B811D
:1014D0005C816D817E8180E090E02C96E4E00C944C
:1014E000D829879A869A219A0E94D6058AEB0E946B
:1014F000C7098AE50E94C7090E94D4052FE78FEA31
:1015000092E0215080409040E1F700C000000E942E
:101510002E0A0895B0E0A0E0E0E9FAE00C94B629C4
:101520007C015B016A018091700201E010E08A3069
:1015300010F40AE010E0C1E0D0E0B501C701F60107
:101540000995811104C021960C171D072CF4CDB705
:10155000DEB7EAE00C94D229CC9F9001CD9F300DEC
:10156000300D112490E080E045E34A95F1F700004A
:10157000019682179307C1F7E0CF80914302811152
:1015800010C08091D80080618093D8008AE18A954C
:10159000F1F700C08091D90080FF0AC081E08093FC
:1015A000430281E090914302913009F080E0089578
:1015B00082E0809343020E9445031092FE02F1CF25
:1015C0000E94BD0A882359F0E091CD02F091CE022D
:1015D000309729F00190F081E02D0995089580E081
:1015E0000895CF93DF93EC010E94BD0A882331F068
:1015F000CE010E94E509DF91CF910895D093CA02F0
:10160000C093C902F8CF0F931F930E94BD0A88238D
:1016100029F00E94C2041F910F9108950E94C204F4
:101620000091710210917202209173023091740244
:10163000600F711F821F931FEECF0E94030B08954E
:10164000CF93DF93CDE0D3E060E0CE010E94382A53
:101650002196C11584E0D807B9F7DF91CF9108959D
:101660000F931F93CF93DF93142F022F853020F514
:10167000623010F598E0899FE001112484E0689FB2
:10168000B0011124C60FD71FCB51DD4F82E090E08F
:10169000442311F090E080E0632F8C0F9D1F0E9487
:1016A000382A83E090E0112311F081E090E0602F70
:1016B0008C0F9D1F0E94382ADF91CF911F910F91AF
:1016C00008951F93CF93DF93122F8530E0F46A3093
:1016D000D0F44730C0F4C42FD0E0CC0FDD1F9EE023
:1016E000699FC00DD11D11249CE8899FC00DD11D9B
:1016F0001124632FCE0189960E94382A612FCE01D2
:101700008A960E94382ADF91CF911F9108958F9277
:101710009F92AF92BF92DF92EF92FF920F931F932F
:10172000CF93DF9302E515E086E9E82E82E0F82EFC
:10173000C0E05701D0E015C0F401259134914D2D42
:101740006D2F8C2F0E94610B82E0880E911CD39428
:1017500087E0D812F1CF8EE0A80EB11CDF5FDA303F
:1017600019F04501D12CE8CFF8012591349141E0E1
:1017700060E08C2F0E94300BF80132962591349155
:1017800040E060E08C2F0E94300BF80134962591E8
:10179000349141E061E08C2F0E94300BF8013696C5
:1017A0002591349140E061E08C2F0E94300B085F5E
:1017B0001F4FCF5F8CE8E80EF11CC53009F0B9CFA0
:1017C000DF91CF911F910F91FF90EF90DF90BF902D
:1017D000AF909F908F900895CF93C82F6FEF811196
:1017E00065E285E290E00E94382AC1110DC0CFEF7A
:1017F0006C2F86E290E00E94382A6C2F87E290E0FE
:101800000E94382ACF910895C4E0F2CF80E00E9470
:10181000EC0B60E088E290E00E94382A0E94870B7F
:101820000E94200B81E00E94EC0B0895FF920F9321
:101830001F93CF93DF93F42E853070F5623060F5FF
:1018400028E0829F8001112434E0639FB0011124BD
:10185000060F171F0B511D4F82E090E0442311F03B
:1018600090E080E0800F911F0E941A2AC82FD0E0DC
:10187000DC2FCC2783E090E0FF2011F081E090E0A6
:10188000800F911F0E941A2A9E01282BC901CDB7F3
:10189000DEB7E5E00C94D72990E080E0F8CF0F9315
:1018A0001F93CF93DF93853030F56A3020F54730B2
:1018B00010F5C42FD0E0CC0FDD1F2EE0629FC00DCD
:1018C000D11D11243CE8839FC00DD11D1124CE01F0
:1018D00089960E941A2A082F10E0102F0027CE01A7
:1018E0008A960E941A2A9801282BC901DF91CF916C
:1018F0001F910F91089590E080E0F8CF7A3048F47E
:10190000673070F4853060F4462F672F0E944F0CCB
:1019100008957D3F41F4623018F441E0853050F085
:1019200090E080E008957C3FD9F76230C8F78530B9
:10193000B8F740E00E94160C0895CF92DF92FF9214
:101940000F931F93CF93DF936C01009184028091DA
:101950008302082BC4E0D0E010E0FC2EC8010C2E5E
:1019600002C0959587950A94E2F780FD0CC02197F7
:10197000A0F7F12C8F2DDF91CF911F910F91FF9048
:10198000DF90CF900895B6018C2F0E947E0C0E94AC
:101990004E07019761F3EECFCF93DF93EC010E94E6
:1019A0009D0CBE010E947E0C0E944E07DF91CF91DC
:1019B0000895FC0124812223C1F0808191810E943D
:1019C000CC0C92959F70963091F058F4925F9F7076
:1019D000923058F4803F19F030F4883E30F481E0C2
:1019E00008959A5FF4CF843FD1F380E00895883E54
:1019F000B0F3813FD1F7F3CFA6E0B0E0E2E0FDE045
:101A00000C94BD2949835A8349815A819923A1F0B5
:101A1000222391F0CA010E949D0C182F682F898102
:101A20009A810E94EA0869817A81812F0E947E0C46
:101A30002696E3E00C94D929CA010E94A408182F25
:101A4000F2CF85E290E00E941A2A853289F486E27C
:101A500090E00E941A2A843059F487E290E00E94B4
:101A60001A2A91E0843009F090E0892F817008955E
:101A700080E0FCCFCF936AEA72E08FEB92E00E94A5
:101A8000DA04C82F882321F08FEB92E00E94B00582
:101A90009091C00286E0EFEBF2E0DF01282F1D926B
:101AA0002A95E9F79093C002AAEAB2E001900D925C
:101AB0008A95E1F781E0C11103C0911101C080E076
:101AC0008170CF9108952F923F924F925F926F92C3
:101AD0007F928F929F92AF92BF92CF92DF92EF92BE
:101AE000FF92CF93DF93CDB7DEB7A6970FB6F894EA
:101AF000DEBF0FBECDBF0E94BD0A811118C080E0BD
:101B0000A6960FB6F894DEBF0FBECDBFDF91CF9182
:101B1000FF90EF90DF90CF90BF90AF909F908F900D
:101B20007F906F905F904F903F902F9008954091DD
:101B3000C5025091C6026091C7027091C8022FB7CA
:101B4000F8948091D2029091D302A091D402B091E6
:101B5000D5022FBF481759076A077B0781F20E94F9
:101B6000C2046093C5027093C6028093C70290932B
:101B7000C8020E94BD0A882309F4C1C04091BF0277
:101B80005091C0026091C1027091C2028091C30263
:101B90009091C4020E94460A2093BF023093C00273
:101BA0004093C1025093C2026093C3027093C40277
:101BB00086E0EFEBF2E0DE01179601900D928A9538
:101BC000E1F786E0FE013796DE011D9601900D9249
:101BD0008A95E1F786E0FE013D96DE0111960190BF
:101BE0000D928A95E1F786E0FE013196AFEBB2E007
:101BF00001900D928A95E1F786E0EFEBF2E0DE01CD
:101C0000599601900D928A95E1F786E0FE0179964A
:101C1000DE01179601900D928A95E1F7BB8CCC8C72
:101C20008091B1020C2C000CDD08EE08FF0888231F
:101C300009F46FC06B2DBB0C770B880B990B0E94BE
:101C40001B2B4B015C01C701B6010E941B2B2B0112
:101C50003C01AC019B01C501B4010E946C2A905863
:101C60000E94E32AF62EA3019201C501B4010E944D
:101C70006D2A0E94E32A862F60E0712C79866A879C
:101C80008B87FC8686E0FE013796DE011196019077
:101C90000D928A95E1F786E0FE013196DE015396BA
:101CA00001900D928A95E1F786E0FE017396DE01C0
:101CB000179601900D928A95E1F786E0FE0137961E
:101CC000AFEBB2E001900D928A95E1F786E0E2EB8E
:101CD000F2E0DE01179601900D928A95E1F780916E
:101CE000C0029885892B8093C0020E943A0D811111
:101CF0008DC08091B80281701092B80201CF86E049
:101D0000E9EBF2E0AFEBB2E001900D928A95E1F7DA
:101D10004FCFC701B6010E941B2B6B017C01809144
:101D2000B0028823E9F06B2DBB0C770B880B990B65
:101D30000E941B2B4B015C01A70196010E946C2A9B
:101D400090580E94E32A762EA7019601C501B4019E
:101D50000E946D2A90580E94E32AF12C80E08ECFD9
:101D60008B2D992781950CF49095BC01072E000CC2
:101D7000880B990B0E941B2B4B015C012090510199
:101D800030905201409053015090540180914D0188
:101D900090914E01A0914F01B09150018F8F98A367
:101DA000A9A3BAA3A2019101C501B4010E940F2CFD
:101DB0006BA37CA38DA39EA3A70196016F8D78A131
:101DC00089A19AA10E940F2C9B01AC016BA17CA15F
:101DD0008DA19EA10E946D2A0E94E32A762E2F8D4E
:101DE00038A149A15AA1C501B4010E940F2C4B0191
:101DF0005C01A7019601C201B1010E940F2C9B0159
:101E0000AC01C501B4010E946C2AA5CF81E090E02D
:101E100072CF662309F472C08D3C41F40E9416060D
:101E200081958093B5020E94D80508958E3C19F4DF
:101E30000E941606F6CF8F3C31F40E94160681955B
:101E40008093B402F0CF803D19F40E941606F8CFBB
:101E5000893D29F40E94F4058093B602E4CF8A3DBF
:101E600021F40E94F4058195F7CF8B3D31F40E9457
:101E7000F40581958093B702D6CF8C3D19F40E946A
:101E8000F405F8CF9FE2980F983020F5282F215DB8
:101E9000330BA90121E030E001C0220F4A95EAF797
:101EA0009091B302922B9093B302815D21E030E0D8
:101EB000A90102C0440F551F8A95E2F7CA0120917B
:101EC000C002662309F493C0822B8093C0020E9453
:101ED0003A0D08958D3D31F48091A5028160809383
:101EE000A502A1CF8E3D21F48091A5028260F7CF9B
:101EF0008F3D19F58091A5028460F1CF9091B402D5
:101F00008D3C59F42091B50227FF0DC01092B50207
:101F100091110BC01092A30208C08E3CB1F4209125
:101F2000B50212169CF39923B1F09091B60220915C
:101F3000B702922B11F41092A402482F415D550B69
:101F40004830510508F4B1CF6ECF8F3C39F497FF7C
:101F5000EACF1092B4029091B502DACF803D19F425
:101F60001916BCF3E0CF2091B602893D29F4121670
:101F7000D4F61092B602D7CF8A3D19F427FFD3CFFB
:101F8000F8CF2091B7028B3D29F427FFCCCF1092D8
:101F9000B702C9CF8C3D19F41216CCF3C4CF2FE28F
:101FA000280F283088F4282F215D330BA90121E068
:101FB00030E001C0220F4A95EAF720953091B30234
:101FC00023232093B302AFCF2091A5022E7F8D3D16
:101FD00059F02091A5022D7F8E3D31F08F3D09F003
:101FE000A2CF2091A5022B7F2093A5029CCF8095A4
:101FF00082236BCF9091D70292FB222720F92817DA
:1020000079F080FB92F99093D7026091D60270919B
:10201000D70284E090E00E94562A82E00E943409B0
:102020000895A4E0B0E0E7E1F0E10C94BD2940910F
:1020300051025091520260915302709154022FB795
:10204000F8948091D2029091D302A091D402B091E1
:10205000D5022FBF841B950BA60BB70B11E084365E
:102060009105A105B10570F10E94030B6E5F7F4FD2
:102070008F4F9F4F69837A838B839C838091250147
:10208000909126018B5A9D4F4091240150E045309C
:10209000510510F044E050E0BE016F5F7F4F0E9499
:1020A000DA2C84E090E00E943829182F882351F020
:1020B0000E94C204609351027093520280935302B3
:1020C00090935402812F2496E3E00C94D9294F92E7
:1020D0005F927F928F929F92AF92BF92CF92DF9248
:1020E000EF92FF920F931F93CF93DF930F92CDB791
:1020F000DEB7C62E4A015901482E880F5508C20185
:102100000E943829782E882309F480C0C20133E068
:10211000880F991F3A95E1F7FC01EC5FFE4F438170
:1021200050E04115510511F041E050E08C5F9E4FA9
:10213000FC01648175816B5A7D4FCE0101960E942E
:10214000DA2CF40140815181628173812FB7F894B8
:102150008091D2029091D302A091D402B091D50285
:102160002FBF841B950BA60BB70B84369105A105D9
:10217000B10540F4B701C8010E94BE0599818917D5
:1021800009F444C00C2C000CDD08C6010E9438295B
:10219000782E811113C0712C872D0F90DF91CF9174
:1021A0001F910F91FF90EF90DF90CF90BF90AF9075
:1021B0009F908F907F905F904F900895C60123E08D
:1021C000880F991F2A95E1F7FC01EC5FFE4F4381D0
:1021D00050E0E416F50608F4A7018C5F9E4FFC0161
:1021E000648175816B5A7D4FC5010E94DA2CB7015D
:1021F000C8010E94BE0599818913CDCF0E94C204F7
:10220000F4016083718382839383C6CFA701B801F1
:10221000C5010E94DA2CC0CFACE0B0E0E2E1F1E110
:102220000C94BA290E94BD0A811150C086E0E82EA4
:10223000F12C02E612E09E01295F3F4F4CE652E08E
:1022400066E085E00E946710882391F096E0FE0129
:102250003796DE01119601900D929A95E1F796E07E
:10226000FE013196A9EBB2E001900D929A95E1F74B
:102270000091C9021091CA020115110539F120918E
:102280006A0230916B022017310701F11093690245
:102290000093680280913D0190913E018B5A9D4FC1
:1022A00040913C0150E04330510510F042E050E0D5
:1022B00068E672E00E94DA2C87E090E00E943829FC
:1022C000882321F010936B0200936A022C96E6E0BB
:1022D0000C94D629A5E0B0E0E0E7F1E10C94B82930
:1022E0006B0185E0E82EF12C06E512E09E012F5FE0
:1022F0003F4F49E452E061E080E00E94671088238C
:1023000049F095E0FE013196A4E4B2E001900D920F
:102310009A95E1F795E0E4E4F2E0D60101900D92A0
:102320009A95E1F72596E8E00C94D429A9E1B0E06C
:10233000ECE9F1E10C94B3298E010F5F1F4F8AE0A5
:10234000D8011D928A95E9F781E9C82E81E0D82E3F
:10235000F12CE12CAA24A394B12C2DE9822E21E0AA
:10236000922EF60181916F018F3F09F442C0F894DB
:10237000E82FE295EF70F0E021A18F70A50102C077
:10238000440F551F8A95E2F7CA01922F982B91A30B
:1023900092A18095892382A3789400C0E6E9F1E0B8
:1023A000712C31E021912F3F09F46BC0A22FA2952F
:1023B000AF70B0E090968C9190E02F7002C0959530
:1023C00087952A95E2F780FD5CC0832F782A330F2A
:1023D0008E169F0639F7F601319780818F3F11F0F5
:1023E0000E94460650EA5A95F1F7F801EE0DFF1DDE
:1023F00070828FEFE81AF80A95E0E916F10409F007
:10240000B0CF4AE050E0B80187E792E00E94CD2CBF
:10241000009741F02AE0F801A7E7B2E001900D92A1
:102420002A95E1F700918202892B69F181E080937E
:1024300036020E94CE04909335028093340280913C
:102440003402909135020E94B304059700F110E028
:1024500007561D4F45E050E067E772E0C8010E9453
:10246000CD2CD12C892B51F085E0E7E7F2E0D801A3
:1024700001900D928A95E1F7DD24D39410923602F3
:1024800007C080E0A3CF809136028111D8CFD12C34
:102490000E94BD0AC82EE0918202DE011B967D01DA
:1024A000882309F4AEC085E01D928A95E9F70E2FC6
:1024B00010E007561D4F809170028A3008F05CC012
:1024C0004AE651E1B701C8010E948A0A882309F44B
:1024D00075C042E151E2B701C8010E948A0A88230F
:1024E00009F46CC041E150E1B701C8010E948A0AB9
:1024F000882309F463C04CE051E1B701C8010E9490
:102500008A0A882309F45AC01092700280918102CD
:1025100090E045E050E0B70187569D4F0E94CD2CDA
:1025200021E020934202892BE1F5C12C8091B10278
:10253000811155C08091B002817090913902891744
:10254000A9F080933902882309F44CC08FE19EE4FE
:102550000197F1F700C000008DE790E00E94F10ABA
:10256000AFE1BEE41197F1F700C000008C2D8D297A
:102570006996EDE00C94CF29809137029091380252
:102580000E94B304843F914008F09ACF80914202A8
:10259000882359F285E0F70111928A95E9F71092A4
:1025A0004202A0918102B0E0A756BD4F85E0FE0136
:1025B0003B9601900D928A95E1F7B8CF8091700219
:1025C0008F3F31F08F5F809370028A3008F49ECF86
:1025D0000E94CE049093380280933702D7CF81E0D7
:1025E00090E0AACFEFE9FFE03197F1F700C00000DB
:1025F0008FEC93E00E94F10A8FE99FE00197F1F7D9
:10260000B3CFF0E0E756FD4F85E0A6E5B2E00190DC
:102610000D928A95E1F765E070E086E592E00E9410
:10262000BE05809355024091950250E0609194025E
:1026300070E060577D4FC7010E94DA2C8B85809334
:102640005C0261E070E0C7010E94BE0580935B02FE
:1026500080905D0290905E02A0905F02B090600258
:1026600080913E0290913F02A0914002B0914102C0
:1026700088169906AA06BB06D1F080923E02909277
:102680003F02A0924002B09241020E94BD0A811115
:102690000EC00E94C204861A970AA80AB90A80923C
:1026A000710290927202A0927302B09274020E9420
:1026B000BD0A882309F45ACF40913A0250913B0257
:1026C00060913C0270913D022FB7F8948091D20244
:1026D0009091D302A091D402B091D5022FBF481798
:1026E00059076A077B0709F441CF0E94C20460932F
:1026F0003A0270933B0280933C0290933D020E9409
:10270000180A9C0199E0E1E6F2E0DE011B960190D7
:102710000D929A95E1F78A899B89009729F02817ED
:10272000390711F00E94E509FE01749686E0DF0189
:102730001D928A95E9F74C895D896E897F89888D1C
:10274000998D0E94460A2C873D874E875F87688B4C
:10275000798B66E070E0CE010C960E94BE058B87F7
:1027600089E0F701A1E6B2E001900D928A95E1F7C8
:10277000FDCE8091D90290913102892B8093BE01C8
:10278000909130029923A1F0892B8093BE01809112
:1027900055018823E1F18091D60287FF38C08EE190
:1027A000E0ECF1E090E08150A0F591111092300240
:1027B00040E250E060E172E08EEB91E00E94CD2CAF
:1027C000892B21F180E2EEEBF1E0A0E1B2E0019093
:1027D0000D928A95E1F7E091CD02F091CE0230970B
:1027E000A9F080915501882359F08091D60287FF86
:1027F00007C08091BE018093BF0186E08093BE0137
:102800000280F381E02D8EEB91E00995089586E03A
:10281000C7CF2191222339F29F5FC5CF8091550107
:10282000E0ECF1E0882329F18091D60287FF21C0F6
:102830008EE1DF011D928A95E9F790E080E00E9429
:102840008B0590E080E00E946605109231020E94A4
:10285000B91386E0E2EBF2E0DF011D928A95E9F719
:102860001092A3021092A4021092A5020E94D80511
:10287000089586E0DECFAAE2B0E0E1E4F4E10C9452
:10288000BD2980E093E02091F100DC012D93CD0182
:10289000B3E088309B07B9F780910103833009F4D6
:1028A00072C0B8F4813009F449C0823009F4B5C06F
:1028B0008091E80083FF8DC2809100039091010315
:1028C0009A3008F086C2E92FF0E0EB51F34D0C94FA
:1028D0000D2A8A3009F490C08B3009F471C0893018
:1028E00039F780910003813219F7809104039091A8
:1028F0000503009711F00297D9F68091E800877FD1
:102900008093E8008091E80082FF38C09091F30046
:102910008091F200029731F48091F100813011F042
:10292000863021F48091F1008093DB028091E800F1
:102930008B778093E8000E949503BACF80910003C3
:10294000813A09F0B5CF8091E800877F8093E80055
:102950008091040390910503892B61F460E28CED72
:1029600092E070E00E9441048091E8008B778093B0
:10297000E8009ECF60E090E080E0F3CF8091FE021F
:102980008111C0CF95CF80910003813A09F090CF9B
:102990008091040390910503892B09F089CF8091E0
:1029A000E800877F8093E8008091E80080FFFCCFFB
:1029B000809155018093F1008091E8008E77B9CF26
:1029C00080910003813209F073CF809104039091CC
:1029D0000503892B09F06CCF8091E800877F8093F5
:1029E000E8000E94950380910203809355011092A4
:1029F000D9020E940E145CCF80910003813209F04D
:102A000057CF8091E800877F8093E8000E9495036C
:102A1000809103038093DA024BCF80910003813AC7
:102A200009F046CF8091E800877F8093E80080918D
:102A3000E80080FFFCCF8091DA02BCCF803899F0AB
:102A4000823809F0C6C1809104038F70873008F086
:102A5000C0C18093E9008091EB0085FB882780F955
:102A60001092E90006C08091FC029091FD02911144
:102A700082609091E800977F9093E8008093F10046
:102A80001092F1008091E8008E779FC1882309F4AD
:102A90008DC1823009F09DC180910203811190C1E6
:102AA000809104038F702FEF280F263008F091C11A
:102AB0008093E9002091EB0020FF82C1933031F434
:102AC0008091EB0080628093EB007AC19091EB00E3
:102AD00090619093EB0021E030E001C0220F8A95D5
:102AE000EAF72093EA001092EA008091EB008860F8
:102AF000EACF81116EC1109102031F778091E3002C
:102B00008078812B8093E3008091E800877F809319
:102B1000E8000E9495038091E80080FFFCCF80913F
:102B2000E30080688093E30082E0111183E08093EA
:102B3000FE024FC18058823008F04BC12091020341
:102B4000309103032C3DE3E03E07A1F583E08A8347
:102B50008AE289834FB7F894DE01139620E03EE0C5
:102B600051E2E32FF0E050935700E49120FF03C0BF
:102B7000E295EF703F5FEF708E2F90E0EA30C0F08B
:102B8000C7968D939D932F5F243159F74FBF809146
:102B9000E800877F8093E8006AE270E0CE0101964A
:102BA0000E9441048091E8008B778093E80011C176
:102BB000C096E7CF8091040390910503432F5527DA
:102BC0004330510509F44AC078F54130510509F404
:102BD0007AC08BE590E0EAE7F5E04230510509F074
:102BE000F8C02091E800277F2093E8002091060399
:102BF000309107038217930708F49C0140E02115E8
:102C0000310509F065C0411163C08091E80082FD83
:102C1000C9CF8091FE02882329F2853019F2809174
:102C2000E80083FFF2CFBECF4132510509F43CC02A
:102C30004232510509F0CDC08330910508F0C9C07A
:102C4000FC01EE0FFF1FE055FE4F0190F081E02DDB
:102C500083559E4FDC018C9190E01AC033272130C0
:102C60003105D1F02115310561F02230310509F02F
:102C7000B0C0E7EEF5E0E4918E2F90E0E7EEF5E0EE
:102C800007C0E9E0F6E0E4918E2F90E0E9E0F6E09D
:102C9000009709F49EC0A5CFE7EFF5E0E4918E2FF1
:102CA00090E0E7EFF5E0F4CF8330910508F091C0B4
:102CB000880F991FFC01EA54FE4F0190F081E02D2E
:102CC00089E090E08ECF82E190E0E5EDF5E089CFFC
:102CD0008091FE02882309F465CF853009F462CF24
:102CE0008091E80083FD5ECF8091E80082FD8DCF6A
:102CF0008091E80080FF83CF9091F3008091F200F3
:102D00002115310519F08830910550F041E0089700
:102D100009F040E08091E8008E778093E8006FCF63
:102D200044914093F1003196215031090196E8CF4A
:102D3000803809F04EC08091E800877F8093E800DA
:102D40008091FF028093F1009DCE811142C01091CD
:102D500002031230F0F58091E800877F8093E8004D
:102D60001093FF020E949503112311F084E005C027
:102D70008091E30087FDFACF81E08093FE0242E07C
:102D800061EC81E00E94B40342E261EC84E00E94C5
:102D9000B40342E261EC82E00E94B40342E260ECE0
:102DA00083E00E94B4038091FE0213C0809102036D
:102DB000813079F481E0933009F080E08093FD0266
:102DC0001092E9008091E800877F8093E8000E94DC
:102DD00095038091E80083FF0AC08091E800877F17
:102DE0008093E8008091EB0080628093EB00AA96CC
:102DF000E3E00C94D9291092D9020E940E142FEF0F
:102E000084E39CE0215080409040E1F700C0000046
:102E100088E19AE00FB6F894A895809360000FBE01
:102E200090936000FFCF882321F00E946C080E94DD
:102E3000B9130895882339F09091D902982B909373
:102E4000D9020E94B9130895882399F19CEF980F35
:102E5000913A40F4682F8EEB91E00E9407050E94A2
:102E6000B913089590E2980F983050F4877091E06C
:102E700001C0990F8A95EAF7892F0E946C08EFCF5D
:102E80009BE5980F933028F490E080E00E948B053A
:102E9000089598E5980F9B3128F490E080E00E9417
:102EA0006605089593E3980F933118F460E00E944B
:102EB000090F0895CF93C82F8823D9F18CEF8C0F79
:102EC000813AC8F580915501882311F18091D6028D
:102ED00087FF1EC0EC2FE695E695E695F0E0E254FC
:102EE000FE4F828190E04C2F477021E030E002C01D
:102EF000220F331F4A95E2F782239323892B91F007
:102F00006C2F8EEB91E00E9407050E94B9130AC056
:102F1000E0ECF1E086EC91E02191C21789F38E1785
:102F20009F07D1F76C2F8EEB91E00E9431050E9434
:102F3000B913CF91089580E28C0F883068F4C77080
:102F400021E030E001C0220FCA95EAF78091D90252
:102F5000822B8093D902EBCFEBE5EC0FE33040F40A
:102F6000F0E0EA5AFE4F808190E00E948B05E1CFAD
:102F7000E8E5EC0FEB3150F4F0E0EE0FFF1FE75AFD
:102F8000FE4F808191810E946605D3CF83E38C0F31
:102F9000833178F661E08C2F0E94090FCACF1F930E
:102FA000CF93DF93182FEB010E945A17209739F423
:102FB000812F0E942417DF91CF911F9108958FE9EF
:102FC0009FE00197F1F700C000002197EFCFA8E044
:102FD000B0E0EDEEF7E10C94B0298C01DC01149621
:102FE0008C911497882309F4BEC021E04C9111966E
:102FF0005C91119712966C91129713967C9113978E
:1030000015969C910E94FC0C7C01F8018581882317
:1030100009F44BC1970137572038310508F060C6D5
:10302000FFE0FE1508F48FC08FEF93E00E941A2A8C
:10303000811189C06DE0A62E63E0B62EE1104DC06F
:10304000FE01339686E0DF011D928A95E9F75AE08A
:10305000452E7501BFEFEB1AFB0AC5010E941A2A23
:1030600089831A82882309F46EC0813009F07FC0F9
:103070006501E2E0CE0ED11CC7010E941A2A8A83A4
:10308000882309F460C09FEF980F9330A0F5F3E018
:10309000AF0EB11CC6010E941A2A8B83882309F443
:1030A00052C01C82DE0111967D01F701208122238E
:1030B00081F2213009F09BC091818281913009F029
:1030C00058C0F2E0EF0EF11C70E060E0893311F4BB
:1030D00060E570E00E94CF1753C0A11424E0B2064F
:1030E00091F1C5010E941A2A811101C0EA943FEFB3
:1030F000A31AB30AA3CF56018430A1F642E0E42E0E
:10310000F12C56012FEFA21AB20AC6010E941A2A08
:10311000E1E0F0E0EC0FFD1FEE0DFF1D8083882342
:1031200091F08C3741F4E2E0F0E0EC0FFD1FEE0D82
:10313000FF1D1082B7CF3FEFE31AF30A650187E066
:10314000E816F104F1F680910F02877061F0D80162
:1031500015968C91882339F08091D70282FF03C0A5
:1031600082E00E9434092896E0E10C94CC295701B2
:1031700099CF923049F422E0E20EF11C0E945A17D6
:10318000FFEFEF1AFF0A91CF933031F432E0E30EF4
:10319000F11C0E942417F4CF943021F08FEFE81A2D
:1031A000F80AEECF92E0E90EF11C30E020E0B70122
:1031B0006F5F7F4FD70111964C918053990B8A30E6
:1031C000910550F021503109D8F2EFE9FFE0319735
:1031D000F1F700C00000F6CF429EF001439EF00DD3
:1031E00011249C012E0F3F1F842F7B01E0CFE22F83
:1031F000F0E0EA5EFD4F5490822F86958695869585
:1032000090E0FC01EA5FFD4F64902770712C022E64
:1032100002C0759467940A94E2F731E06322772440
:10322000FC01EA50FE4F8490912C022E02C095942E
:1032300087940A94E2F7A1E08A229924FC01EA51DA
:10324000FE4FC490D12C02C0D594C7942A95E2F7C2
:10325000B1E0CB22DD246114710419F081EE0E94EB
:103260005A178114910419F086EE0E945A17E9E367
:1032700070E060E05E1202C060E570E0852D0E94A3
:10328000CF178114910419F086EE0E94241761145F
:10329000710419F081EE0E942417C114D10409F4BD
:1032A0006FCF70E060E08CE215CFF701E154FE478C
:1032B000EF30F10508F023C2E151F34D0C940D2AD3
:1032C000882389F081E08093E7018093B102D801DF
:1032D00012968D919C919093E6018093E50181E097
:1032E0000E944B0930CF1092B10281E00E94270961
:1032F0008091E701882391F0F801828193812091E8
:10330000E5013091E601821B930B883C910530F476
:103310008AE80E945A178AE80E9424178FEC93E0EB
:103320000E94F10A1092E7010ECF882379F081E024
:103330008093E4018093B002D80112968D919C9104
:103340009093E3018093E20182E0CACF1092B00231
:1033500082E00E9427098091E401882391F0F8011E
:10336000828193812091E2013091E301821B930BD2
:10337000883C910530F48BE80E945A178BE80E9434
:1033800024178FEC93E00E94F10A1092E401DBCE47
:10339000882379F081E08093E4018093B102D80121
:1033A00012968D919C919093E3018093E20183E0CA
:1033B00097CF1092B10283E00E9427098091E40127
:1033C0008823F9F2F801828193812091E201309102
:1033D000E301821B930B883C910598F689E20E94D9
:1033E0005A1789E2CCCF882379F081E08093E401F9
:1033F0008093B002D80112968D919C919093E30135
:103400008093E20184E06CCF1092B00284E00E94CD
:1034100027098091E401882309F4B3CFF801828160
:1034200093812091E2013091E301821B930B883C50
:10343000910508F0A6CF8BE20E945A178BE29FCF2E
:10344000882309F480CE8BE80E945A178BE80E94EB
:10345000241781EE0E945A1784E20E945A1784E2D0
:103460000E94241784E20E945A1784E20E942417C3
:1034700081EE0E94241780E50E945A1780E50E9481
:10348000241761CE882309F45ECE8BE80E945A1778
:103490008BE80E94241781EE0E945A1785E20E9451
:1034A0005A1785E20E94241786E20E945A1786E284
:1034B000DDCF882309F447CE8BE80E945A178BE8AA
:1034C0000E94241781EE0E945A1780E20E945A1728
:1034D00080E20E94241781EED2CF882309F433CEF4
:1034E0008BE80E945A178BE80E94241781EE0E94F5
:1034F0005A1786E30E945A1786E30E94241781EE2A
:103500000E94241785E00E945A1785E00E94241724
:1035100085E10E945A1785E10E94241781EE0E94DE
:103520005A1787E30E945A1787E3D3CF882309F4F9
:103530000ACE8BE80E945A178BE80E94241781EE6E
:103540000E945A1784E30E945A1784E3C2CF88234B
:1035500009F4F9CD809102019091030183589F4FA6
:103560008036F5E09F0768F4909301018093000195
:1035700080910001909101019093030180930201D9
:10358000E2CD8FE595E0F0CF882309F4DCCD809182
:103590000201909103018D5791098D37910520F714
:1035A0008DE790E0E1CF882309F4CDCD8FEC93E057
:1035B000E3CF882309F4C7CD20E030E040E450E4B5
:1035C0006091DE017091DF018091E0019091E10155
:1035D0000E946D2A6B017C0120E030E044EB53E453
:1035E0000E940A2C18164CF0C092DE01D092DF0126
:1035F000E092E001F092E10108C01092DE01109229
:10360000DF011092E0011092E10125E33AEF4EE86C
:103610005CE36091DE017091DF018091E0019091A7
:10362000E1010E940F2C6B017C010E94DE2A609355
:103630005101709352018093530190935401C7013B
:10364000B6010E947C2C60934D0170934E018093D3
:103650004F019093500177CD882309F474CD20E079
:1036600030E040E450E46091DE017091DF01809130
:10367000E0019091E1010E946C2A6B017C0120E045
:1036800030E0A9010E94D92A87FFAECF80E090E008
:10369000A4EBB3E48093DE019093DF01A093E001FB
:1036A000B093E101B2CF882309F44DCD1092DE0131
:1036B0001092DF011092E0011092E10180E090E0B1
:1036C000A0E8BFE38093510190935201A09353016E
:1036D000B093540180934D0190934E01A0934F01FC
:1036E000B093500130CD1092B1021092B0021092FE
:1036F000E7011092E4018FEC93E00E94F10A8FEC55
:1037000093E00E94F10AD80115968C91B6E1EB1670
:10371000BCE7FB06F1F4882391F08091D9028A7A04
:1037200091E009F490E09093E80169E2811165E38A
:103730008EEB91E00E9431050E94B91304CD809177
:10374000E80169E2811165E38EEB91E00E940705D3
:10375000F3CFE7E7EE16ECE7FE0609F46CC0F8E7F6
:10376000EF16FCE7FF0609F475C0882399F023E003
:10377000E2162CE7F20609F494C008F071C0E114D7
:103780008CE7F80609F47EC091E0E9169CE7F9069B
:1037900009F48DC0F8018581E080F180882309F467
:1037A00094C0C7010E949D0CD82E682FC7010E94AB
:1037B000EA08B7018D2D0E947E0C0E944E077C0105
:1037C000882ED8011596AC90159716969C909294D9
:1037D0003FE0932280910F028770F1F0CA2CAA205B
:1037E000E1F08F2D807F803451F080E28E0D8830A3
:1037F00098F0911004C08F2D807E803269F0809106
:10380000D70282FF09C082E00E94340980910F0232
:103810008770CC24C3948111C12CBF2CB2942FE0AB
:10382000B222BBE0BB1508F4B8C0EB2DF0E0E250CB
:10383000F34D0C940D2A882349F081E00E944B0936
:1038400043E062E081E00E9407097DCC81E00E94B4
:103850002709F6CF882311F082E0F0CF82E0F7CF7E
:10386000ABE5EA16ACE7FA0671F1BCE5EB16BCE78E
:10387000FB06F9F0EAE5EE16ECE7FE0609F08ACF62
:1038800081E01EC01092D9020E940E14FFEF24E3C3
:103890003CE0F15020403040E1F700C000000E94C1
:1038A000A2046FEF7FEF90E080E00E94562A0E9412
:1038B000FB168091D70282FB882780F991E0892747
:1038C0000E94FA0F67CF80E0FBCFC7010E94A408D7
:1038D000D82E6FCFEF2DEF70DE2E8F2D807F19F059
:1038E000D29490EFD922AA20B9F0DD2069F080E2CD
:1038F0008E0D883010F0811009C08091D902D82A2D
:10390000D092D9020E94B9138E2D45C08091310208
:10391000D82AD0923102F6CF8E2D0E942417DD20B6
:10392000E1F180E28E0D883010F0811004C08D2D01
:103930000E946C0806C0D09480913102D822D092A7
:1039400031020E94B91329C0FF2DFF70DF2E8F2D89
:10395000807F803219F0D29480EFD822882059F0ED
:1039600021E0821609F481C0AA2009F48DC09920B3
:1039700009F44FC0C9CF8091D70282FD46C0AA206A
:10398000F1F1DD2039F08091D902D82AD092D90204
:103990000E94B91380E00E945A17AB2DA850BB0BB0
:1039A000149710F40E94E00ACC20A9F080910F0235
:1039B00080FD11C0F80115828695869586950E9436
:1039C0004B09C8010E94E71780910F0286958695E2
:1039D00086950E94270920E0D8014C9111965C91B0
:1039E000119712966C91129713967C9113971496D7
:1039F0008C91149715969C910E94FC0CB4CB80E09E
:103A00000E942417DD2049F292CFAA20A1F0911044
:103A100004C08D2D0E941A17C0CF31E09312BDCF84
:103A2000809130029D2D9823D91609F4B6CFD82A5B
:103A3000D0923002B2CF9110B0CF8D2D0E941317CB
:103A4000909130028D2D892329F08D2D8095892329
:103A5000809330028091E9019D2D982309F49DCF38
:103A6000D094D822D092E90198CFAA2029F085E0FD
:103A7000891508F492CFCDCF94E0991508F48DCF35
:103A80008D2D0E94131789CF9920D1F3A9E38A12B3
:103A900009C0BFEFE7EEF3E0B150E040F040E1F7DE
:103AA00000C000008E2D0E94241777CF8F2D8695A1
:103AB0008695837061F0813009F06FCFC7019370F4
:103AC000A11002C080E090E00E94660566CFC701A9
:103AD0009370A11002C080E090E00E948B055DCF42
:103AE0006A2D8E2D0E94090F58CF8F2D837091F56E
:103AF000A11053CF4E2D429546954770440F440F69
:103B00008E2D8F70042E01C0880F0A94EAF72E2D97
:103B10002071E4FE07C02FE030E001C0220F4A957B
:103B2000EAF720953F2D369536953370323069F09F
:103B300050F440918302313029F0822B84230E947B
:103B400057092BCF842B822BFACF282B809183020D
:103B50008227F5CF8695AA2011F08F2D81708823BA
:103B600009F41BCF4E2D429546954770440F440FE4
:103B70008E2D8F70042E01C0880F0A94EAF72E2D27
:103B80002071E4FE07C02FE030E001C0220F4A950B
:103B9000EAF720953F2D369536953370323069F02F
:103BA00050F440918402313029F0822B84230E940A
:103BB0000409F3CE842B822BFACF282B8091840228
:103BC0008227F5CF2F2D2F70F22EAA2029F0822FD9
:103BD0000E944B098E2D1ECF8E2D0E9413178F2D04
:103BE0000E942709DACE8E2D32EF8316B1F13815F7
:103BF00070F090EF8916D1F0A1EF8A1691F0AA200B
:103C000009F45EC0911080CE8F2D8F712AC0B3EF62
:103C10008B1651F1E4EF8E12F2CF8091D70282FD24
:103C20002FC08F2D8F71AA20D9F21BC0AA2081F03E
:103C3000F4E0F91508F4B1CE2F2D2F7181E090E05A
:103C400001C0880F2A95EAF7909184028927AFCFA7
:103C500025E0291508F4A1CEEFCF8F2D8F71A1108B
:103C6000BFCF0E944B0999CE80E0AA2009F49FCFD4
:103C70009F2D9F7181E001C0880F9A95EAF797CF39
:103C8000AA2099F03F2D3F71F32E832F0E944B09FC
:103C90008091D70282FF07C0A8E0FA9EC0011124DC
:103CA000836080930F028F2DDCCF81E00E94340966
:103CB000B1E0B91508F071CE82E00E9434096DCEF2
:103CC000992059F0893309F0EDCEEFEFF7EE23E0BC
:103CD000E150F0402040E1F7E3CE8F2D8F7180CF8F
:103CE000F701E154FE47EF30F10508F0FCCCE65F48
:103CF000F24D0C940D2ACF93DF9380910E02807FBA
:103D000009F04DC080910D02882309F448C0E0916C
:103D1000410350910803C0910902D09108026091BB
:103D20000A0270910B0247E05E17C9F18E2F90E0F6
:103D3000E49FF0011124E75FFC4F2481222391F1DD
:103D4000489FF001499FF00D1124DF01A75FBC4F90
:103D500011962C9111972C1325C02C912D1322C054
:103D600015962C91159721111DC012962D913C91FD
:103D7000261B370B283C3105A8F480910E028F706A
:103D8000806180930E02E15FFC4F80818F708061C3
:103D9000808388E092E00E94E7170E947308DF9119
:103DA000CF910895FC013196E770BECFA4E1B0E059
:103DB000ECEDFEE10C94B4298C0186E0F801DE0103
:103DC0001F9601900D928A95E1F7F8018481E580B4
:103DD00098E0A92E92E0B92E90910C02911128C082
:103DE000882319F1EE20F1F0C8010E94D90CF82EB9
:103DF0008823C1F087E0F801D50101900D928A95E2
:103E0000E1F780910C02813031F4809108029091A9
:103E100009020E94CC0C0E947B1E8F2D6496ECE060
:103E20000C94D029C8010E94E717FF24F394F5CF22
:103E3000D080C18082809380F0900D0220910A0290
:103E400030910B02A401421B530BFF2009F4D9C08F
:103E5000483C510508F092C08823F9F2909109027C
:103E600080910E02282F207F09F056C0C91214C07D
:103E700090910802D91210C0E11048C08F70806183
:103E800080930E0288E092E00E94E71780910E0274
:103E9000F8018683F12CC1CFE11038C06C2D8D2D37
:103EA0000E9426036C2D8D2D0E942603E82E811181
:103EB000F1CFDF86C88A8F8598890E94CC0C292F84
:103EC00022952F70243058F49F70223088F0992367
:103ED00099F0F8019681907F79F4FE2C9ECF2A5FAD
:103EE0002F70223068F0C8010E94E717EF2CF5CF41
:103EF000992311F0882389F3805E883070F3F3CF23
:103F0000803F58F3815F833070F7E7CF80910E02D6
:103F1000816080930E02BECFC91207C09091080243
:103F2000D91203C0EE2009F48DC0C8010E94D90C3B
:103F3000882309F477CFEE2009F474CF80910E0224
:103F4000803288F020910802309109023987288751
:103F50009B868A8690910C029C871D868E87CE0157
:103F600008960E94E71787E0F801A8E0B2E0019008
:103F70000D928A95E1F70E947B1E57CF90910E0219
:103F8000292F207F51F488E092E00E94E71787E014
:103F9000F50111928A95E9F77DCF882309F43DCF89
:103FA000809109028C1110C080910802D8120CC0B7
:103FB000E1100AC09683C8010E94E71787E0F50167
:103FC00011928A95E9F729CFC8010E94D90C88235C
:103FD00009F428CFEE2009F425CF80910E0280321B
:103FE00010F220910802309109023A8329839C82C1
:103FF0008B8290910C029D831E828F83CE0101964D
:10400000B0CF483C5105D0F6882309F40ECFFE2CE2
:10401000EE2009F407CF809109028C1120C0809115
:104020000802D8121CC080910E0280FD0FC0982F8C
:10403000907F61F08683903F31F0982F907F905F62
:104040008F70892B8683C8010E94E71787E0F801EB
:10405000A8E0B2E001900D928A95E1F7DECEC801AA
:104060000E94D90C81117FCF80910E0281608093D4
:104070000E02C8010E94E717D0CEABE1B0E0E3E446
:10408000F0E20C94BC294E8B5F8B688F798F8A8FFE
:104090009B8F192F9111109231021D8A86E0FE012B
:1040A0007696DE011F9601900D928A95E1F70A8DB2
:1040B000002341F021E04F85588969897A89C80138
:1040C0000E94FC0C0B8B1C8B87E0FE013F96DE01EF
:1040D000189601900D928A95E1F7CE0108960E94FC
:1040E000D61E81110CC087E0FE013896DE011196C4
:1040F00001900D928A95E1F78C8581110BC017E034
:104100008091410390910803891333C06B96E4E0DA
:104110000C94D8292091080330E0C90101968770DA
:104120009927409141034817190699F097E0929F0B
:10413000D001939FB00D1124A75FBC4FFE013196B3
:1041400001900D929A95E1F7809308030E947308FD
:10415000D6CF1092D9020E940E141092080310922A
:10416000410387E0E8E0F2E0DF011D928A95E9F77C
:10417000C6CF819FC0011124875F9C4F0E94D61E2D
:10418000882321F28091410390E00196877099275E
:1041900080934103B5CFACE0B0E0E1EDF0E20C94E8
:1041A000BC29182F062F662359F10E94CE041F83C5
:1041B0002DEF28879A87898782E08B8781E08C871B
:1041C0004F81588569857A858B859C850E943D2025
:1041D0000023F9F00E94CE0419832DEF2A839C83DB
:1041E0008B8382E08D831E8249815A816B817C8121
:1041F0008D819E810E943D202C96E4E00C94D8296C
:104200000E94CE041F832CEF28879A87898783E03A
:10421000D4CF0E94CE0419832CEF2A839C838B83F6
:1042200083E0E0CFA1E0B0E0E8E1F1E20C94B7294F
:10423000EE24E394F12C0CE512E09E012F5F3F4F3A
:104240004DE452E063E082E00E946710C82E8823AC
:1042500039F100E080E01DC0D0907602D00E2D2D07
:1042600030E0A90140575D4F7A01E1E0F0E0EC0F4A
:10427000FD1FE00FF11D1081FA019081191BB12E75
:104280001B149CF0912F17FD90E0191B111118C001
:104290000F5F909175020917F8F281110E941D0BB2
:1042A0008C2D2196E9E00C94D329BA94F7018081F2
:1042B0008F5F808360E08D2D0E94CB208C2DE0CF1E
:1042C0001F5FF70180818150808361E08D2D0E9406
:1042D000CB208C2DDBCFA6E0B0E0E1E7F1E20C943F
:1042E000BC290E94CE048C0180913202909133024D
:1042F0008017910781F019821A820E94CE04682FDC
:1043000049815A81792F80E090E00E943D201093EE
:104310003302009332022696E4E00C94D8291F92CF
:104320000F920FB60F9211242F933F934F935F93E9
:104330006F937F938F939F93AF93BF93CF93DF93AD
:10434000EF93FF93D091E900DF708091EC00C82FCC
:10435000C17080FDC0E81092E9008091F000877F75
:104360008093F00078940E943B141092E9008091B1
:10437000F00088608093F000CD2BCF70C093E900EF
:10438000FF91EF91DF91CF91BF91AF919F918F916D
:104390007F916F915F914F913F912F910F900FBE41
:1043A0000F901F9018951F920F920FB60F92112425
:1043B0002F933F934F935F936F937F938F939F932D
:1043C000AF93BF93EF93FF938091E10082FF09C009
:1043D0008091E20082FF05C08091E1008B7F809395
:1043E000E1008091DA0080FF24C08091D80080FF36
:1043F00020C08091DA008E7F8093DA008091D9000E
:1044000080FF9DC080E189BD82E189BD09B400FEC5
:10441000FDCF81E08093FE028091D802811109C016
:104420000E9445030E94E6038091E200846080932D
:10443000E2008091E10080FF17C08091E20080FFE0
:1044400013C08091E2008E7F8093E2008091E200B1
:1044500080618093E2008091D80080628093D800D0
:1044600019BC85E08093FE028091E10084FF2BC09F
:104470008091E20084FF27C080E189BD82E189BD8F
:1044800089B5982F917080FFFBCF8091D8008F7DE8
:104490008093D8008091E1008F7E8093E10080912D
:1044A000E2008F7E8093E2008091E2008160809341
:1044B000E2008091FF02882309F447C084E08093E2
:1044C000FE028091FE028091E10083FF27C080916F
:1044D000E20083FF23C08091E100877F8093E100A9
:1044E00082E08093FE021092FF028091E1008E7FB5
:1044F0008093E1008091E2008E7F8093E2008091C2
:10450000E20080618093E20042E060E080E00E948F
:10451000B4038091F00088608093F000FF91EF91E8
:10452000BF91AF919F918F917F916F915F914F91CB
:104530003F912F910F900FBE0F901F90189519BCAF
:104540001092FE021092D80274CF8091E30087FD92
:1045500093E09093FE02B5CF78941F921FB61F92FE
:1045600011248F939F93AF93BF938091D202909128
:10457000D302A091D402B091D5020196A11DB11D24
:104580008093D2029093D302A093D402B093D50229
:10459000BF91AF919F918F911F901FBE1F90189553
:1045A0001F921FB61F9211248F939F93AF93BF93B7
:1045B0008091D102811113C08091D2029091D302D7
:1045C000A091D402B091D5024196A11DB11D809356
:1045D000D2029093D302A093D402B093D502BF919C
:1045E000AF919F918F911F901FBE1F901895CDB7CF
:1045F000DEB7A6970FB6F894DEBF0FBECDBF85B766
:10460000806885BF85B7806885BF84B7877F84BF92
:104610000FB6F894A895809160008861809360003F
:10462000109260000FBE80E890E00FB6F89480937F
:104630006100909361000FBE84E496E09093BD0109
:104640008093BC010E9445030E94E6038091E20032
:1046500084608093E20078948091FE028823A1F028
:104660001091E9001F709091EC00892F817090FDEE
:1046700080E8182B1092E9008091E80083FD0E94E9
:104680003B141F701093E90082E084BD93E095BD58
:104690009AEF97BD80936E00109271021092720291
:1046A00010927302109274020E94210D811102C0B7
:1046B0000E94060C0E94BD0A91E089278093440164
:1046C0000E94BD0A81110E944C289091440181E012
:1046D000982790939402282F291B2093760290917B
:1046E0004401809395029091440180937502519802
:1046F000599A26982E9A8FE891E00197F1F700C019
:1047000000002091950246E952E0FA018E2F841BA9
:10471000821708F4D1C0809144018091440195E052
:10472000811190E09093820285E0891B8093810241
:1047300001E911E066E9E62E61E0F62ED8018D91DF
:104740008D018F3F11F00E944606E016F106B1F789
:1047500006E911E05DE9E52E51E0F52EF8018191C1
:104760008F018F3F11F00E944606E016F106B1F767
:104770008AE0E9E9F2E0DF01282F1D922A95E9F7A6
:10478000E7E7F2E0DF011D928A95E9F790E080E02B
:104790000E94222A863E9E4F21F40E94210D811103
:1047A00067C066EE7EEF90E080E00E94562A60E0EF
:1047B00082E090E00E94382A60E083E090E00E946E
:1047C000382A1092830260E074E184E090E00E9455
:1047D000562A60E086E090E00E94382A6FEF87E07A
:1047E00090E00E94382A40E050E0BA0188E090E072
:1047F0000E944A2A60E084E290E00E94382A60E049
:1048000087E190E00E94382A60E08CE090E00E940E
:10481000382A60E08DE090E00E94382A19821A82DE
:104820001B821C821D821E821F82188648E050E077
:1048300068E170E0CE0101960E94282A40E050E035
:10484000BA0180E290E00E944A2A80E00E94EC0BCC
:104850000E94060C40E050E0BA018FE090E00E9418
:104860004A2A40E050E0BA0183E190E00E944A2ADF
:1048700082E090E00E941A2A8093850284E090E012
:104880000E94222A9093D7028093D6020E9496110A
:10489000EFE3FCE93197F1F700C000000E949611A8
:1048A0008091990280FF13C06FEF7FEF90E080E06E
:1048B0000E94562A0E94A20489B1869581701E9991
:1048C00004C090E0892B819321CF92E0FBCF83E05D
:1048D00090E00E941A2A0E9457090E94BD0A811185
:1048E00002C00E944F280E94BD0A81110E94710AD5
:1048F00085E491E09093CE028093CD0228E1622E70
:10490000712C33EAE32E32E0F32E44E0C42ED12C96
:104910008091FE0200E112E1853009F483C00E941B
:10492000961106E812E099E9A92E92E0B92E20E945
:1049300032E0D501F80191918D912E173F0709F4CE
:104940007DC09817C1F30E94BD0A282E912CD50175
:104950008D905D01F80131908F01381431F13824C8
:10496000512C44244394832D8421B9F02220A9F0B2
:1049700059A29AA20E94CE049CA38BA3F1E0FDA3AE
:1049800091E0882D842109F490E09EA349A15AA1C9
:104990006BA17CA18DA10E943D205394440C27E083
:1049A0005212E1CFF8013197808293948AE09812F5
:1049B000CECF0E94030B46C08091FE02843021F1CD
:1049C0000E94630D1092D102F0E40FB6F894A895FE
:1049D000609260000FBEF093600083B7817F8460B7
:1049E00083BF83B7816083BF7894889583B78E7FB8
:1049F00083BF0FB6F894A89580916000886180937A
:104A00006000109260000FBE8091FD02882351F07B
:104A10000E949611E9E9F2E081918111BAC2EE1685
:104A2000FF06D1F78091FE02853009F4C5CF1092C0
:104A3000D9020E940E140E94E00A71CF981383CF0E
:104A40000E946B210E94BD0AA12C912C809195029D
:104A5000A81608F404C191100E941D0B0E94630D5A
:104A600081110E94030B86E0E2EBF2E0DE01119679
:104A700001900D928A95E1F71092B4021092B5025E
:104A80001092B6021092B7028B819C81892B09F497
:104A900047C08091A8029091A9020E94B3049C0192
:104AA0009091A302992309F49AC225313105C0F1EE
:104AB0009F3F19F09F5F9093A3021B81112359F030
:104AC0000E9416069FEF11160CF491E0899F802D2D
:104AD00011248093B4021C81112359F00E94160600
:104AE0009FEF11160CF491E0899F802D1124809383
:104AF000B5028091B402882399F01091B502112378
:104B000079F00E943606882309F409C18093B40223
:104B1000812F0E943606882309F403C18093B502D1
:104B20008D819E81892B09F447C08091A6029091C6
:104B3000A7020E94B3049C019091A402992309F456
:104B400049C221353105C0F19F3F19F09F5F909315
:104B5000A4021D81112359F00E94F4059FEF111644
:104B60000CF491E0899F802D11248093B6021E8160
:104B7000112359F00E94F4059FEF11160CF491E0F7
:104B8000899F802D11248093B7028091B6028823DB
:104B900099F01091B702112379F00E94360688230C
:104BA00009F4C1C08093B602812F0E943606882383
:104BB00009F4BBC08093B702BE016F5F7F4F82EBE9
:104BC00092E00E94DA0481110CC08091B4029091AD
:104BD000B502892B9091B602892B9091B702892B4F
:104BE00011F00E94D80586E0FE013196A2EBB2E0FA
:104BF00001900D928A95E1F70E94E00A9091980247
:104C0000891721F0809398020E94C2048091FE02CD
:104C1000843009F07DCE83E08093E9008091E80044
:104C200082FF76CE8091E80090E085FF06C00E946A
:104C30006403882309F47BC091E08091E8008B77BE
:104C40008093E800992309F463CEE981E150E531CE
:104C500008F096C0F0E0E75EF24D0C940D2A0A2DA4
:104C600010E0E9B1E695E1701E9951C080E08E2B0D
:104C7000D801AA56BD4FEC919E2F9370891709F465
:104C800044C0EE0FEE0FE82BEC93B0909402BA0CF8
:104C9000EF70F0E0E356FE4F0E561D4F8081D801B5
:104CA0009C91890F8C93812C843084F0EB2DF0E063
:104CB000E057FD4F80818F5F80830E94BD0A882E60
:104CC000882339F160E08B2D0E94CB20F801808190
:104CD0008D3F84F4EB2DF0E0E057FD4F8081815053
:104CE00080830E94BD0A882E8823B1F061E08B2D5D
:104CF0000E94CB20D8018C91082E000C990BB60194
:104D00000E94F929F80180839828A3949FCE82E01D
:104D1000AECF88248394DACF88248394EBCF81E0CC
:104D2000F5CE81E0FBCE81E03DCF81E043CF80E254
:104D3000A82EB12C8E010F5F1F4F8091E80085FDDA
:104D40000AC08091E8008B778093E8000E9464039A
:104D5000882399F371CF8091F100D8018D938D0153
:104D6000B1E0AB1AB10849F767CF1A828CE08B83A8
:104D70001BC08A81823009F424C128F4813061F09B
:104D80008FEF898311C08330C1F08430C9F71B8253
:104D90001C821D821E8208C00E94C2040E94132A27
:104DA0006B837C838D839E8340E250E0BE016F5F06
:104DB0007F4F82E00E945A09ABCD2B81822F90E079
:104DC000FE013496245E8A30910570F7DC01A75607
:104DD000BD4F3C91319301962813F5CFE5CF8A81E1
:104DE000823019F0853001F3CBCF6B817C818D81CE
:104DF0009E810E94132A88E290E00E94382AD4CF34
:104E00004C816B818A810E944F0C982789279827B3
:104E10009E838D83C9CF2D813E8132272327322760
:104E20004C816B818A810E94610BBECF0E94870BEF
:104E3000BBCF80E18A83B8CF1A8283EF98CF0A81F3
:104E40001B81102701271027FE0131965F018C80FE
:104E5000CF01880D911D4C01C801835F9C4F8A14BE
:104E60009B0409F4A1CF033F110558F40E941A2AAC
:104E7000D50114968C930F5F1F4FFFEFAF1ABF0A37
:104E8000EBCFF5011482F7CF0A811B811027012790
:104E90001027CE0101964C01AC80A00EB12EB11CA2
:104EA000C801835F9C4F0A151B0509F47DCF033FA2
:104EB000110528F4D40114966C910E94382ABFEF92
:104EC0008B1A9B0A0F5F1F4FEBCF0E94200B6CCFFA
:104ED00085E0B0CF0A811B81102701271027FE0132
:104EE00031965F018C80CF01880D911D4C01C80166
:104EF00089968A149B0409F457CF0C3BA2E01A0749
:104F000050F40E941A2AF50184830F5F1F4FBFEFF0
:104F1000AB1ABB0AECCFD50114961C92F6CF0A81CE
:104F20001B81102701271027FE0131964F01AC800D
:104F3000A00EB12EB11CC8018996A016B10609F4C5
:104F400033CF0C3BF2E01F0728F4D40114966C9188
:104F50000E94382ABFEF8B1A9B0A0F5F1F4FEBCFBF
:104F600041E08C81811101C040E06B818A810E9407
:104F7000160C4BCF2D813E8132272327322741E06B
:104F80008C81811101C040E06B818A810E94300BCD
:104F90000BCF09BD19BD09B400FEFDCF8091D8002B
:104FA0008F7D8093D8008091E00082608093E00044
:104FB0008091E00081FDFCCF1092D9020E940E1476
:104FC00031CD88E290E00E941A2A1B821C821D8249
:104FD0008E83EACE2B30310508F0B8CDEDCD2B30E5
:104FE000310508F067CD9CCD8EE1489B02C0815011
:104FF000E1F7489BFECF0895589880E28A95F1F733
:10500000589A0895FC013BE03A95F1F798E020E0CA
:1050100080E031E040E14A95F1F7880F489B02C0FB
:105020008160232742E04A95F1F7000040E14A956C
:10503000F1F7915079F790E19A95F1F799B132E053
:105040003A95F1F7000040E14A95F1F79170922707
:105050002081920F90830895A1E0B0E0E2E3F8E2AE
:105060000C94BA2919828C017C01E60EF11C0E15F4
:105070001F0541F481E09981911180E02196E6E0DD
:105080000C94D6290E94F427CE0101960E94022892
:10509000F80181938F01EBCF509A589A0895509858
:1050A000589AE89AE9E6F0E080818C7F8083089541
:1050B0006150770B91E001C0990F6A95EAF720E003
:1050C00031E0911108C0222391F0589A80E28A952C
:1050D000F1F758980895492F482339F0589A232713
:1050E00040E24A95F1F79695ECCF5898F9CF589849
:1050F000EDCFFF920F931F93CF93DF93EC018C01C1
:10510000060F111DC017D10729F4CDB7DEB7E5E0B2
:105110000C94D729F9900E94FC2768E08F2D0E94FB
:105120005828F0CF1F920F920FB60F9211240F93B1
:105130001F932F933F934F935F936F937F938F931F
:105140009F93AF93BF93EF93FF93CF93DF930F9210
:10515000CDB7DEB719820E94F427CE0101960E94D6
:105160000228082F069506950695282F229525706A
:10517000902F9570290F922F937026952695920F58
:10518000982797708981982B09F05CC0093008F046
:1051900059C080E18A95F1F7589A509A82E08A9531
:1051A000F1F700C0589888E0089F80011124D801C9
:1051B000AC5FBE4F1696ED91FC9117973097A9F012
:1051C00060918F017091900114962D913C911597EB
:1051D000260F371F11968D919C911297680F791F9A
:1051E00013964C9113978C910995F801EC5FFE4F43
:1051F0006381662351F020918F0130919001848169
:105200009581820F931F0E9479280E94FC2780E1DC
:105210008A95F1F758985098589A80E18A95F1F755
:10522000F801EC5FFE4F6081662351F020918F0101
:105230003091900181819281820F931F0E942C28CE
:105240000E94F4270F90DF91CF91FF91EF91BF91D2
:10525000AF919F918F917F916F915F914F913F910E
:105260002F911F910F910F900FBE0F901F901895C7
:105270000F931F93CF93DF93EC0109970CF04CC071
:10528000F894509A589885E08A95F1F700009C2F81
:10529000969595708C2F8570980F892F83709695B1
:1052A000969523E0CC0FDD1F2A95E1F7980F8E012C
:1052B000092B0E94FC2700C068E0802F0E9458281C
:1052C00080E18A95F1F75098589A489B1EC087E074
:1052D00090E048991CC0FE01EC5FFE4F638166239D
:1052E000F9F020918F013091900184819581820F96
:1052F000931F0E942C28811113C0509A589A7894B9
:10530000DF91CF911F910F91089500C0DECF0197DB
:1053100029F4509A589A789480E0F2CF00C0D9CFFF
:105320000E94F42780E28A95F1F75898509A80E11C
:105330008A95F1F7CC5FDE4F6881662351F02091AA
:105340008F013091900189819A81820F931F0E9471
:1053500079280E94FC27789481E0D2CF2F923F9247
:105360004F925F926F927F928F929F92AF92BF9275
:10537000CF92DF92EF92FF920F931F93CF93DF9321
:10538000CDB7DEB7CA1BDB0B0FB6F894DEBF0FBE7E
:10539000CDBF09942A88398848885F846E847D84CB
:1053A0008C849B84AA84B984C884DF80EE80FD80CD
:1053B0000C811B81AA81B981CE0FD11D0FB6F89443
:1053C000DEBF0FBECDBFED010895AA1BBB1B51E18F
:1053D00007C0AA1FBB1FA617B70710F0A61BB70B65
:1053E000881F991F5A95A9F780959095BC01CD010A
:1053F000089597FB072E16F4009407D077FD09D087
:105400000E94E52907FC05D03EF4909581959F4FB9
:105410000895709561957F4F0895EE0FFF1F0590D9
:10542000F491E02D09946927962769277827872723
:1054300078270895F999FECF92BD81BDF89A9927F2
:1054400080B50895A8E1B0E042E050E00C945E2AF7
:10545000DC01A40FB51F4150504048F0CB01840F30
:10546000951F2E910E94392A41505040D0F708953F
:10547000262FF999FECF92BD81BDF89A019700B40D
:10548000021639F01FBA20BD0FB6F894FA9AF99AAD
:105490000FBE08950396272F0E94392A0E94382AAA
:1054A000252F0E94392A242F0C94392A0196272F60
:1054B0000E94392A0C94382ADC01CB01FC01F999AD
:1054C000FECF06C0F2BDE1BDF89A319600B40D9250
:1054D00041505040B8F708955058BB27AA270E9462
:1054E000842A0C94BC2B0E94832B38F00E948A2BB8
:1054F00020F039F49F3F19F426F40C94802B0EF41D
:10550000E095E7FB0C947A2BE92F0E94E12B58F3EE
:10551000BA17620773078407950720F079F4A6F598
:105520000C94032C0EF4E0950B2EBA2FA02D0B013A
:10553000B90190010C01CA01A0011124FF27591BD8
:1055400099F0593F50F4503E68F11A16F040A22FDE
:10555000232F342F4427585FF3CF4695379527954F
:10556000A795F0405395C9F77EF41F16BA0B620B4E
:10557000730B840BBAF09150A1F0FF0FBB1F661F95
:10558000771F881FC2F70EC0BA0F621F731F841FD8
:1055900048F4879577956795B795F7959E3F08F0FE
:1055A000B0CF9395880F08F09927EE0F97958795C0
:1055B00008950E94562B08F481E008950E94932BD1
:1055C000E3950C94CD2B0E94EA2A6894B1110C94B7
:1055D000042C08950E94E92B88F09F5798F0B92F6A
:1055E0009927B751B0F0E1F0660F771F881F991F18
:1055F0001AF0BA95C9F714C0B13091F00E94032C8B
:10560000B1E008950C94032C672F782F8827B85F9A
:1056100039F0B93FCCF3869577956795B395D9F76F
:105620003EF490958095709561957F4F8F4F9F4F79
:105630000895E89409C097FB3EF490958095709585
:1056400061957F4F8F4F9F4F9923A9F0F92F96E9CE
:10565000BB279395F695879577956795B795F11143
:10566000F8CFFAF4BB0F11F460FF1BC06F5F7F4FE0
:105670008F4F9F4F16C0882311F096E911C07723F2
:1056800021F09EE8872F762F05C0662371F096E8FB
:10569000862F70E060E02AF09A95660F771F881FCA
:1056A000DAF7880F9695879597F90895990F00086E
:1056B000550FAA0BE0E8FEEF16161706E807F907E4
:1056C000C0F012161306E407F50798F0621B730B7F
:1056D000840B950B39F40A2661F0232B242B252B00
:1056E00021F408950A2609F4A140A6958FEF811DA3
:1056F000811D089597F99F6780E870E060E0089544
:105700009FEF80EC089500240A94161617061806D9
:105710000906089500240A941216130614060506B5
:1057200008950C94802B0E94E92BD8F3E894E0E0D4
:10573000BB279F57F0F02AED3FE049EC06C0EE0F83
:10574000BB0F661F771F881F28F0B23A62077307E6
:10575000840728F0B25A620B730B840BE3959A9579
:1057600072F7803830F49A95BB0F661F771F881F39
:10577000D2F790480C94862C092E0394000C11F457
:10578000882352F0BB0F40F4BF2B11F460FF04C01C
:105790006F5F7F4F8F4F9F4F0895EF93E0FF07C0DC
:1057A000A2EA2AED3FE049EC5FEB0E94842A0E94C6
:1057B000BC2B0F90039401FC9058ECEAF0E00C94A1
:1057C000922C57FD9058440F551F59F05F3F71F0D0
:1057D0004795880F97FB991F61F09F3F79F0879558
:1057E0000895121613061406551FF2CF4695F1DFE1
:1057F00008C0161617061806991FF1CF8695710571
:10580000610508940895E894BB2766277727CB01A4
:1058100097F908950E94562B08F48FEF08950E947F
:10582000222C0C94BC2B0E94832B38F00E948A2BD4
:1058300020F0952311F00C947A2B0C94802B1124DA
:105840000C94042C0E94E12B70F3959FC1F3950FEB
:1058500050E0551F629FF001729FBB27F00DB11DF4
:10586000639FAA27F00DB11DAA1F649F6627B00D84
:10587000A11D661F829F2227B00DA11D621F739F6D
:10588000B00DA11D621F839FA00D611D221F749F7B
:105890003327A00D611D231F849F600D211D822FC2
:1058A000762F6A2F11249F5750409AF0F1F08823E9
:1058B0004AF0EE0FFF1FBB1F661F771F881F915016
:1058C0005040A9F79E3F510580F00C947A2B0C9420
:1058D000042C5F3FE4F3983ED4F386957795679563
:1058E000B795F795E7959F5FC1F7FE2B880F911D40
:1058F0009695879597F908959F930E94932B0F9003
:1059000007FCEE5F0C94CD2B9F3F31F0915020F4BB
:10591000879577956795B795880F911D969587958B
:1059200097F908959F938F937F936F93FF93EF93CE
:105930009B01AC010E940F2CEF91FF910E94A62CBD
:105940002F913F914F915F910C940F2CDF93CF9348
:105950001F930F93FF92EF92DF927B018C0168946B
:1059600006C0DA2EEF010E94222CFE01E894A591D8
:105970002591359145915591A6F3EF010E94842A16
:10598000FE019701A801DA9469F7DF90EF90FF908C
:105990000F911F91CF91DF910895FB01DC0104C0AD
:1059A0008D910190801921F441505040C8F7881B17
:1059B000990B0895FB01DC0102C001900D9241504A
:1059C0005040D8F70895F894FFCF1E154615E916F4
:1059D0004615E91679159A15E9169816A51673193C
:1059E000A619D919041AA318A318A318A318A31841
:1059F000A318A318A318A318A318A3186A1C6A1C39
:105A0000A41CA41C561D701DCD1CCD1C751DE21DB3
:105A1000F31DF31D60199519C819F319201A421ABC
:105A2000591A6D1A961AA71AC41AD31AD91A2C1B06
:105A3000531BB526B926EF2600270B271627C026AD
:105A4000C026C026C026C02619271C271F2744278A
:0C5A5000652768276A278F27B027BA2730
:105A5C00CF03CF0300000001000000000000000590
:105A6C000100000000000001060000000000000121
:105A7C000700000004080000000000000000000106
:105A8C000C000000000000060D00000002130000D6
:105A9C0000000000019F04A3099C099509000080E7
:105AAC003F0000803F01818283E200E900EA00B5FB
:105ABC0000B600B700CD008301CC008A019201949E
:105ACC00012102230224022502260227022A02B304
