:100000000C9407030C949D270C9424030C94240354
:100010000C9424030C9424030C9424030C942403C4
:100020000C9424030C9424030C94E9200C94A52034
:100030000C94E6210C9424030C9424030C942403C4
:100040000C9424030C9424030C9424030C94240394
:100050000C9424030C94C2210C9424030C942403C8
:100060000C9424030C9424030C9424030C94240374
:100070000C9424030C9424030C9424030C94240364
:100080000C9424030C9424030C9424030C94240354
:100090000C9424030C9424030C9424030C94240344
:1000A0000C9424030C9424030C94240305A84CCD35
:1000B000B2D44EB93836A9020C50B9918688083CA2
:1000C000A6AAAA2ABE000000803F05010902A101DC
:1000D00085020901A100050919012908150025015A
:1000E0009508750181020501093009311581257FC7
:1000F00095027508810609381581257F95017508D7
:100100008106050C0A38021581257F950175088145
:1001100006C0C005010980A101850319012AB700A5
:10012000150126B700950175108100C0050C090165
:10013000A101850419012AA002150126A00295013A
:1001400075108100C005010906A101850605071982
:10015000E029E715002501950875018102050719B9
:100160000029EF1500250195F07501810205081998
:10017000012905950575019102950175039101C04D
:100180000660FF0961A1010962150026FF009520A4
:10019000750881020963150026FF009520750891F6
:1001A00002C005010906A101050719E029E71500AC
:1001B00025019508750181029501750881010507E2
:1001C000190029FF150026FF009506750881000516
:1001D000081901290515002501950575019102955C
:1001E0000175039101C00000000000000000000044
:1001F00000000000000000000000000000000000FF
:10020000000000000000000000007E0F00D4FFFF8F
:10021000FFC70000007800000000000000002A2B4B
:1002200028000000000000000000000000000000A6
:100230000029000000002C1E34202122243426270F
:10024000252E362D3738271E1F2021222324252630
:100250003333362E37381F0405060708090A0B0CFE
:100260000D0E0F101112131415161718191A1B1C46
:100270001D2F3130232D350405060708090A0B0C04
:100280000D0E0F101112131415161718191A1B1C26
:100290001D2F3130354C29001E001F002000210089
:1002A0002200A8002B0014001A00080015001700F7
:1002B0002800E20004001600070009000A003801C7
:1002C000E1001D001B000600190005004C00E000C5
:1002D000E300E200447E2A002C00417ED10023008E
:1002E00024002500260027004600D1001C0018002D
:1002F0000C00120013008900D1000B000D000E004D
:100300000F0033003400D100110010003600370018
:100310003800E500427E28002D00437E3000320088
:100320002F0029003B003B003C003D003E00440004
:100330002B001701D100520843022B066800E2008F
:100340001A0150082B054F082B046900E10016081C
:100350003D04510817082B084C00E000E300E200C0
:1003600001002A002C0001002E003F004000410047
:100370004200430048002B0355005F00600061000D
:10038000560089002B0154005C005D005E005700A0
:100390004C7ED300340059005A005B002E00E5006B
:1003A000010028002D00620063004B7E4A7E290078
:1003B0003B003B003C003D003E0044002B0014008D
:1003C0001A000800150017006800E200040016007B
:1003D000070009000A006900E1001D001B0006007B
:1003E000190005004C00E000E300E200447E2A0012
:1003F0002C00010045003F00400041004200430046
:100400004800B700D1004A0052004D0043022900C5
:10041000B6004A00500051004F004D004F7ED300FF
:100420004E00477E467E457E4B00E5000100487E3B
:100430008700437EDC004E7E4D7E29003B003B0062
:100440003C003D003E0044002B006A006B006C0045
:100450006D006E00D100E2006A016B016C016D015C
:100460006E01D200E1006A026B026C026D026E0244
:100470004C00E000E300E200447E2A002C00010072
:1004800045003F0040004100420043004800D200C8
:100490006F0070007100720073002900D1006F01BD
:1004A00070017101720173012900D3006F027002A3
:1004B000710272027302E50001002800870001004A
:1004C000DC0000002F0029003A003B003C003D000A
:1004D0003E0044002B001E021F02200221022202C5
:1004E0002800E2001E041F0420042104220444000A
:1004F000E1003A003B003C003D003E004C00E000C3
:10050000E300E20001002A002C00417E45003F008C
:10051000400041004200430046002E002302240216
:10052000250226022702290045002304240425046D
:10053000260427043400D3003F004000410042005D
:100540004300E500427E28002D00437E300032004B
:100550002F00DA00D900D900DA00DA00D900D9007A
:10056000DA00DA00D900D900DA00AA00A900A9004F
:10057000AA00AA00A900A900AA0009025B000301C1
:1005800000A0FA0904000001030101000921110182
:10059000000122440007058103080001090401004D
:1005A00002030000000921110100012222000705B9
:1005B0008203200001070503032000010904020053
:1005C000010300000009211101000122B600070506
:1005D00084032000011201000200000008ABAA02FF
:1005E000000001010200010E034D006F006F006F5B
:1005F0000073006500000010036100740061007268
:100600000075006E006F000000040309040011244F
:100610001FBECFEFDAE0DEBFCDBF11E0A0E0B1E05A
:10062000E4E5F8E502C005900D92A43BB107D9F7C7
:1006300023E0A4EBB1E001C01D92A932B207E1F7BB
:100640000E940D220C94EE2B0C940000482F209158
:1006500028039091EF0257E0291302C080E008952B
:1006600030E0529FF001539FF00D1124E051FD4FF7
:100670008181681306C08081481303C08581811180
:10068000EECF2F5F3F4F2770E7CFE8EDF0E080819E
:100690008E7F80831092E2001092DA001092E100C7
:1006A000A0EEB0E08C9181608C9380818F77808305
:1006B00019BCA7EDB0E08C918E7F8C9380818F7EEA
:1006C00080831092BF0208952091E4003091E500EC
:1006D00095E6A9012091EC00822F817020FF06C0D1
:1006E0008091E80080FF06C080E008952091E80036
:1006F00022FD1AC08091E502882389F0853089F0B7
:100700008091EB0085FD0FC02091E4003091E50061
:1007100042175307F9F29150E1F684E0089582E020
:10072000089583E0089581E008958091E70287FFAE
:1007300013C08091E80082FF06C08091E8008B77AB
:100740008093E80004C08091E5028111F2CF089502
:100750008091E5028823D9F38091E80080FFF8CFEB
:100760008091E8008E77ECCF982F9093E900242FAA
:10077000762F50E0891731F07091EC002091ED0058
:100780005091F00021FD07C09F5F973071F7809373
:10079000E90081E008953091EB003E7F3093EB005B
:1007A0003091ED003D7F3093ED003091EB003160F2
:1007B0003093EB007093EC002093ED005093F00029
:1007C0002091EE0027FDE0CF80E00895B0E0A0E0AA
:1007D000ECEEF3E00C94C328C8EDD0E088818F7E66
:1007E0008883E7EDF0E080818160808384E082BFD0
:1007F00081E08093BF0288818E7F888302EE10E0C3
:10080000F80110821092DA0081EEC82ED12CF60188
:10081000108288818F778883888180688883888127
:100820008F7D888319BC1092E5021092E602109227
:10083000E4021092E30290EEE92EF12CF7018081A0
:100840008B7F808388818160888342E060E080E0E4
:100850000E94B403F60180818E7F8083F80180813D
:1008600081608083808188608083F70180818E7FB2
:100870008083888180618883CDB7DEB7E8E00C94FF
:10088000DF28FC018091ED029091EE028617970718
:10089000A0F06115710529F49091E8009E7790937E
:1008A000E80090E06115710551F4911108C0809144
:1008B000E80082FF34C080E00895BC01F2CF80914F
:1008C000E5028823C1F18530C1F18091E80083FD04
:1008D00030C08091E80082FDEACF8091E80080FF7F
:1008E000E1CF8091F3002091F200382F611571055E
:1008F00019F02830310558F091E02830310509F021
:1009000090E02091E8002E772093E800CBCF8191F2
:100910008093F100615071092F5F3F4FE7CF8091C5
:10092000E502882341F0853041F08091E80083FFA3
:10093000BECF81E0089582E0089583E0089580911C
:10094000C202089587E797E7909301088093000813
:1009500088E19AE00FB6F894A895809360000FBEE6
:1009600090936000FFCF9C014FB7F8948091B9023B
:100970009091BA02A091BB02B091BC024FBF821B02
:10098000930B08952FB7F8946091B9027091BA0251
:100990008091BB029091BC022FBF08952FB7F894AD
:1009A0008091B9029091BA02A091BB02B091BC02B1
:1009B0002FBF0895DC01FB0111969C911197818155
:1009C000981322C012968C911297882319F0928165
:1009D00089131AC013968C911397882319F0938169
:1009E000891312C015968C911597882319F095815B
:1009F00089130AC014969C91992321F081E02481E7
:100A0000291303C080E001C081E081700895209126
:100A10004D012223C9F02091BD0227FF15C0E62F0A
:100A2000E695E695E695EE31D8F4E80FF92FF11D3D
:100A3000677021E030E001C0220F6A95EAF7209547
:100A40008281282322830895FC0132960896219101
:100A5000621303C0DF0111971C92E817F907B9F779
:100A6000089520914D012223C1F02091BD0227FF5E
:100A700014C0E62FE695E695E695EE31F8F4E80F1A
:100A8000F92FF11D677021E030E001C0220F6A9557
:100A9000EAF78281822B82830895FC0132962FEF40
:100AA00030E04191641751F02F3F19F4411101C01A
:100AB000232F3F5F3630A9F72F3F09F40895820FA7
:100AC000911D27FD9A95FC0162830895A3E0B0E093
:100AD000ECE6F5E00C94C9282091B6023091B702FB
:100AE00028173907A1F09093B7028093B602E091DE
:100AF000B402F091B502309751F024E029839B8332
:100B00008A830680F781E02DCE0101960995239610
:100B1000E2E00C94E528A3E0B0E0E1E9F5E00C9414
:100B2000C9282091B2023091B30228173907A1F0E9
:100B30009093B3028093B202E091B402F091B502B7
:100B4000309751F023E029839B838A830680F781C5
:100B5000E02DCE01019609952396E2E00C94E5285C
:100B6000E091B402F091B502309739F022E0DC0157
:100B70002C930480F581E02D09950895FC01680F00
:100B8000791F8FEF91E32191822728E030E087FFE2
:100B900009C0880F892721503109C9F7E617F707DF
:100BA00091F70895880FF7CF299A08952998089505
:100BB0000E94CE049C0190919B0280919C02982BF4
:100BC00021F03093900220938F0290919D028091AA
:100BD0009E02982B21F030938E0220938D0289E99A
:100BE00092E00E94B005089580918C0280FD16C0AD
:100BF00081FD16C082FD16C080918B028823A1F072
:100C0000883280F428E0829FC001112468E270E0FD
:100C10000E940429862F672B39F0089582E00895F9
:100C200084E0089588E0089581E0089580918C0221
:100C300080FD14C081FD14C082FD16C080918A021F
:100C4000882381F08E3180F420E5829FC001112439
:100C50006EE170E00E940429862F089584E10895D2
:100C600088E2089588E0089580E50895282F35EBFF
:100C70002303C001112497FF04C080589109892FD4
:100C8000089580589F4FFBCF80E00895F894E82F97
:100C9000E295EF70F0E031A1282F2F7081E090E015
:100CA00001C0880F2A95EAF7982F9095932391A376
:100CB00092A1892B82A3789408959091BD0292FF0E
:100CC00010C041E0282F2471243009F040E031E0C9
:100CD000282F2871283009F030E0431711F02CE05C
:100CE000822793FF10C041E0282F2471243109F09E
:100CF00040E031E0282F2871283109F030E0431717
:100D000011F02CE082273091BE0230FF10C051E07C
:100D1000282F2171213009F050E041E0282F28715F
:100D2000283009F040E0541711F029E0822731FF04
:100D300010C041E0282F2171213109F040E031E05D
:100D4000282F2871283109F030E0431711F029E0ED
:100D5000822794FD877E089582389105B9F1B0F419
:100D60008133910509F47DC048F48932910509F475
:100D70006DC08A32910509F47BC0089585339105D1
:100D800009F45FC08933910509F10895833E910507
:100D9000D9F138F4803E910529F1823E910579F12F
:100DA0000895863E9105D9F1873E910509F43EC02C
:100DB000843E910541F52091BE0221FF24C080911F
:100DC000BD0284FD19C087EE90E008952091BD0218
:100DD000237009F05AC02091BE0223FF14C089E29B
:100DE00090E008952091BD0220FD38C03091BE02F0
:100DF00030FF09C024FF43C090E080E008952091B7
:100E0000BD0222FDF7CF08952091BD0222FD3AC018
:100E10003091BE0230FD39C024FFF5CFEDCF2091D7
:100E2000BD0223FFF0CF24FDE7CFCDCF2091BD023F
:100E300023FD2EC03091BE0231FFEECF84EE90E054
:100E400008952091BD0225FFDECFC9CF2091BD02BC
:100E500025FD21C02091BE0223FFD5CF89E390E07C
:100E6000D2CF2091BD0226FFCECF8AE290E0089536
:100E70002091BD0226FFC7CF81E390E0089583EE65
:100E800090E0089582EE90E0089580EE90E008955D
:100E900086EE90E0089585E390E008951F93CF9348
:100EA000DF930E94AC06EC01C11580E5D807F0F590
:100EB000C11580E4D80708F09CC0C03ED10520F5DC
:100EC000CD3CD10508F082C0C83AD10578F4C53AC6
:100ED000D10508F073C0C130D10519F1209709F18F
:100EE000C430D105F0F4D0E0C0E01BC0C33CD10554
:100EF000D0F7C85AD0E0CC0FDD1FCF5ADE4F099093
:100F0000D881C02DD4640DC0C11580E2D80708F087
:100F1000D1C0C11581E0D80708F05AC0C83ED1053C
:100F200010F7CE01DF91CF911F910895C03682E571
:100F3000D80718F5C03482E5D80708F06BC0C03276
:100F400082E5D80708F05FC0C11582E5D80708F42C
:100F500097C02C2F2695269580E2289F900111247A
:100F60008C2F8370C1E0D0E002C0CC0FDD1F8A95CA
:100F7000E2F7C22BD32BDD68D4CFC03A82E5D80785
:100F800060F4C03882E5D80708F459C0CF71D0E0CA
:100F9000DC2FCC27C46FD06AC4CFC03C82E5D80711
:100FA00008F462C0C03E82E5D80708F09CCFDC2F71
:100FB000CC27CC27DF71C06FD06AB3CFC55AD0E041
:100FC000C25BDE4FC881D0E0D064ABCFD065A9CF83
:100FD0008D2F0E945D06182FCE0199270E94AC0626
:100FE000C12FD0E0DC2FCC27CC27DF71C82BD92B29
:100FF00098CFCE0199270E94AC06CC27DF70C82B72
:10100000D92BD06A8ECFCF71D0E0DC2FCC27C16F27
:10101000D06A87CF2C2F26952695277080E2289FAF
:10102000900111248C2F8370C1E0D0E002C0CC0F5E
:10103000DD1F8A95E2F7C22BD32BDC6872CF2C2FF1
:1010400026952695277080E2289F900111248C2FE9
:101050008370C1E0D0E002C0CC0FDD1F8A95E2F7BB
:10106000C22BD32BDA685DCF8C2F8F710E945D0667
:10107000C82FD0E0DC2FCC27CC27DF71D06251CF36
:101080008C2F8F710E945D0655E0D695C7955A95B5
:10109000E1F7CF70D0E0DC2FCC27282F30E084FFA1
:1010A00005C044E0220F331F4A95E1F7C22BD32B32
:1010B000D06937CF8D2F8F710E945D06182FCE011A
:1010C00099270E94AC06C12FD0E0DC2FCC27CC277B
:1010D000DF71C82BD92BD2CF0E94C204089580950E
:1010E0009091C00298239093C002089580912803A4
:1010F0009091EF02981301C008958F5F8770FACF27
:10110000A82FA77023E0969587952A95E1F7FC0113
:10111000EE0FFF1FE80FF91FE60FF71F50E040E04A
:1011200080E0219130E00A2E02C0369527950A947E
:10113000E2F721703327042E01C0220F0A94EAF748
:10114000822B4F5F5F4F4330510559F70895292F88
:101150009A3068F4873090F490E065EE71E037E003
:10116000239F800D911D11240E94800808952C5FFB
:10117000223020F462EE71E090E0F6CF80E0089536
:10118000262F277091E001C0990F2A95EAF723E0F6
:10119000769567952A95E1F7FB01EE0FFF1FE60FA5
:1011A000F71FE40FF51F50E040E0682F70E08191D9
:1011B000DF0111979B01042E02C0369527950A94F2
:1011C000E2F7217021952827292328272C934F5FA8
:1011D0005F4F4330510559F70895282F862F9A30D5
:1011E00070F4273058F4622F70E027E0929F600D72
:1011F000711D112445EE51E00E94C00808959C5FC6
:101200009230E0F7622F70E042EE51E0F5CF80932C
:101210006B02089590916B0221E030E0F90101C06A
:10122000EE0F8A95EAF7D90102C0AA0FBB1F6A9593
:10123000E2F7EA2B01C0220F4A95EAF7892F8E23A5
:10124000E81305C0292B822F0E94070908952095D5
:101250002923F9CF21E030E001C0220F8A95EAF777
:10126000209580916B0282230E9407090895909136
:1012700007028095892380930702282F277069F43D
:10128000891759F09091BE0292FF07C08695869506
:1012900086950E942A0910920702089521E030E005
:1012A00001C0220F8A95EAF780916B02822B0E947F
:1012B0000709089580936A0208950F931F93CF93AF
:1012C000DF938B01EA019091E502943061F5809300
:1012D000E9008FEF9091E800815095FD06C095EDF3
:1012E0009A95F1F700008111F5CF8091E80085FF14
:1012F0001AC00E946403811111C08091E80085FD2D
:1013000006C08091E8008E778093E800F2CFF80164
:1013100081918F018093F100219779F78091E80006
:101320008E778093E800DF91CF911F910F91089500
:1013300043E050E0BC0184E00E945D09089546E06E
:1013400050E0BC0184E00E945D090895CF93DF93D3
:10135000EC0180914D01811111C048E050E0BE01C7
:1013600081E00E945D0980E2FE01A3ECB2E0019001
:101370000D928A95E1F7DF91CF9108958091BD029A
:1013800087FF05C040E284E050E0BE01EACF48E0BC
:1013900081E0FACF869A27E030E090E08F98AC01A8
:1013A000022E02C0559547950A94E2F740FF0EC001
:1013B0008E9A4AE04A95F1F700C08F9A2150310980
:1013C00068F785E18A95F1F7000008958E98F1CFCE
:1013D000CF93C1E08D37910550F0CDE0863D26E0FA
:1013E000920728F46DE770E00E94F028C62F0E9453
:1013F000D60589E90E94CA098C2F80610E94CA091A
:101400000E94D405CF91089586988E9898E080E048
:101410008F9825E02A95F1F700002FB126FB2227AF
:1014200020F9880F822B8F9A25E02A95F1F700008A
:10143000915071F70895CF930E94D60589E10E94DB
:10144000CA090E94040AC82F25E02A95F1F7000076
:101450000E94D405C0712DE7C29FC0011124CF9115
:101460000895CF93DF930E94D60583E60E94CA09B0
:101470000E94040AD82F0E94040AC82F0E94D40593
:101480008D2FD7FD80689C2FC7FD9068DF91CF918D
:101490000895ACE0B0E0EFE4FAE00C94C7284F8385
:1014A00058878B879C87162F072F0E94310A81113E
:1014B00004C0911102C0902F812F89879A8786E0FE
:1014C000FE013796DE01119601900D928A95E1F7A3
:1014D00029813A814B815C816D817E8180E090E041
:1014E0002C96E4E00C94E328879A869A219A0E942D
:1014F000D6058AEB0E94CA098AE50E94CA090E94A1
:10150000D4052FE78FEA92E0215080409040E1F728
:1015100000C000000E94310A0895B0E0A0E0E3E9B5
:10152000FAE00C94C1287C015B016A0180915B02A6
:1015300001E010E08A3010F40AE010E0C1E0D0E0F1
:10154000B501C701F6010995811104C021960C1758
:101550001D072CF4CDB7DEB7EAE00C94DD28CC9F54
:101560009001CD9F300D300D112490E080E045E3D7
:101570004A95F1F70000019682179307C1F7E0CF73
:1015800080913602811110C08091D80080618093D3
:10159000D8008AE18A95F1F700C08091D90080FFD8
:1015A0000AC081E08093360281E09091360291304A
:1015B00009F080E0089582E0809336020E9445039E
:1015C0001092E502F1CF0E94C00A882359F0E09101
:1015D000B402F091B502309729F00190F081E02D2E
:1015E0000995089580E00895CF93DF93EC010E9460
:1015F000C00A811106C0CE010E94E809DF91CF9197
:101600000895D093B102C093B002F8CFCF93DF9387
:10161000CDE0D3E060E0CE010E9443292196C115C0
:1016200084E0D807B9F7DF91CF9108950F931F9306
:10163000CF93DF93142F022F853020F5623010F501
:1016400098E0899FE001112484E0689FB001112493
:10165000C60FD71FCB51DD4F82E090E0442311F03D
:1016600090E080E0632F8C0F9D1F0E94432983E050
:1016700090E0112311F081E090E0602F8C0F9D1F0E
:101680000E944329DF91CF911F910F9108951F93DD
:10169000CF93DF93122F8530E0F46A30D0F44730D7
:1016A000C0F4C42FD0E0CC0FDD1F9EE0699FC00DB9
:1016B000D11D11249CE8899FC00DD11D1124632FD9
:1016C000CE0189960E944329612FCE018A960E94FD
:1016D0004329DF91CF911F9108958F929F92AF92EE
:1016E000BF92DF92EF92FF920F931F93CF93DF93FE
:1016F00002E515E086E9E82E82E0F82EC0E0570109
:10170000D0E015C0F401259134914D2D6D2F8C2F13
:101710000E94470B82E0880E911CD39487E0D81278
:10172000F1CF8EE0A80EB11CDF5FDA3019F0450171
:10173000D12CE8CFF8012591349141E060E08C2F65
:101740000E94160BF80132962591349140E060E03A
:101750008C2F0E94160BF80134962591349141E0AC
:1017600061E08C2F0E94160BF8013696259134917A
:1017700040E061E08C2F0E94160B085F1F4FCF5F87
:101780008CE8E80EF11CC53009F0B9CFDF91CF919C
:101790001F910F91FF90EF90DF90BF90AF909F90BF
:1017A0008F900895CF93C82F6FEF811165E285E286
:1017B00090E00E9443296FEFC11162E086E290E061
:1017C0000E9443296FEFC11169E087E290E00E9417
:1017D0004329CF91089580E00E94D20B60E088E217
:1017E00090E00E9443290E946D0B0E94060B81E04D
:1017F0000E94D20B0895FF920F931F93CF93DF9314
:10180000F42E853070F5623060F528E0829F80010B
:10181000112434E0639FB0011124060F171F0B51F0
:101820001D4F82E090E0442311F090E080E0800FB3
:10183000911F0E942529C82FD0E0DC2FCC2783E000
:1018400090E0FF2011F081E090E0800F911F0E9456
:1018500025299E01282BC901CDB7DEB7E5E00C9400
:10186000E22890E080E0F8CF0F931F93CF93DF93AF
:10187000853030F56A3020F5473010F5C42FD0E0C0
:10188000CC0FDD1F2EE0629FC00DD11D11243CE85E
:10189000839FC00DD11D1124CE0189960E94252958
:1018A000082F10E0102F0027CE018A960E942529CC
:1018B0009801282BC901DF91CF911F910F910895B5
:1018C00090E080E0F8CF7A3048F4673070F48530EB
:1018D00060F4462F672F0E94340C08957D3F41F439
:1018E000623018F441E0853050F090E080E00895D7
:1018F0007C3FD9F76230C8F78530B8F740E00E94E6
:10190000FB0B0895CF92DF92FF920F931F93CF931B
:10191000DF936C0100916B0280916A02082BC4E096
:10192000D0E010E0FC2EC8010C2E02C095958795E2
:101930000A94E2F780FD0CC02197A0F7F12C8F2DBF
:10194000DF91CF911F910F91FF90DF90CF9008957D
:10195000B6018C2F0E94630C0E944E07019761F321
:10196000EECFCF93DF93EC010E94820CBE010E9468
:10197000630C0E944E07DF91CF910895FC012481F2
:101980002223C1F0808191810E94B10C92959F70B9
:10199000963091F058F4925F9F70923058F4803FE7
:1019A00019F030F4883E30F481E008959A5FF4CF66
:1019B000843FD1F380E00895883EB0F3813FD1F7B2
:1019C000F3CFA6E0B0E0E7EEFCE00C94C828498332
:1019D0005A8349815A819923A1F0222391F0CA01A7
:1019E0000E94820C182F682F89819A810E94ED082D
:1019F00069817A81812F0E94630C2696E3E00C9422
:101A0000E428CA010E94A708182FF2CF85E290E0CF
:101A10000E942529853289F486E290E00E942529DA
:101A2000823059F487E290E00E94252991E08930C4
:101A300009F090E0892F8170089580E0FCCFCF936A
:101A400061E972E086EA92E00E94DA04C82F8823F6
:101A500021F086EA92E00E94B0059091A70286E00C
:101A6000E6EAF2E0DF01282F1D922A95E9F790932C
:101A7000A702A1E9B2E001900D928A95E1F781E019
:101A8000C11103C0911101C080E08170CF91089510
:101A90002F923F924F925F926F927F928F929F927E
:101AA000AF92BF92CF92DF92EF92FF92CF93DF93EC
:101AB000CDB7DEB7A6970FB6F894DEBF0FBECDBF89
:101AC0000E94C00A811118C080E0A6960FB6F89453
:101AD000DEBF0FBECDBFDF91CF91FF90EF90DF90C3
:101AE000CF90BF90AF909F908F907F906F905F90BE
:101AF0004F903F902F9008954091AC025091AD02CD
:101B00006091AE027091AF022FB7F8948091B90244
:101B10009091BA02A091BB02B091BC022FBF4817AE
:101B200059076A077B0781F20E94C2046093AC02E6
:101B30007093AD028093AE029093AF020E94C00AF0
:101B40008111CDC04091A6025091A7026091A802D8
:101B50007091A9028091AA029091AB020E94490A59
:101B60002093A6023093A7024093A8025093A902A3
:101B70006093AA027093AB0286E0E6EAF2E0DE012F
:101B8000179601900D928A95E1F786E0FE0137964F
:101B9000DE011D9601900D928A95E1F786E0FE0127
:101BA0003D96DE01119601900D928A95E1F786E04F
:101BB000FE013196A6EAB2E001900D928A95E1F716
:101BC00086E0E6EAF2E0DE01599601900D928A95F0
:101BD000E1F786E0FE017996DE01179601900D92FD
:101BE0008A95E1F7DB8CBC8C80919802882309F4FC
:101BF00080C08CE494E00E94F40A6D2DDD0C770B1C
:101C0000880B990B0E94262A2B013C016B2DBB0CE3
:101C1000770B880B990B0E94262A4B015C01AC01C3
:101C20009B01C301B2010E9477292DEC3CEC4CECE6
:101C30005EEB0E941A2B0E94EE29F62EA50194015C
:101C4000C301B2010E9478292DEC3CEC4CEC5EE320
:101C50000E941A2B0E94EE29E12C712C7986EA86CB
:101C60006B87FC8686E0FE013796DE0111960190B7
:101C70000D928A95E1F786E0FE013196DE015396DA
:101C800001900D928A95E1F786E0FE017396DE01E0
:101C9000179601900D928A95E1F786E0FE0137963E
:101CA000A6EAB2E001900D928A95E1F786E0E9E9B3
:101CB000F2E0DE01179601900D928A95E1F780918E
:101CC000A7029885892B8093A7020E941F0D81117E
:101CD00084C080919F02817010929F02F6CE86E0B0
:101CE000E0EAF2E0A6EAB2E001900D928A95E1F70F
:101CF00043CF8D2D992781950CF490957C0180918F
:101D00009702882351F084EF91E00E94F40A7B2C23
:101D10007D18EB18F12C60E0A1CF80914B019091E0
:101D20004C010E94F40AB701FF0C880B990B0E942A
:101D3000262A6B017C012090470130904801409099
:101D4000490150904A016B2DBB0C770B880B990B06
:101D50000E94262A6F8F78A389A39AA380904301BB
:101D600090904401A0904501B0904601A2019101DC
:101D7000C701B6010E941A2B6BA37CA38DA39EA35F
:101D8000A50194016F8D78A189A19AA10E941A2BB7
:101D90009B01AC016BA17CA18DA19EA10E94782921
:101DA0000E94EE29762EA5019401C701B6010E947A
:101DB0001A2B6B017C012F8D38A149A15AA1C201B8
:101DC000B1010E941A2B9B01AC01C701B6010E9410
:101DD00077290E94EE29E62E9DCF81E090E07BCF0F
:101DE000662309F472C08D3C41F40E941606819569
:101DF00080939C020E94D80508958E3C19F40E949D
:101E00001606F6CF8F3C31F40E941606819580931A
:101E10009B02F0CF803D19F40E941606F8CF893D51
:101E200029F40E94F40580939D02E4CF8A3D21F4B9
:101E30000E94F4058195F7CF8B3D31F40E94F405A3
:101E4000819580939E02D6CF8C3D19F40E94F405B3
:101E5000F8CF9FE2980F983020F5282F215D330BA3
:101E6000A90121E030E001C0220F4A95EAF79091E4
:101E70009A02922B90939A02815D21E030E0A901B1
:101E800002C0440F551F8A95E2F7CA012091A702AC
:101E9000662309F493C0822B8093A7020E941F0D32
:101EA00008958D3D31F480918C02816080938C0285
:101EB000A1CF8E3D21F480918C028260F7CF8F3DBF
:101EC00019F580918C028460F1CF90919B028D3C3A
:101ED00059F420919C0227FF0DC010929C02911191
:101EE0000BC010928A0208C08E3CB1F420919C0273
:101EF00012169CF39923B1F090919D0220919E02BD
:101F0000922B11F410928B02482F415D550B4830F3
:101F1000510508F4B1CF6ECF8F3C39F497FFEACF6B
:101F200010929B0290919C02DACF803D19F4191611
:101F3000BCF3E0CF20919D02893D29F41216D4F61E
:101F400010929D02D7CF8A3D19F427FFD3CFF8CF47
:101F500020919E028B3D29F427FFCCCF10929E0248
:101F6000C9CF8C3D19F41216CCF3C4CF2FE2280F41
:101F7000283088F4282F215D330BA90121E030E0BF
:101F800001C0220F4A95EAF7209530919A02232347
:101F900020939A02AFCF20918C022E7F8D3D59F075
:101FA00020918C022D7F8E3D31F08F3D09F0A2CF24
:101FB00020918C022B7F20938C029CCF80958223D2
:101FC0006BCF9091BE0292FB222720F9281779F05F
:101FD00080FB92F99093BE026091BD027091BE02A7
:101FE00084E090E00E94612982E00E943709089510
:101FF0004F925F927F928F929F92AF92BF92CF92B9
:10200000DF92EF92FF920F931F93CF93DF930F9284
:10201000CDB7DEB7C62E4A015901482E880F5508A4
:10202000C2010E944328782E882309F480C0C2018F
:1020300033E0880F991F3A95E1F7FC01EE5FFE4F00
:10204000438150E04115510511F041E050E08E5FB1
:102050009E4FFC01648175816C5B7D4FCE010196C2
:102060000E94E52BF40140815181628173812FB779
:10207000F8948091B9029091BA02A091BB02B091FC
:10208000BC022FBF841B950BA60BB70B84369105A2
:10209000A105B10540F4B701C8010E94BE059981B0
:1020A000891709F444C00C2C000CDD08C6010E94FD
:1020B0004328782E811113C0712C872D0F90DF914A
:1020C000CF911F910F91FF90EF90DF90CF90BF9035
:1020D000AF909F908F907F905F904F900895C60132
:1020E00023E0880F991F2A95E1F7FC01EE5FFE4F70
:1020F000438150E0E416F50608F4A7018E5F9E4F79
:10210000FC01648175816C5B7D4FC5010E94E52BEC
:10211000B701C8010E94BE0599818913CDCF0E94E5
:10212000C204F4016083718382839383C6CFA701C5
:10213000B801C5010E94E52BC0CFACE0B0E0E3EAF6
:10214000F0E10C94C5280E94C00A882309F454C009
:1021500086E0E82EF12C0DE412E09E01295F3F4F4E
:1021600047E552E065E084E00E94F80F882391F093
:1021700096E0FE013796DE01119601900D929A9538
:10218000E1F796E0FE013196A0EAB2E001900D92EF
:102190009A95E1F70091B0021091B1020115110575
:1021A00039F120915502309156022017310701F183
:1021B00010935402009353028091330190913401A3
:1021C0008C5B9D4F4091320150E04330510510F03F
:1021D00042E050E063E572E00E94E52B86E090E08B
:1021E0000E944328882321F0109356020093550241
:1021F0002C96E6E00C94E12881E0FACFA5E0B0E06F
:10220000E4E0F1E10C94C3286B0185E0E82EF12CA9
:1022100005E412E09E012F5F3F4F4CE352E061E086
:1022200080E00E94F80F882349F095E0FE01319686
:10223000A7E3B2E001900D929A95E1F795E0E7E30C
:10224000F2E0D60101900D929A95E1F72596E8E02B
:102250000C94DF28A9E1B0E0E0E3F1E10C94BE28A2
:102260008E010F5F1F4F8AE0D8011D928A95E9F712
:1022700089E8C82E81E0D82EF12CE12CAA24A39461
:10228000B12C25E9822E21E0922EF60181916F0179
:102290008F3F09F442C0F894E82FE295EF70F0E028
:1022A00021A18F70A50102C0440F551F8A95E2F746
:1022B000CA01922F982B91A392A18095892382A382
:1022C000789400C0EEE8F1E0712C31E021912F3FCD
:1022D00009F46BC0A22FA295AF70B0E090968C91DC
:1022E00090E02F7002C0959587952A95E2F780FDC2
:1022F0005CC0832F782A330F8E169F0639F7F601BC
:10230000319780818F3F11F00E94460650EA5A951E
:10231000F1F7F801EE0DFF1D70828FEFE81AF80A51
:1023200095E0E916F10409F0B0CF4AE050E0B801B9
:102330008EE592E00E94D82B009741F02AE0F80148
:10234000AEE5B2E001900D922A95E1F700916902A5
:10235000892B69F181E080932E020E94CE04909334
:102360002D0280932C0280912C0290912D020E94CC
:10237000B304059700F110E000581D4F45E050E010
:102380006EE572E0C8010E94D82BC12C892B51F058
:1023900085E0EEE5F2E0D80101900D928A95E1F733
:1023A000CC24C39410922E0207C080E0A3CF80916A
:1023B0002E028111D8CFC12C0E94C00AD82EE091E4
:1023C0006902DE011B967D01882309F470C085E057
:1023D0001D928A95E9F70E2F10E000581D4F80914D
:1023E0005B028A3068F54EEF50E1B701C8010E94E8
:1023F0008D0A882309F44AC048E250E2B701C801B7
:102400000E948D0A882309F441C04DE950E1B701CB
:10241000C8010E948D0A8823C9F110925B02809145
:10242000680290E045E050E0B70180589D4F0E945F
:10243000D82B21E020933502892BB1F4D12C20C078
:1024400080912F02909130020E94B304843F91400A
:1024500050F680913502882389F385E0F7011192C7
:102460008A95E9F710923502A0916802B0E0A05871
:10247000BD4F85E0FE013B9601900D928A95E1F7F4
:102480008D2D8C296996EDE00C94DA2880915B0201
:102490008F3F31F08F5F80935B028A3008F4BFCFAB
:1024A0000E94CE049093300280932F02D2CFF0E0AE
:1024B000E058FD4F85E0A5E4B2E001900D928A95C9
:1024C000E1F765E070E085E492E00E94BE0580934C
:1024D000440240917C0250E060917B0270E06958B8
:1024E0007D4FC7010E94E52B8B8580934B0261E0F5
:1024F00070E0C7010E94BE0580934A020E94C00A94
:102500008111BECF4091310250913202609133026D
:10251000709134022FB7F8948091B9029091BA0269
:10252000A091BB02B091BC022FBF481759076A07A0
:102530007B0709F4A5CF0E94C20460933102709317
:10254000320280933302909334020E941B0A9C0152
:1025500099E0ECE4F2E0D70101900D929A95E1F751
:102560008A899B89009729F02817390711F00E9462
:10257000E809FE01749686E0DF011D928A95E9F76D
:102580004C895D896E897F89888D998D0E94490A61
:102590002C873D874E875F87688B798B66E070E07C
:1025A000CE010C960E94BE058B8789E0F701ACE452
:1025B000B2E001900D928A95E1F740CF8091C00280
:1025C00090912902892B8093B6019091280299233A
:1025D000A1F0892B8093B60180914D018823E1F110
:1025E0008091BD0287FF38C08EE1E8EBF1E090E01A
:1025F0008150A0F591111092280240E250E068E06D
:1026000072E086EB91E00E94D82B892B21F180E2C9
:10261000E6EBF1E0A8E0B2E001900D928A95E1F7D7
:10262000E091B402F091B5023097A9F080914D018C
:10263000882359F08091BD0287FF07C08091B601C1
:102640008093B70186E08093B6010280F381E02D8C
:1026500086EB91E00995089586E0C7CF219122236A
:1026600039F29F5FC5CF80914D01E8EBF1E08823FF
:1026700029F18091BD0287FF21C08EE1DF011D920B
:102680008A95E9F790E080E00E948B0590E080E079
:102690000E946605109229020E94DE1286E0E9E996
:1026A000F2E0DF011D928A95E9F710928A021092FA
:1026B0008B0210928C020E94D805089586E0DECF2E
:1026C000AAE2B0E0E6E6F3E10C94C82887EE92E0D7
:1026D0002091F100DC012D93CD01B2E08F3E9B07EC
:1026E000B9F78091E802833009F472C0B8F4813000
:1026F00009F449C0823009F4B5C08091E80083FF35
:102700008DC28091E7029091E8029A3008F086C26B
:10271000E92FF0E0E051F44D0C9418298A3009F4C7
:1027200090C08B3009F471C0893039F78091E7028D
:10273000813219F78091EB029091EC02009711F031
:102740000297D9F68091E800877F8093E800809116
:10275000E80082FF38C09091F3008091F200029768
:1027600031F48091F100813011F0863021F48091B4
:10277000F1008093C2028091E8008B778093E8009B
:102780000E949503BACF8091E702813A09F0B5CF54
:102790008091E800877F8093E8008091EB02909120
:1027A000EC02892B61F460E283EC92E070E00E941D
:1027B00041048091E8008B778093E8009ECF60E031
:1027C00090E080E0F3CF8091E5028111C0CF95CFFA
:1027D0008091E702813A09F090CF8091EB029091CD
:1027E000EC02892B09F089CF8091E800877F8093E4
:1027F000E8008091E80080FFFCCF80914D0180933C
:10280000F1008091E8008E77B9CF8091E7028132A4
:1028100009F073CF8091EB029091EC02892B09F0C3
:102820006CCF8091E800877F8093E8000E94950339
:102830008091E90280934D011092C0020E943313EF
:102840005CCF8091E702813209F057CF8091E80098
:10285000877F8093E8000E9495038091EA0280932D
:10286000C1024BCF8091E702813A09F046CF8091B7
:10287000E800877F8093E8008091E80080FFFCCF2C
:102880008091C102BCCF803899F0823809F0C6C16E
:102890008091EB028F70873008F0C0C18093E9000F
:1028A0008091EB0085FB882780F91092E90006C033
:1028B0008091E3029091E402911182609091E8008E
:1028C000977F9093E8008093F1001092F10080913F
:1028D000E8008E779FC1882309F48DC1823009F00A
:1028E0009DC18091E902811190C18091EB028F70AE
:1028F0002FEF280F263008F091C18093E900209136
:10290000EB0020FF82C1933031F48091EB008062B4
:102910008093EB007AC19091EB0090619093EB0073
:1029200021E030E001C0220F8A95EAF72093EA0007
:102930001092EA008091EB008860EACF81116EC1AD
:102940001091E9021F778091E3008078812B8093BA
:10295000E3008091E800877F8093E8000E94950360
:102960008091E80080FFFCCF8091E3008068809335
:10297000E30082E0111183E08093E5024FC18058AB
:10298000823008F04BC12091E9023091EA022C3DDF
:10299000E3E03E07A1F583E08A838AE289834FB7AB
:1029A000F894DE01139620E03EE051E2E32FF0E0E0
:1029B00050935700E49120FF03C0E295EF703F5F12
:1029C000EF708E2F90E0EA30C0F0C7968D939D9304
:1029D0002F5F243159F74FBF8091E800877F8093A4
:1029E000E8006AE270E0CE0101960E944104809105
:1029F000E8008B778093E80011C1C096E7CF809103
:102A0000EB029091EC02432F55274330510509F416
:102A10004AC078F54130510509F47AC08BE590E061
:102A2000EAE7F5E04230510509F0F8C02091E800EE
:102A3000277F2093E8002091ED023091EE0282176B
:102A4000930708F49C0140E02115310509F065C0A9
:102A5000411163C08091E80082FDC9CF8091E502F9
:102A6000882329F2853019F28091E80083FFF2CFA4
:102A7000BECF4132510509F43CC04232510509F044
:102A8000CDC08330910508F0C9C0FC01EE0FFF1FD7
:102A9000E855FE4F0190F081E02D8B559E4FDC01F3
:102AA0008C9190E01AC0332721303105D1F02115E7
:102AB000310561F02230310509F0B0C0E7EEF5E0F4
:102AC000E4918E2F90E0E7EEF5E007C0E9E0F6E054
:102AD000E4918E2F90E0E9E0F6E0009709F49EC0C3
:102AE000A5CFE7EFF5E0E4918E2F90E0E7EFF5E07A
:102AF000F4CF8330910508F091C0880F991FFC0135
:102B0000E255FE4F0190F081E02D89E090E08ECFFC
:102B100082E190E0E5EDF5E089CF8091E502882340
:102B200009F465CF853009F462CF8091E80083FD18
:102B30005ECF8091E80082FD8DCF8091E80080FF1C
:102B400083CF9091F3008091F2002115310519F0A7
:102B50008830910550F041E0089709F040E08091FD
:102B6000E8008E778093E8006FCF44914093F100A6
:102B70003196215031090196E8CF803809F04EC0D6
:102B80008091E800877F8093E8008091E60280933F
:102B9000F1009DCE811142C01091E9021230F0F592
:102BA0008091E800877F8093E8001093E6020E94FE
:102BB0009503112311F084E005C08091E30087FDA7
:102BC000FACF81E08093E50242E061EC81E00E946F
:102BD000B40342E261EC84E00E94B40342E261EC9F
:102BE00082E00E94B40342E260EC83E00E94B403FE
:102BF0008091E50213C08091E902813079F481E08F
:102C0000933009F080E08093E4021092E900809113
:102C1000E800877F8093E8000E9495038091E80098
:102C200083FF0AC08091E800877F8093E80080914D
:102C3000EB0080628093EB00AA96E3E00C94E4281A
:102C40001092C0020E9433132FEF84E39CE02150C6
:102C500080409040E1F700C0000088E19AE00FB6A4
:102C6000F894A895809360000FBE90936000FFCF0A
:102C7000882321F00E946F080E94DE1208958823A5
:102C800039F09091C002982B9093C0020E94DE12FE
:102C90000895882399F19CEF980F913A40F4682F9A
:102CA00086EB91E00E9407050E94DE12089590E2F3
:102CB000980F983050F4877091E001C0990F8A9571
:102CC000EAF7892F0E946F08EFCF9BE5980F9330AA
:102CD00028F490E080E00E948B05089598E5980F15
:102CE0009B3128F490E080E00E946605089593E30C
:102CF000980F933118F460E00E94F00E0895CF937E
:102D0000C82F8823D9F18CEF8C0F813AC8F58091B8
:102D10004D01882311F18091BD0287FF1EC0EC2F69
:102D2000E695E695E695F0E0EA54FE4F828190E064
:102D30004C2F477021E030E002C0220F331F4A952C
:102D4000E2F782239323892B91F06C2F86EB91E09D
:102D50000E9407050E94DE120AC0E8EBF1E08EEB4C
:102D600091E02191C21789F38E179F07D1F76C2F3D
:102D700086EB91E00E9431050E94DE12CF9108950A
:102D800080E28C0F883068F4C77021E030E001C029
:102D9000220FCA95EAF78091C002822B8093C0026D
:102DA000EBCFEBE5EC0FE33040F4F0E0E25BFE4FFD
:102DB000808190E00E948B05E1CFE8E5EC0FEB31DC
:102DC00050F4F0E0EE0FFF1FEF5AFE4F808191812B
:102DD0000E946605D3CF83E38C0F833178F661E0E0
:102DE0008C2F0E94F00ECACF1F93CF93DF93182F22
:102DF000EB010E947F16209739F4812F0E9449161B
:102E0000DF91CF911F9108958FE99FE00197F1F72E
:102E100000C000002197EFCFA8E0B0E0E2E1F7E1C9
:102E20000C94BB288C01DC0114968C911497882398
:102E300009F4BEC021E04C9111965C911197129655
:102E40006C91129713967C91139715969C910E9402
:102E5000E10C7C01F8018581882309F44BC1C7018D
:102E600097578038910508F045C1FFE0FE1508F43A
:102E70008FC08FEF93E00E942529811189C06DE0FA
:102E8000A62E63E0B62EE1104DC0FE01339686E01B
:102E9000DF011D928A95E9F75AE0452E7501BFEFD3
:102EA000EB1AFB0AC5010E94252989831A8288230F
:102EB00009F46EC0813009F07FC06501E2E0CE0EFA
:102EC000D11CC7010E9425298A83882309F460C088
:102ED0009FEF980F9330A0F5F3E0AF0EB11CC60141
:102EE0000E9425298B83882309F452C01C82DE01AD
:102EF00011967D01F7012081222381F2213009F012
:102F00009BC091818281913009F058C0F2E0EF0EB0
:102F1000F11C70E060E0893311F460E570E00E941C
:102F2000F41653C0A11424E0B20691F1C5010E9429
:102F30002529811101C0EA943FEFA31AB30AA3CF58
:102F400056018430A1F642E0E42EF12C56012FEF19
:102F5000A21AB20AC6010E942529E1E0F0E0EC0FB6
:102F6000FD1FEE0DFF1D8083882391F08C3741F407
:102F7000E2E0F0E0EC0FFD1FEE0DFF1D1082B7CF79
:102F80003FEFE31AF30A650187E0E816F104F1F672
:102F900080910702877061F0D80115968C91882383
:102FA00039F08091BE0282FF03C082E00E9437099F
:102FB0002896E0E10C94D728570199CF923049F434
:102FC00022E0E20EF11C0E947F16FFEFEF1AFF0ACB
:102FD00091CF933031F432E0E30EF11C0E94491698
:102FE000F4CF943021F08FEFE81AF80AEECF92E098
:102FF000E90EF11C30E020E0B7016F5F7F4FD70191
:1030000011964C918053990B8A30910550F02150C4
:103010003109D8F2EFE9FFE03197F1F700C0000085
:10302000F6CF429EF001439EF00D11249C012E0F1D
:103030003F1F842F7B01E0CFE22FF0E0EA5EFD4FDF
:103040005490822F86958695869590E0FC01EA5FE4
:10305000FD4F64902770712C022E02C07594679406
:103060000A94E2F731E063227724FC01EA50FE4F34
:103070008490912C022E02C0959487940A94E2F7D2
:10308000A1E08A229924FC01EA51FE4FC490D12C80
:1030900002C0D594C7942A95E2F7B1E0CB22DD2493
:1030A0006114710419F081EE0E947F16811491045D
:1030B00019F086EE0E947F16E9E370E060E05E1290
:1030C00002C060E570E0852D0E94F4168114910421
:1030D00019F086EE0E9449166114710419F081EE10
:1030E0000E944916C114D10409F46FCF70E060E06A
:1030F0008CE215CF82EE94E00E94F40AF701E154CD
:10310000FE47D80115968C91EF30F10508F00FC2FB
:10311000E650F44D0C941829882381F081E08093C7
:10312000DF0180939802F801828193819093DE0100
:103130008093DD0181E00E944E092ACF109298020F
:1031400081E00E942A098091DF01882399F0D8014B
:1031500012968D919C912091DD013091DE01821BB0
:10316000930B883C910530F48AE80E947F168AE828
:103170000E9449161092DF010BCF882371F081E085
:103180008093DC0180939702F80182819381909370
:10319000DB018093DA0182E0CECF1092970282E0C9
:1031A0000E942A098091DC01882399F0D8011296A7
:1031B0008D919C912091DA013091DB01821B930B60
:1031C000883C910530F48BE80E947F168BE80E94C2
:1031D00049161092DC01DCCE882371F081E08093E7
:1031E000DC0180939802F801828193819093DB0146
:1031F0008093DA0183E09FCF1092980283E00E94CF
:103200002A098091DC01882321F3D80112968D913F
:103210009C912091DA013091DB01821B930B883C59
:103220009105B8F689E20E947F1689E2D0CF882303
:1032300071F081E08093DC0180939702F801828134
:1032400093819093DB018093DA0184E074CF109234
:10325000970284E00E942A098091DC01882309F406
:10326000B8CFD80112968D919C912091DA013091BE
:10327000DB01821B930B883C910508F0AACF8BE2FF
:103280000E947F168BE2A3CF882309F481CE8BE8BE
:103290000E947F168BE80E94491681EE0E947F16DD
:1032A00084E20E947F1684E20E94491684E20E9412
:1032B0007F1684E20E94491681EE0E94491680E53D
:1032C0000E947F1680E50E94491662CE882309F489
:1032D0005FCE8BE80E947F168BE80E94491681EE34
:1032E0000E947F1685E20E947F1685E20E944916A1
:1032F00086E20E947F1686E2DDCF882309F448CE5D
:103300008BE80E947F168BE80E94491681EE0E948E
:103310007F1680E20E947F1680E20E94491681EEAD
:10332000D2CF882309F434CE8BE80E947F168BE835
:103330000E94491681EE0E947F1686E30E947F1646
:1033400086E30E94491681EE0E94491685E00E949C
:103350007F1685E00E94491685E10E947F1685E16F
:103360000E94491681EE0E947F1687E30E947F1615
:1033700087E3D3CF882309F40BCE8BE80E947F1616
:103380008BE80E94491681EE0E947F1684E30E941A
:103390007F1684E3C2CF882309F4FACD80914B01D4
:1033A00090914C0183589F4F8036B5E09B0768F49D
:1033B000909301018093000180910001909101019F
:1033C00090934C0180934B01E3CD8FE595E0F0CFD6
:1033D000882309F4DDCD80914B0190914C018D57EC
:1033E00091098D37910520F78DE790E0E1CF882393
:1033F00009F4CECD82EE94E0E3CF882309F4C8CD62
:1034000020E030E040E450E46091D6017091D701B3
:103410008091D8019091D9010E9478296B017C019B
:1034200020E030E044EB53E40E94152B18164CF0DA
:10343000C092D601D092D701E092D801F092D90182
:1034400008C01092D6011092D7011092D8011092A4
:10345000D90125E33AEF4EE85CE36091D601709123
:10346000D7018091D8019091D9010E941A2B6B014C
:103470007C010E94E9296093470170934801809381
:10348000490190934A01C701B6010E94872B6093BE
:10349000430170934401809345019093460178CD98
:1034A000882309F475CD20E030E040E450E46091D9
:1034B000D6017091D7018091D8019091D9010E94D5
:1034C00077296B017C0120E030E0A9010E94E4290A
:1034D00087FFAECF80E090E0A4EBB3E48093D60109
:1034E0009093D701A093D801B093D901B2CF88238C
:1034F00009F44ECD1092D6011092D7011092D80146
:103500001092D90180E090E0A0E8BFE380934701EA
:1035100090934801A0934901B0934A0180934301DD
:1035200090934401A0934501B093460131CD882387
:1035300009F473C21092DF011092DC01E6E1EE168D
:10354000ECE7FE0609F07CC28091C0028A7A91E025
:1035500009F490E09093E00169E2811165E386EB64
:1035600091E00E9431050E94DE1212CD8091E001AF
:1035700069E2811165E386EB91E00E940705F3CFD4
:1035800081E00E944E0903C081E00E942A0943E0C5
:1035900062E081E00E940A09FBCC9BE5E9169CE70A
:1035A000F90671F1ACE5EA16ACE7FA06F9F0BAE50E
:1035B000EB16BCE7FB0609F063C281E01EC0109267
:1035C000C0020E943313EFEFF4E32CE0E150F0402F
:1035D0002040E1F700C000000E94A2046FEF7FEFDF
:1035E00090E080E00E9461290E9420168091BE0236
:1035F00082FB882780F991E089270E94E10F40C271
:1036000080E0FBCFC7010E94A708D82E48C2EF2D4B
:10361000EF70DE2E8F2D807F19F0D29490EFD9229B
:10362000AA20B9F0DD2069F080E28E0D883010F01C
:10363000811009C08091C002D82AD092C0020E9495
:10364000DE128E2D45C080912902D82AD0922902FF
:10365000F6CF8E2D0E944916DD20E1F180E28E0D1D
:10366000883010F0811004C08D2D0E946F0806C0B4
:10367000D09480912902D822D09229020E94DE1291
:1036800029C0FF2DFF70DF2E8F2D807F803219F033
:10369000D29480EFD822882059F021E0821609F4D4
:1036A00081C0AA2009F48DC0992009F44FC0C9CF68
:1036B0008091BE0282FD46C0AA20F1F1DD2039F0E2
:1036C0008091C002D82AD092C0020E94DE1280E00F
:1036D0000E947F16AB2DA850BB0B149710F40E94CC
:1036E000E30ACC20A9F08091070280FD11C0F80107
:1036F00015828695869586950E944E09C8010E947E
:103700000C17809107028695869586950E942A0956
:1037100020E0D8014C9111965C91119712966C9112
:10372000129713967C91139714968C911497159673
:103730009C910E94E10C3CCC80E00E944916DD2067
:1037400049F292CFAA20A1F0911004C08D2D0E94C1
:103750003F16C0CF31E09312BDCF809128029D2D3E
:103760009823D91609F4B6CFD82AD0922802B2CF1E
:103770009110B0CF8D2D0E943816909128028D2D7A
:10378000892329F08D2D80958923809328028091AB
:10379000E1019D2D982309F49DCFD094D822D09299
:1037A000E10198CFAA2029F085E0891508F492CF8D
:1037B000CDCF94E0991508F48DCF8D2D0E94381649
:1037C00089CF9920D1F3A9E38A1209C0BFEFE7EEB0
:1037D000F3E0B150E040F040E1F700C000008E2D72
:1037E0000E94491677CF8F2D86958695837061F05C
:1037F000813009F06FCFC7019370A11002C080E043
:1038000090E00E94660566CFC7019370A11002C0C8
:1038100080E090E00E948B055DCF6A2D8E2D0E9486
:10382000F00E58CF8F2D837091F5A11053CF4E2DF0
:10383000429546954770440F440F8E2D8F70042E8D
:1038400001C0880F0A94EAF72E2D2071E4FE07C00C
:103850002FE030E001C0220F4A95EAF720953F2D76
:10386000369536953370323069F050F440916A02E3
:10387000313029F0822B84230E945A092BCF842BCC
:10388000822BFACF282B80916A028227F5CF86956A
:10389000AA2011F08F2D8170882309F41BCF4E2DA3
:1038A000429546954770440F440F8E2D8F70042E1D
:1038B00001C0880F0A94EAF72E2D2071E4FE07C09C
:1038C0002FE030E001C0220F4A95EAF720953F2D06
:1038D000369536953370323069F050F440916B0272
:1038E000313029F0822B84230E940709F3CE842BE8
:1038F000822BFACF282B80916B028227F5CF2F2DB8
:103900002F70F22EAA2029F0822F0E944E098E2DB0
:103910001ECF8E2D0E9438168F2D0E942A09DACED6
:103920008E2D32EF8316B1F1381570F090EF8916B5
:10393000D1F0A1EF8A1691F0AA2009F45EC091108F
:1039400080CE8F2D8F712AC0B3EF8B1651F1E4EF2B
:103950008E12F2CF8091BE0282FD2FC08F2D8F710B
:10396000AA20D9F21BC0AA2081F0F4E0F91508F4CE
:10397000B1CE2F2D2F7181E090E001C0880F2A95E4
:10398000EAF790916B028927AFCF25E0291508F45B
:10399000A1CEEFCF8F2D8F71A110BFCF0E944E0906
:1039A00099CE80E0AA2009F49FCF9F2D9F7181E0DE
:1039B00001C0880F9A95EAF797CFAA2099F03F2D7A
:1039C0003F71F32E832F0E944E098091BE0282FF29
:1039D00007C0A8E0FA9EC00111248360809307020B
:1039E0008F2DDCCF81E00E943709B1E0B91508F0D6
:1039F00071CE82E00E9437096DCE992059F089334B
:103A000009F0EDCEEFEFF7EE23E0E150F04020407B
:103A1000E1F7E3CE8F2D8F7180CFB6E1EB16BCE7D7
:103A2000FB0609F4A3CD27E7E2162CE7F20609F41A
:103A3000ABCD38E7E3163CE7F30611F582E0A5CD00
:103A4000E7E7EE16ECE7FE0609F49ACD82E0F8E728
:103A5000EF16FCE7FF0609F494CDF3E0EF16FCE760
:103A6000FF0609F4BBCD08F098CDE1143CE7F3065E
:103A700009F4A5CD81E0E8168CE7F80609F4B4CD89
:103A8000F8018581E080F180882309F4BBCDC7016E
:103A90000E94820CD82E682FC7010E94ED08B70142
:103AA0008D2D0E94630C0E944E077C01882ED80148
:103AB0001596AC90159716969C9092943FE09322A1
:103AC000809107028770F1F0CA2CAA20E1F08F2DB7
:103AD000807F803451F080E28E0D883098F0911014
:103AE00004C08F2D807E803269F08091BE0282FFFB
:103AF00009C082E00E943709809107028770CC24B8
:103B0000C3948111C12CBF2CB2942FE0B222BBE030
:103B1000BB1508F4DFCDEB2DF0E0E75FF34D0C941F
:103B20001829CF93DF9380910602807F09F04DC062
:103B300080910502882309F448C0E0912803509140
:103B4000EF02C0910102D0910002609102027091D7
:103B5000030247E05E17C9F18E2F90E0E49FF00169
:103B60001124E051FD4F2481222391F1489FF0015F
:103B7000499FF00D1124DF01A051BD4F11962C91EA
:103B800011972C1325C02C912D1322C015962C9122
:103B9000159721111DC012962D913C91261B370BB4
:103BA000283C3105A8F4809106028F7080618093D3
:103BB0000602EA50FD4F80818F708061808380E033
:103BC00092E00E940C170E947608DF91CF91089531
:103BD000FC013196E770BECFA4E1B0E0E2EFFDE179
:103BE0000C94BF288C0186E0F801DE011F9601903D
:103BF0000D928A95E1F7F8018481E58090E0A92E85
:103C000092E0B92E90910402911128C0882319F1F5
:103C1000EE20F1F0C8010E94BE0CF82E8823C1F0FE
:103C200087E0F801D50101900D928A95E1F7809126
:103C30000402813031F480910002909101020E94CF
:103C4000B10C0E94911D8F2D6496ECE00C94DB2842
:103C5000C8010E940C17FF24F394F5CFD080C180D7
:103C600082809380F090050220910202309103023D
:103C7000A401421B530BFF2009F4D9C0483C510555
:103C800008F092C08823F9F2909101028091060217
:103C9000282F207F09F056C0C91214C0909100024D
:103CA000D91210C0E11048C08F7080618093060265
:103CB00080E092E00E940C1780910602F801868352
:103CC000F12CC1CFE11038C06C2D8D2D0E94260340
:103CD0006C2D8D2D0E942603E82E8111F1CFDF86F9
:103CE000C88A8F8598890E94B10C292F22952F7040
:103CF000243058F49F70223088F0992399F0F8010D
:103D00009681907F79F4FE2C9ECF2A5F2F7022300F
:103D100068F0C8010E940C17EF2CF5CF992311F021
:103D2000882389F3805E883070F3F3CF803F58F3A7
:103D3000815F833070F7E7CF8091060281608093C6
:103D40000602BECFC91207C090910002D91203C06B
:103D5000EE2009F48DC0C8010E94BE0C882309F42E
:103D600077CFEE2009F474CF80910602803288F07C
:103D70002091000230910102398728879B868A862C
:103D8000909104029C871D868E87CE0108960E9422
:103D90000C1787E0F801A0E0B2E001900D928A953F
:103DA000E1F70E94911D57CF90910602292F207FA5
:103DB00051F480E092E00E940C1787E0F501119227
:103DC0008A95E9F77DCF882309F43DCF80910102E0
:103DD0008C1110C080910002D8120CC0E1100AC0F2
:103DE0009683C8010E940C1787E0F50111928A950D
:103DF000E9F729CFC8010E94BE0C882309F428CF17
:103E0000EE2009F425CF80910602803210F2209135
:103E10000002309101023A8329839C828B82909127
:103E200004029D831E828F83CE010196B0CF483C51
:103E30005105D0F6882309F40ECFFE2CEE2009F4AC
:103E400007CF809101028C1120C080910002D8120E
:103E50001CC08091060280FD0FC0982F907F61F0FA
:103E60008683903F31F0982F907F905F8F70892BE1
:103E70008683C8010E940C1787E0F801A0E0B2E039
:103E800001900D928A95E1F7DECEC8010E94BE0C2A
:103E900081117FCF80910602816080930602C80164
:103EA0000E940C17D0CEABE1B0E0E9E5FFE10C9445
:103EB000C7284E8B5F8B688F798F8A8F9B8F192FC6
:103EC0009111109229021D8A86E0FE017696DE018C
:103ED0001F9601900D928A95E1F70A8D002341F01B
:103EE00021E04F85588969897A89C8010E94E10CCF
:103EF0000B8B1C8B87E0FE013F96DE01189601902C
:103F00000D928A95E1F7CE0108960E94EC1D811171
:103F10000CC087E0FE013896DE01119601900D92EB
:103F20008A95E1F78C8581110BC017E080912803F9
:103F30009091EF02891333C06B96E4E00C94E32870
:103F40002091EF0230E0C9010196877099274091D6
:103F500028034817190699F097E0929FD001939F84
:103F6000B00D1124A051BD4FFE01319601900D926C
:103F70009A95E1F78093EF020E947608D6CF1092CF
:103F8000C0020E9433131092EF021092280387E0C0
:103F9000E0E0F2E0DF011D928A95E9F7C6CF819F4C
:103FA000C001112480519D4F0E94EC1D882321F2F5
:103FB0008091280390E001968770992780932803C9
:103FC000B5CFACE0B0E0E7EEFFE10C94C728182FC6
:103FD000062F662359F10E94CE041F832DEF2887F8
:103FE0009A87898782E08B8781E08C874F8158850B
:103FF00069857A858B859C850E94531F0023F9F083
:104000000E94CE0419832DEF2A839C838B8382E048
:104010008D831E8249815A816B817C818D819E8135
:104020000E94531F2C96E4E00C94E3280E94CE04D7
:104030001F832CEF28879A87898783E0D4CF0E943B
:10404000CE0419832CEF2A839C838B8383E0E0CFFB
:10405000A1E0B0E0EEE2F0E20C94C228EE24E3949A
:10406000F12C0BE412E09E012F5F3F4F40E452E041
:1040700063E082E00E94F80FC82E882339F100E047
:1040800080E01DC0D0905D02D00E2D2D30E0A90142
:1040900049585D4F7A01E1E0F0E0EC0FFD1FE00FC1
:1040A000F11D1081FA019081191BB12E1B149CF097
:1040B000912F17FD90E0191B111118C00F5F9091FF
:1040C0005C020917F8F281110E946C088C2D219670
:1040D000E9E00C94DE28BA94F70180818F5F808339
:1040E00060E08D2D0E94E11F8C2DE0CF1F5FF70156
:1040F00080818150808361E08D2D0E94E11F8C2D95
:10410000DBCFA6E0B0E0E7E8F0E20C94C7280E941D
:10411000CE048C0180912A0290912B028017910786
:1041200081F019821A820E94CE04682F49815A8137
:10413000792F80E090E00E94531F10932B02009390
:104140002A022696E4E00C94E3281F920F920FB601
:104150000F9211242F933F934F935F936F937F930D
:104160008F939F93AF93BF93CF93DF93EF93FF937F
:10417000D091E900DF708091EC00C82FC17080FD04
:10418000C0E81092E9008091F000877F8093F000F2
:1041900078940E9460131092E9008091F00088608A
:1041A0008093F000CD2BCF70C093E900FF91EF9189
:1041B000DF91CF91BF91AF919F918F917F916F913F
:1041C0005F914F913F912F910F900FBE0F901F90D5
:1041D00018951F920F920FB60F9211242F933F93B1
:1041E0004F935F936F937F938F939F93AF93BF93FF
:1041F000EF93FF938091E10082FF09C08091E2007C
:1042000082FF05C08091E1008B7F8093E100809167
:10421000DA0080FF24C08091D80080FF20C0809108
:10422000DA008E7F8093DA008091D90080FF9DC0F4
:1042300080E189BD82E189BD09B400FEFDCF81E046
:104240008093E5028091BF02811109C00E9445035D
:104250000E94E6038091E20084608093E2008091F6
:10426000E10080FF17C08091E20080FF13C08091C1
:10427000E2008E7F8093E2008091E2008061809373
:10428000E2008091D80080628093D80019BC85E05C
:104290008093E5028091E10084FF2BC08091E200D1
:1042A00084FF27C080E189BD82E189BD89B5982F4F
:1042B000917080FFFBCF8091D8008F7D8093D800D4
:1042C0008091E1008F7E8093E1008091E2008F7EFB
:1042D0008093E2008091E20081608093E20080910F
:1042E000E602882309F447C084E08093E5028091C8
:1042F000E5028091E10083FF27C08091E20083FF07
:1043000023C08091E100877F8093E10082E0809369
:10431000E5021092E6028091E1008E7F8093E10039
:104320008091E2008E7F8093E2008091E2008061C4
:104330008093E20042E060E080E00E94B40380915C
:10434000F00088608093F000FF91EF91BF91AF91F2
:104350009F918F917F916F915F914F913F912F919D
:104360000F900FBE0F901F90189519BC1092E50288
:104370001092BF0274CF8091E30087FD93E0909389
:10438000E502B5CF78941F921FB61F9211248F9328
:104390009F93AF93BF938091B9029091BA02A0917D
:1043A000BB02B091BC020196A11DB11D8093B90260
:1043B0009093BA02A093BB02B093BC02BF91AF919D
:1043C0009F918F911F901FBE1F9018951F921FB62F
:1043D0001F9211248F939F93AF93BF938091B80244
:1043E000811113C08091B9029091BA02A091BB02D1
:1043F000B091BC024196A11DB11D8093B90290936A
:10440000BA02A093BB02B093BC02BF91AF919F913F
:104410008F911F901FBE1F901895CDB7DEB7A6973E
:104420000FB6F894DEBF0FBECDBF85B7806885BFDD
:1044300085B7806885BF84B7877F84BF0FB6F8943F
:10444000A895809160008861809360001092600060
:104450000FBE80E890E00FB6F894809361009093CF
:1044600061000FBE84E496E09093B5018093B4019F
:104470000E9445030E94E6038091E20084608093DD
:10448000E20078948091E5028823A1F01091E90080
:104490001F709091EC00892F817090FD80E8182B9F
:1044A0001092E9008091E80083FD0E9460131F7064
:1044B0001093E90082E084BD93E095BD9AEF97BD2B
:1044C00080936E000E94060D811102C00E94EB0BCA
:1044D0000E94C00A80933A010E94C00A81110E9482
:1044E000572790913A0181E0982790937B02282FDB
:1044F000291B20935D0290913A0180937C02909158
:104500003A0180935C025198599A26982E9A8FE826
:1045100091E00197F1F700C0000020917C024DE787
:1045200052E0FA018E2F841B821708F4CEC08091CE
:104530003A0180913A0195E0811190E090936902EF
:1045400085E0891B8093680209E811E03EE8E32ECC
:1045500031E0F32ED8018D918D018F3F11F00E9433
:104560004606E016F106B1F70EE811E0F801819178
:104570008F018F3F11F00E944606F1E005391F07B9
:10458000A9F78AE0E0E8F2E0DF01282F1D922A95E2
:10459000E9F7EEE5F2E0DF011D928A95E9F790E098
:1045A00080E00E942D29863E9E4F21F40E94060D38
:1045B000811167C066EE7EEF90E080E00E94612985
:1045C00060E082E090E00E94432960E083E090E0B8
:1045D0000E94432910926A0260E074E184E090E056
:1045E0000E94612960E086E090E00E9443296FEF1D
:1045F00087E090E00E94432940E050E0BA0188E063
:1046000090E00E94552960E084E290E00E944329F6
:1046100060E087E190E00E94432960E08CE090E058
:104620000E94432960E08DE090E00E9443291982B6
:104630001A821B821C821D821E821F82188648E0FD
:1046400050E068E170E0CE0101960E94332940E01D
:1046500050E0BA0180E290E00E94552980E00E947B
:10466000D20B0E94EB0B40E050E0BA018FE090E0EB
:104670000E94552940E050E0BA0183E190E00E9499
:10468000552982E090E00E94252980936C0284E005
:1046900090E00E942D299093BE028093BD020E945B
:1046A0002A11EFE3FCE93197F1F700C000000E9406
:1046B0002A118091800280FF13C06FEF7FEF90E09E
:1046C00080E00E9461290E94A20489B186958170D0
:1046D0001E9904C090E0892B819324CF92E0FBCFF8
:1046E00083E090E00E9425290E945A090E94C00A96
:1046F000811102C00E945A270E94C00A811102C083
:104700000E94740A8BE391E09093B5028093B40207
:1047100098E1E92EF12CBB24B394AA24A39424E0BD
:10472000C22ED12C8091E50200E112E1853009F41E
:1047300082C00E942A110DE612E080E8882E82E0F5
:10474000982ED401F80191918D9122E0E737F2077C
:1047500009F47DC09817B9F30E94C00A282E712C65
:10476000D4016D904D01F80131908F01361429F17B
:104770003624512C44244394832D8421B1F02220EB
:10478000A1F059A27AA20E94CE049CA38BA3ADA251
:1047900091E0862D842109F490E09EA349A15AA1BD
:1047A0006BA17CA18DA10E94531F5394440CF7E090
:1047B0005F12E2CFF8013197608273942AE072129F
:1047C000CFCF0E94C20447C08091E502843021F11E
:1047D0000E94480D1092B802F0E40FB6F894A89524
:1047E000E09260000FBEF093600083B7817F846029
:1047F00083BF83B7816083BF7894889583B78E7FAA
:1048000083BF0FB6F894A89580916000886180936B
:104810006000109260000FBE8091E402882359F07E
:104820000E942A11E0E8F2E081918111BDC222E0EC
:10483000EA38F207C9F78091E502853009F4C4CF60
:104840001092C0020E9433130E94E30A72CF9813A1
:1048500083CF0E9481200E94C00A812C712C8091FC
:104860007C02881608F404C171100E946C080E9432
:10487000480D81110E94C20486E0E9E9F2E0DE0100
:10488000119601900D928A95E1F710929B02109279
:104890009C0210929D0210929E028B819C81892B1A
:1048A00009F447C080918F02909190020E94B30456
:1048B0009C0190918A02992309F49CC2253131050B
:1048C000C0F19F3F19F09F5F90938A021B811123D3
:1048D00059F00E9416069FEF11160CF491E0899F83
:1048E000802D112480939B021C81112359F00E947A
:1048F00016069FEF11160CF491E0899F802D11246C
:1049000080939C0280919B02882399F010919C02D5
:10491000112379F00E943606882309F409C1809397
:104920009B02812F0E943606882309F404C18093DC
:104930009C028D819E81892B09F447C080918D0254
:1049400090918E020E94B3049C0190918B02992356
:1049500009F44BC221353105C0F19F3F19F09F5F2B
:1049600090938B021D81112359F00E94F4059FEF53
:1049700011160CF491E0899F802D112480939D02E3
:104980001E81112359F00E94F4059FEF11160CF4BB
:1049900091E0899F802D112480939E0280919D0239
:1049A000882399F010919E02112379F00E94360617
:1049B000882309F4C3C080939D02812F0E9436068C
:1049C000882309F4BEC080939E02BE016F5F7F4FB3
:1049D00089E992E00E94DA0481110CC080919B0267
:1049E00090919C02892B90919D02892B90919E021F
:1049F000892B11F00E94D80586E0FE013196A9E9C5
:104A0000B2E001900D928A95E1F70E94E30A90913D
:104A10007F02891721F080937F020E94C204809157
:104A2000E502843009F07ECE83E08093E900809136
:104A3000E80082FF77CE8091E80090E085FF06C015
:104A40000E946403882309F47FC091E08091E8000C
:104A50008B778093E800992309F464CEE981E150D3
:104A6000E53108F098C0F0E0EB5EF34D0C941829A6
:104A7000082D10E0E9B1E695E1701E9951C080E083
:104A80008E2BD801A358BD4FEC919E2F93708917A0
:104A900009F444C0EE0FEE0FE82BEC9390907B02EC
:104AA000980CEF70F0E0EB56FE4F07581D4F8081D9
:104AB000D8019C91890F8C93612C843084F0E92D6E
:104AC000F0E0E958FD4F80818F5F80830E94C00A2B
:104AD000682E882339F160E0892D0E94E11FF801DA
:104AE00080818D3F84F4E92DF0E0E958FD4F80810D
:104AF000815080830E94C00A682E8823B1F061E053
:104B0000892D0E94E11FD8018C91082E000C990B71
:104B1000B6010E940429F8018083762883949FCEF1
:104B200082E0AECF66246394DACF66246394EBCF41
:104B3000B0929B02F6CEB0929C02FBCEB0929D0248
:104B40003CCFB0929E0241CF00E210E0CE01019630
:104B50004C018091E80085FD0AC08091E8008B77C8
:104B60008093E8000E946403882399F36ECF8091BC
:104B7000F100D4018D934D010150110951F765CF1A
:104B80001A828CE08B831BC08A81823009F424C195
:104B900028F4813061F08FEF898311C08330C1F038
:104BA0008430C9F71B821C821D821E8208C00E94AD
:104BB000C2040E941E296B837C838D839E8340E206
:104BC00050E0BE016F5F7F4F82E00E945D09AACD79
:104BD0002B81822F90E0FE013496245E8A3091056D
:104BE00070F7DC01A058BD4F3C913193019628131A
:104BF000F5CFE5CF8A81823019F0853001F3CBCF34
:104C00006B817C818D819E810E941E2988E290E0CB
:104C10000E944329D4CF4C816B818A810E94340C3D
:104C20009827892798279E838D83C9CF2D813E8120
:104C30003227232732274C816B818A810E94470BC0
:104C4000BECF0E946D0BBBCF80E18A83B8CF1A82A2
:104C500083EF98CF0A811B81102701271027FE01BF
:104C600031963F018C80CF01880D911D4C01C80108
:104C7000835F9C4F8614970409F4A1CF033F11056D
:104C800058F40E942529D30114968C930F5F1F4F6F
:104C9000FFEF6F1A7F0AEBCFF3011482F7CF0A817F
:104CA0001B81102701271027CE0101963C018C8023
:104CB000800E912E911CC801835F9C4F0815190529
:104CC00009F47DCF033F110528F4D30114966C91AC
:104CD0000E944329BFEF6B1A7B0A0F5F1F4FEBCF78
:104CE0000E94060B6CCF85E0B0CF0A811B81102794
:104CF00001271027FE0131963F018C80CF01880DDE
:104D0000911D4C01C80189968614970409F457CF68
:104D10000C3BA2E01A0750F40E942529F30184837A
:104D20000F5F1F4FBFEF6B1A7B0AECCFD3011496B6
:104D30001C92F6CF0A811B81102701271027FE0144
:104D400031963F018C80800E912E911CC80189966E
:104D50008016910609F433CF0C3BF2E01F0728F4CC
:104D6000D30114966C910E944329BFEF6B1A7B0A02
:104D70000F5F1F4FEBCF41E08C81811101C040E0FC
:104D80006B818A810E94FB0B4BCF2D813E813227A4
:104D90002327322741E08C81811101C040E06B81E3
:104DA0008A810E94160B0BCF09BD19BD09B400FE04
:104DB000FDCF8091D8008F7D8093D8008091E00056
:104DC00082608093E0008091E00081FDFCCF109232
:104DD000C0020E9433132FCD88E290E00E94252963
:104DE0001B821C821D828E83EACE2B30310508F097
:104DF000B6CDEBCD2B30310508F065CD9ACD8EE1E7
:104E0000489B02C08150E1F7489BFECF0895589817
:104E100080E28A95F1F7589A0895FC013BE03A95B3
:104E2000F1F798E020E080E031E040E14A95F1F7C9
:104E3000880F489B02C08160232742E04A95F1F722
:104E4000000040E14A95F1F7915079F790E19A9589
:104E5000F1F799B132E03A95F1F7000040E14A9557
:104E6000F1F7917092272081920F90830895A1E02D
:104E7000B0E0EDE3F7E20C94C52819828C017C01C7
:104E8000E60EF11C0E151F0541F481E09981911188
:104E900080E02196E6E00C94E1280E94FF26CE01F6
:104EA00001960E940D27F80181938F01EBCF509A54
:104EB000589A08955098589AE89AE9E6F0E0808167
:104EC0008C7F808308956150770B91E001C0990F2A
:104ED0006A95EAF720E031E0911108C0222391F0B1
:104EE000589A80E28A95F1F758980895492F4823F7
:104EF00039F0589A232740E24A95F1F79695ECCF7E
:104F00005898F9CF5898EDCFFF920F931F93CF93F6
:104F1000DF93EC018C01060F111DC017D10729F496
:104F2000CDB7DEB7E5E00C94E228F9900E940727A0
:104F300068E08F2D0E946327F0CF1F920F920FB66B
:104F40000F9211240F931F932F933F934F935F93CF
:104F50006F937F938F939F93AF93BF93EF93FF9341
:104F6000CF93DF930F92CDB7DEB719820E94FF2651
:104F7000CE0101960E940D27082F069506950695ED
:104F8000282F22952570902F9570290F922F9370BE
:104F900026952695920F982797708981982B09F06E
:104FA0005CC0083008F059C080E18A95F1F7589A42
:104FB000509A82E08A95F1F700C0589888E0089FDF
:104FC00080011124D801AE5FBE4F1696ED91FC9181
:104FD00017973097A9F06091870170918801149616
:104FE0002D913C911597260F371F11968D919C910D
:104FF0001297680F791F13964C9113978C9109950E
:10500000F801EE5FFE4F6381662351F02091870126
:105010003091880184819581820F931F0E9484279B
:105020000E94072780E18A95F1F758985098589A7E
:1050300080E18A95F1F7F801EE5FFE4F608166230B
:1050400051F0209187013091880181819281820FF6
:10505000931F0E9437270E94FF260F90DF91CF9168
:10506000FF91EF91BF91AF919F918F917F916F9140
:105070005F914F913F912F911F910F910F900FBE14
:105080000F901F9018950F931F93CF93DF93EC0110
:1050900008970CF04CC0F894509A589885E08A957F
:1050A000F1F700009C2F969595708C2F8570980FC6
:1050B000892F83709695969523E0CC0FDD1F2A9556
:1050C000E1F7980F8E01092B0E94072700C068E0C6
:1050D000802F0E94632780E18A95F1F75098589AB3
:1050E000489B1EC087E090E048991CC0FE01EE5F1F
:1050F000FE4F63816623F9F020918701309188018A
:1051000084819581820F931F0E943727811113C0DC
:10511000509A589A7894DF91CF911F910F910895EA
:1051200000C0DECF019729F4509A589A789480E015
:10513000F2CF00C0D9CF0E94FF2680E28A95F1F716
:105140005898509A80E18A95F1F7CE5FDE4F6881DA
:10515000662351F0209187013091880189819A81DD
:10516000820F931F0E9484270E940727789481E072
:10517000D2CF2F923F924F925F926F927F928F92F7
:105180009F92AF92BF92CF92DF92EF92FF920F93D6
:105190001F93CF93DF93CDB7DEB7CA1BDB0B0FB6E0
:1051A000F894DEBF0FBECDBF09942A88398848889D
:1051B0005F846E847D848C849B84AA84B984C88433
:1051C000DF80EE80FD800C811B81AA81B981CE0F2A
:1051D000D11D0FB6F894DEBF0FBECDBFED0108950F
:1051E000AA1BBB1B51E107C0AA1FBB1FA617B7070D
:1051F00010F0A61BB70B881F991F5A95A9F7809529
:105200009095BC01CD01089597FB072E16F40094EC
:1052100007D077FD09D00E94F02807FC05D03EF4A6
:10522000909581959F4F0895709561957F4F089552
:10523000EE0FFF1F0590F491E02D09946927962742
:1052400069277827872778270895F999FECF92BD97
:1052500081BDF89A992780B50895A8E1B0E042E0B1
:1052600050E00C946929DC01A40FB51F4150504057
:1052700048F0CB01840F951F2E910E944429415084
:105280005040D0F70895262FF999FECF92BD81BDE9
:10529000F89A019700B4021639F01FBA20BD0FB674
:1052A000F894FA9AF99A0FBE08950396272F0E9450
:1052B00044290E944329252F0E944429242F0C941D
:1052C00044290196272F0E9444290C944329DC018C
:1052D000CB01FC01F999FECF06C0F2BDE1BDF89A01
:1052E000319600B40D9241505040B8F7089550588F
:1052F000BB27AA270E948F290C94C72A0E948E2AB6
:1053000038F00E94952A20F039F49F3F19F426F4D2
:105310000C948B2A0EF4E095E7FB0C94852AE92F78
:105320000E94EC2A58F3BA1762077307840795079F
:1053300020F079F4A6F50C940E2B0EF4E0950B2ECC
:10534000BA2FA02D0B01B90190010C01CA01A001D7
:105350001124FF27591B99F0593F50F4503E68F132
:105360001A16F040A22F232F342F4427585FF3CF73
:10537000469537952795A795F0405395C9F77EF444
:105380001F16BA0B620B730B840BBAF09150A1F08D
:10539000FF0FBB1F661F771F881FC2F70EC0BA0F13
:1053A000621F731F841F48F4879577956795B7959B
:1053B000F7959E3F08F0B0CF9395880F08F0992796
:1053C000EE0F9795879508950E94612A08F481E071
:1053D00008950E949E2AE3950C94D82A0E94F529EC
:1053E0006894B1110C940F2B08950E94F42A88F050
:1053F0009F5798F0B92F9927B751B0F0E1F0660F99
:10540000771F881F991F1AF0BA95C9F714C0B130D9
:1054100091F00E940E2BB1E008950C940E2B672F93
:10542000782F8827B85F39F0B93FCCF38695779508
:105430006795B395D9F73EF49095809570956195F1
:105440007F4F8F4F9F4F0895E89409C097FB3EF41C
:1054500090958095709561957F4F8F4F9F4F9923C1
:10546000A9F0F92F96E9BB279395F695879577953F
:105470006795B795F111F8CFFAF4BB0F11F460FFFF
:105480001BC06F5F7F4F8F4F9F4F16C0882311F057
:1054900096E911C0772321F09EE8872F762F05C06B
:1054A000662371F096E8862F70E060E02AF09A9506
:1054B000660F771F881FDAF7880F9695879597F9FB
:1054C0000895990F0008550FAA0BE0E8FEEF161695
:1054D0001706E807F907C0F012161306E407F507E8
:1054E00098F0621B730B840B950B39F40A2661F05C
:1054F000232B242B252B21F408950A2609F4A140FF
:10550000A6958FEF811D811D089597F99F6780E80B
:1055100070E060E008959FEF80EC089500240A9405
:105520001616170618060906089500240A9412167E
:1055300013061406050608950C948B2A0E94F42A7B
:10554000D8F3E894E0E0BB279F57F0F02AED3FE066
:1055500049EC06C0EE0FBB0F661F771F881F28F0AF
:10556000B23A62077307840728F0B25A620B730BD2
:10557000840BE3959A9572F7803830F49A95BB0FB7
:10558000661F771F881FD2F790480C94912B092E25
:105590000394000C11F4882352F0BB0F40F4BF2B8E
:1055A00011F460FF04C06F5F7F4F8F4F9F4F0895CE
:1055B000EF93E0FF07C0A2EA2AED3FE049EC5FEB82
:1055C0000E948F290E94C72A0F90039401FC9058D3
:1055D000ECEAF0E00C949D2B57FD9058440F551FBA
:1055E00059F05F3F71F04795880F97FB991F61F065
:1055F0009F3F79F087950895121613061406551FDC
:10560000F2CF4695F1DF08C0161617061806991F47
:10561000F1CF86957105610508940895E894BB273C
:1056200066277727CB0197F908950E94612A08F42D
:105630008FEF08950E942D2B0C94C72A0E948E2A6A
:1056400038F00E94952A20F0952311F00C94852AB9
:105650000C948B2A11240C940F2B0E94EC2A70F3CB
:10566000959FC1F3950F50E0551F629FF001729F07
:10567000BB27F00DB11D639FAA27F00DB11DAA1F16
:10568000649F6627B00DA11D661F829F2227B00D63
:10569000A11D621F739FB00DA11D621F839FA00DEE
:1056A000611D221F749F3327A00D611D231F849F3E
:1056B000600D211D822F762F6A2F11249F57504095
:1056C0009AF0F1F088234AF0EE0FFF1FBB1F661F10
:1056D000771F881F91505040A9F79E3F510580F0D9
:1056E0000C94852A0C940F2B5F3FE4F3983ED4F37F
:1056F000869577956795B795F795E7959F5FC1F77D
:10570000FE2B880F911D9695879597F908959F9385
:105710000E949E2A0F9007FCEE5F0C94D82A9F3FB0
:1057200031F0915020F4879577956795B795880F5C
:10573000911D9695879597F908959F938F937F93E1
:105740006F93FF93EF939B01AC010E941A2BEF9193
:10575000FF910E94B12B2F913F914F915F910C943B
:105760001A2BDF93CF931F930F93FF92EF92DF9249
:105770007B018C01689406C0DA2EEF010E942D2B6C
:10578000FE01E894A5912591359145915591A6F397
:10579000EF010E948F29FE019701A801DA9469F7B1
:1057A000DF90EF90FF900F911F91CF91DF910895BF
:1057B000FB01DC0104C08D910190801921F441505E
:1057C0005040C8F7881B990B0895FB01DC0102C00B
:1057D00001900D9241505040D8F70895F894FFCFB2
:1057E00043146B140E166B140E169E14BF140E1673
:1057F000BD15CA158C18BD18EC181719441966196F
:105800007D199119BA19CB19E819F719FD19501A10
:10581000771A071B071B411B411BF31B0D1C6A1B3F
:105820006A1B121C7F1C901C901CC025C425FA25E5
:105830000B2616262126CB25CB25CB25CB25CB2504
:10584000242627262A264F267026732675269A2672
:04585000BB26C52688
:10585400CF0300000001000000000000000501006B
:105864000000000000010600000000000001070025
:10587400000000000001080000000000000609000C
:105884000000020F000000000000019F04A6099F11
:105894000998090000803F0000803FCF0301818206
:1058A40083E200E900EA00B500B600B700CD00834A
:1058B40001CC008A019201940121022302240225D1
:1058C40002260227022A02B300B4006F0070009F70
:1058D40001CB019F02A00244026697C63435F4F559
:1058E400939294333200FF0100010000FFFF000097
:1058F400010001FF004422B6A2018001CA008C0508
:04590400A505C5052B
:00000001FF
